:100000000C942A000C9434000C9434000C943400AA
:100010000C9434000C9434000C9434000C94340090
:100020000C9434000C9434000C9434000C94340080
:100030000C9434000C9434000C9434000C94340070
:100040000C9434000C9434000C9434000C94340060
:100050000C94340011241FBECFE5D8E0DEBFCDBF25
:100060000E9466060C94D7160C940000CF93DF9381
:10007000CDB7DEB761E08AE10E94570261E08BE113
:100080000E94570261E08EE10E94570261E08FE119
:100090000E94570261E088E00E94570261E089E017
:1000A0000E94570261E08AE00E94570261E08BE003
:1000B0000E94570260E08AE10E94670160E08BE1E4
:1000C0000E94670160E08EE10E94670160E08FE1BD
:1000D0000E9467010000DF91CF910895CF93DF93D5
:1000E0001F92CDB7DEB789838981813021F461E029
:1000F0008AE10E9467018981823021F461E08BE10D
:100100000E9467018981833021F461E08EE10E94C1
:1001100067018981843021F461E08FE10E946701E9
:1001200000000F90DF91CF910895CF93DF931F923E
:10013000CDB7DEB789838981882389F460E088E0C0
:100140000E94670160E089E00E94670160E08AE048
:100150000E94670160E08BE00E946701B3C0898163
:10016000813089F461E088E00E94670160E089E005
:100170000E94670160E08AE00E94670160E08BE016
:100180000E9467019FC08981823089F460E088E025
:100190000E94670161E089E00E94670160E08AE0F7
:1001A0000E94670160E08BE00E9467018BC089813B
:1001B000833089F461E088E00E94670161E089E0B2
:1001C0000E94670160E08AE00E94670160E08BE0C6
:1001D0000E94670177C08981843089F460E088E0FB
:1001E0000E94670160E089E00E94670161E08AE0A7
:1001F0000E94670160E08BE00E94670163C0898113
:10020000853089F461E088E00E94670160E089E060
:100210000E94670161E08AE00E94670160E08BE074
:100220000E9467014FC08981863089F460E088E0D0
:100230000E94670161E089E00E94670161E08AE055
:100240000E94670160E08BE00E9467013BC08981EA
:10025000873089F461E088E00E94670161E089E00D
:100260000E94670161E08AE00E94670160E08BE024
:100270000E94670127C08981883089F460E088E0A6
:100280000E94670160E089E00E94670160E08AE007
:100290000E94670161E08BE00E94670113C08981C1
:1002A000893081F461E088E00E94670160E089E0C4
:1002B0000E94670160E08AE00E94670161E08BE0D4
:1002C0000E94670100000F90DF91CF910895CF93B6
:1002D000DF9300D0CDB7DEB789836A838981883008
:1002E00078F58A818130A1F48BE390E02BE330E054
:1002F000F9012081622F2981422F50E021E030E076
:1003000002C0220F331F4A95E2F7262BFC012083FF
:100310008A818823A9F48BE390E02BE330E0F90194
:100320002081622F2981422F50E021E030E002C07D
:10033000220F331F4A95E2F720952623FC012083E4
:1003400089818830C0F189818031A8F58A81813026
:10035000B9F488E390E028E330E0F9012081622FCE
:100360002981222F30E0A9014850510921E030E0D5
:1003700002C0220F331F4A95E2F7262BFC0120838F
:100380008A818823C1F488E390E028E330E0F90112
:100390002081622F2981222F30E0A9014850510984
:1003A00021E030E002C0220F331F4A95E2F720958A
:1003B0002623FC01208389818031C0F18981883125
:1003C000A8F58A818130B9F485E390E025E330E037
:1003D000F9012081622F2981222F30E0A9014051AB
:1003E000510921E030E002C0220F331F4A95E2F7A5
:1003F000262BFC0120838A818823C1F485E390E0C9
:1004000025E330E0F9012081622F2981222F30E09D
:10041000A9014051510921E030E002C0220F331FF1
:100420004A95E2F720952623FC01208389818931B2
:10043000C0F189818032A8F58A818130B9F482E3E4
:1004400090E022E330E0F9012081622F2981222F00
:1004500030E0A9014851510921E030E002C0220FEB
:10046000331F4A95E2F7262BFC0120838A818823DB
:10047000C1F482E390E022E330E0F9012081622FB1
:100480002981222F30E0A9014851510921E030E0B3
:1004900002C0220F331F4A95E2F720952623FC0164
:1004A000208300000F900F90DF91CF910895CF939C
:1004B000DF9300D0CDB7DEB789836A838981883026
:1004C00078F58A818130A1F48AE390E02AE330E074
:1004D000F9012081622F2981422F50E021E030E094
:1004E00002C0220F331F4A95E2F7262BFC0120831E
:1004F0008A818823A9F48AE390E02AE330E0F901B5
:100500002081622F2981422F50E021E030E002C09B
:10051000220F331F4A95E2F720952623FC01208302
:1005200089818830C0F189818031A8F58A81813044
:10053000B9F487E390E027E330E0F9012081622FEE
:100540002981222F30E0A9014850510921E030E0F3
:1005500002C0220F331F4A95E2F7262BFC012083AD
:100560008A818823C1F487E390E027E330E0F90132
:100570002081622F2981222F30E0A90148505109A2
:1005800021E030E002C0220F331F4A95E2F72095A8
:100590002623FC01208389818031C0F18981883143
:1005A000A8F58A818130B9F484E390E024E330E057
:1005B000F9012081622F2981222F30E0A9014051C9
:1005C000510921E030E002C0220F331F4A95E2F7C3
:1005D000262BFC0120838A818823C1F484E390E0E8
:1005E00024E330E0F9012081622F2981222F30E0BD
:1005F000A9014051510921E030E002C0220F331F10
:100600004A95E2F720952623FC01208389818931D0
:10061000C0F189818032A8F58A818130B9F481E303
:1006200090E021E330E0F9012081622F2981222F1F
:1006300030E0A9014851510921E030E002C0220F09
:10064000331F4A95E2F7262BFC0120838A818823F9
:10065000C1F481E390E021E330E0F9012081622FD1
:100660002981222F30E0A9014851510921E030E0D1
:1006700002C0220F331F4A95E2F720952623FC0182
:10068000208300000F900F90DF91CF910895CF93BA
:10069000DF9300D0CDB7DEB78A8319828A81883094
:1006A000D8F489E390E0FC018081282F30E08A8132
:1006B000482F50E081E090E002C0880F991F4A95D2
:1006C000E2F7822393232A81222F30E002C09595FE
:1006D00087952A95E2F789838A81883018F18A8183
:1006E000803100F586E390E0FC018081282F30E026
:1006F0008A81882F90E0AC014850510981E090E058
:1007000002C0880F991F4A95E2F7822393232A811A
:10071000222F30E02850310902C0959587952A95FF
:10072000E2F789838A81803118F18A81883100F566
:1007300083E390E0FC018081282F30E08A81882FBC
:1007400090E0AC014051510981E090E002C0880F77
:10075000991F4A95E2F7822393232A81222F30E0C2
:100760002051310902C0959587952A95E2F7898332
:100770008A81893118F18A81803200F580E390E026
:10078000FC018081282F30E08A81882F90E0AC0125
:100790004851510981E090E002C0880F991F4A95A5
:1007A000E2F7822393232A81222F30E02851310956
:1007B00002C0959587952A95E2F7898389810F90E4
:1007C0000F90DF91CF910895CF93DF93CDB7DEB730
:1007D00060E085E10E94570260E086E10E945702D6
:1007E00060E087E10E94570261E085E10E946701B5
:1007F00061E086E10E94670161E087E10E94670194
:1008000061E082E10E94570261E083E10E945702A9
:1008100061E084E10E9457020000DF91CF910895CA
:10082000CF93DF931F92CDB7DEB7198260E082E1EC
:100830000E94670161E083E10E94670161E084E159
:100840000E94670185E10E944703882319F481E033
:1008500089830FC086E10E944703882319F482E050
:10086000898307C087E10E944703882311F483E04E
:10087000898361E082E10E94670160E083E10E9478
:10088000670161E084E10E94670185E10E944703FE
:10089000882319F484E089830FC086E10E9447030E
:1008A000882319F485E0898307C087E10E94470304
:1008B000882311F486E0898361E082E10E94670168
:1008C00061E083E10E94670160E084E10E946701CA
:1008D00085E10E944703882319F487E089830FC0CC
:1008E00086E10E944703882319F488E0898307C0C2
:1008F00087E10E944703882311F489E08983898175
:100900000F90DF91CF910895CF93DF93CDB7DEB7EE
:1009100061E084E00E94570261E085E00E94570296
:1009200061E086E00E94570261E087E00E94570282
:1009300061E081E00E94570261E082E00E9457027C
:1009400061E083E00E94570283E30E94BA0482E3DD
:100950000E94BA0488E20E94BA048EE00E94BA049F
:1009600081E00E94BA0486E00E94BA040000DF9190
:10097000CF910895CF93DF93CDB7DEB7AB970FB686
:10098000F894DEBF0FBECDBF8BA760E081E00E9470
:10099000670160E082E00E94670160E083E00E94FE
:1009A00067018BE390E02BE330E0F9012081322FE7
:1009B0003F702BA5207F232BFC01208361E083E087
:1009C0000E94670180E090E0A0E0B0E489839A8310
:1009D000AB83BC8320E030E04AE753E469817A814D
:1009E0008B819C810E946A16DC01CB0189A39AA3AA
:1009F000ABA3BCA320E030E040E85FE369A17AA1AB
:100A00008BA19CA10E94BC1588232CF481E090E06E
:100A10009EA38DA33FC020E03FEF4FE757E469A1BD
:100A20007AA18BA19CA10E94651618164CF520E0B6
:100A300030E040E251E469817A818B819C810E949F
:100A40006A16DC01CB01BC01CD010E94C115DC019D
:100A5000CB019EA38DA30FC089E190E098A78FA33F
:100A60008FA198A50197F1F798A78FA38DA19EA1BB
:100A700001979EA38DA38DA19EA1892B69F714C018
:100A800069A17AA18BA19CA10E94C115DC01CB01B7
:100A90009EA38DA38DA19EA19AA789A789A59AA59A
:100AA0000197F1F79AA789A760E083E00E946701A8
:100AB00060E083E00E9467018BE390E02BE330E08D
:100AC000F9012081422F4F702BA5222F30E0229573
:100AD0003295307F3227207F3227242BFC01208360
:100AE00061E083E00E94670180E090E0A0E0B0E474
:100AF0008D839E83AF83B88720E030E04AE753E4DC
:100B00006D817E818F8198850E946A16DC01CB0100
:100B10008F8B988FA98FBA8F20E030E040E85FE399
:100B20006F89788D898D9A8D0E94BC1588232CF44D
:100B300081E090E09C8F8B8F3FC020E03FEF4FE73C
:100B400057E46F89788D898D9A8D0E9465161816E5
:100B50004CF520E030E040E251E46D817E818F81F0
:100B600098850E946A16DC01CB01BC01CD010E9470
:100B7000C115DC01CB019C8F8B8F0FC089E190E008
:100B80009E8F8D8F8D8D9E8D0197F1F79E8F8D8F0E
:100B90008B8D9C8D01979C8F8B8F8B8D9C8D892B42
:100BA00069F714C06F89788D898D9A8D0E94C1155F
:100BB000DC01CB019C8F8B8F8B8D9C8D98A38F8FAD
:100BC0008F8D98A10197F1F798A38F8F60E083E054
:100BD0000E94670180E090E0A0E0B0E489879A87F6
:100BE000AB87BC8720E030E04AE753E469857A852B
:100BF0008B859C850E946A16DC01CB018D879E87C0
:100C0000AF87B88B20E030E040E85FE36D857E85FC
:100C10008F8598890E94BC1588232CF481E090E090
:100C20009A8B898B3FC020E03FEF4FE757E46D85FB
:100C30007E858F8598890E94651618164CF520E0F0
:100C400030E040E251E469857A858B859C850E947D
:100C50006A16DC01CB01BC01CD010E94C115DC018B
:100C6000CB019A8B898B0FC089E190E09C8B8B8B99
:100C70008B899C890197F1F79C8B8B8B89899A8949
:100C800001979A8B898B89899A89892B69F714C076
:100C90006D857E858F8598890E94C115DC01CB0109
:100CA0009A8B898B89899A899E8B8D8B8D899E8958
:100CB0000197F1F79E8B8D8B0000AB960FB6F894E1
:100CC000DEBF0FBECDBFDF91CF9108950F931F936D
:100CD000CF93DF93CDB7DEB7C951D1400FB6F894AB
:100CE000DEBF0FBECDBF0E9436000E94E4030E940B
:100CF00084049E01225B3F4F80E090E0A0EAB0E4D4
:100D0000F90180839183A283B3838E010E5A1F4F12
:100D1000CE01825B9F4F20E030E04AE753E4FC01C4
:100D200060817181828193810E946A16DC01CB010E
:100D3000F80180839183A283B383CE018E5A9F4FA3
:100D400020E030E040E85FE3FC0160817181828156
:100D500093810E94BC1588234CF4CE018A5A9F4F80
:100D600021E030E0FC01318320836DC0CE018E5A3A
:100D70009F4F20E03FEF4FE757E4FC016081718116
:100D8000828193810E94651618160CF04AC0CE012C
:100D9000825B9F4F20E030E040E251E4FC01608143
:100DA0007181828193810E946A16DC01CB018E01E0
:100DB0000A5A1F4FBC01CD010E94C115DC01CB01B5
:100DC000F8019183808324C0CE01885A9F4F29E186
:100DD00030E0FC0131832083CE01885A9F4FFC0113
:100DE000808191810197F1F79E01285A3F4FF901C7
:100DF00091838083CE018A5A9F4F9E012A5A3F4F8A
:100E0000F9012081318121503109FC013183208396
:100E1000CE018A5A9F4FFC0180819181892BA1F6D6
:100E20002CC08E010A5A1F4FCE018E5A9F4FFC01D3
:100E300060817181828193810E94C115DC01CB01A7
:100E4000F80191838083CE01865A9F4F9E012A5AD2
:100E50003F4FF90120813181FC0131832083CE0194
:100E6000865A9F4FFC01808191810197F1F79E0185
:100E7000265A3F4FF901918380830E9410048D838D
:100E80008D81813009F07FC180E090E0A8E4B2E478
:100E90008A879B87AC87BD878E010A591F4F20E048
:100EA00030E04AE753E46A857B858C859D850E9406
:100EB0006A16DC01CB01F80180839183A283B3839E
:100EC000CE018A599F4F20E030E040E85FE3FC010B
:100ED00060817181828193810E94BC1588234CF4CA
:100EE000CE0186599F4F21E030E0FC013183208301
:100EF00069C0CE018A599F4F20E03FEF4FE757E48A
:100F0000FC0160817181828193810E9465161816AF
:100F10000CF046C020E030E040E251E46A857B8579
:100F20008C859D850E946A16DC01CB018E010659D5
:100F30001F4FBC01CD010E94C115DC01CB01F8019E
:100F40009183808324C0CE0184599F4F29E130E0F2
:100F5000FC0131832083CE0184599F4FFC018081A5
:100F600091810197F1F79E0124593F4FF901918337
:100F70008083CE0186599F4F9E0126593F4FF9012C
:100F80002081318121503109FC0131832083CE0140
:100F900086599F4FFC0180819181892BA1F62CC03D
:100FA0008E0106591F4FCE018A599F4FFC01608167
:100FB0007181828193810E94C115DC01CB01F8010E
:100FC00091838083CE0182599F4F9E0126593F4FC6
:100FD000F90120813181FC0131832083CE018259C6
:100FE0009F4FFC01808191810197F1F79E01225969
:100FF0003F4FF9019183808381E00E946E0082E07F
:101000000E946E0083E00E946E0084E00E946E00E9
:1010100081E00E94950080E090E0A8E4B2E489833A
:101020009A83AB83BC838E01045A1F4F20E030E0CB
:101030004AE753E469817A818B819C810E946A1618
:10104000DC01CB01F80180839183A283B383CE01BD
:10105000845A9F4F20E030E040E85FE3FC0160816C
:101060007181828193810E94BC1588234CF4CE014A
:10107000805A9F4F21E030E0FC013183208369C01A
:10108000CE01845A9F4F20E03FEF4FE757E4FC0129
:1010900060817181828193810E94651618160CF01F
:1010A00046C020E030E040E251E469817A818B81E2
:1010B0009C810E946A16DC01CB018E01005A1F4FF1
:1010C000BC01CD010E94C115DC01CB01F801918367
:1010D000808324C0CE018E599F4F29E130E0FC016E
:1010E00031832083CE018E599F4FFC0180819181F5
:1010F0000197F1F79E012E593F4FF90191838083AB
:10110000CE01805A9F4F9E01205A3F4FF901208106
:10111000318121503109FC0131832083CE01805A75
:101120009F4FFC0180819181892BA1F62CC08E01FB
:10113000005A1F4FCE01845A9F4FFC01608171817C
:10114000828193810E94C115DC01CB01F80191835A
:101150008083CE018C599F4F9E01205A3F4FF90149
:1011600020813181FC0131832083CE018C599F4F36
:10117000FC01808191810197F1F79E012C593F4F2D
:10118000F901918380838D81823009F07FC180E0F5
:1011900090E0A8E4B2E48A8B9B8BAC8BBD8B8E0174
:1011A00006581F4F20E030E04AE753E46A897B8904
:1011B0008C899D890E946A16DC01CB01F80180832D
:1011C0009183A283B383CE0186589F4F20E030E005
:1011D00040E85FE3FC0160817181828193810E941C
:1011E000BC1588234CF4CE0182589F4F21E030E09B
:1011F000FC013183208369C0CE0186589F4F20E0D7
:101200003FEF4FE757E4FC01608171818281938158
:101210000E94651618160CF046C020E030E040E24F
:1012200051E46A897B898C899D890E946A16DC0158
:10123000CB018E0102581F4FBC01CD010E94C11588
:10124000DC01CB01F8019183808324C0CE0180585A
:101250009F4F29E130E0FC0131832083CE0180588B
:101260009F4FFC01808191810197F1F79E012058E9
:101270003F4FF90191838083CE0182589F4F9E0199
:1012800022583F4FF9012081318121503109FC0161
:1012900031832083CE0182589F4FFC018081918150
:1012A000892BA1F62CC08E0102581F4FCE01865803
:1012B0009F4FFC0160817181828193810E94C115E1
:1012C000DC01CB01F80191838083CE018E579F4FC3
:1012D0009E0122583F4FF90120813181FC01318369
:1012E0002083CE018E579F4FFC0180819181019711
:1012F000F1F79E012E573F4FF9019183808381E0E2
:101300000E946E0082E00E946E0083E00E946E00E8
:1013100084E00E946E0082E00E94950080E090E0F0
:10132000A8E4B2E48E839F83A887B9878E01005911
:101330001F4F20E030E04AE753E46E817F818885CB
:1013400099850E946A16DC01CB01F80180839183A4
:10135000A283B383CE0180599F4F20E030E040E864
:101360005FE3FC0160817181828193810E94BC15E1
:1013700088234CF4CE018C589F4F21E030E0FC01D3
:101380003183208369C0CE0180599F4F20E03FEF19
:101390004FE757E4FC0160817181828193810E9453
:1013A000651618160CF046C020E030E040E251E42B
:1013B0006E817F81888599850E946A16DC01CB0148
:1013C0008E010C581F4FBC01CD010E94C115DC01DC
:1013D000CB01F8019183808324C0CE018A589F4FAE
:1013E00029E130E0FC0131832083CE018A589F4FF0
:1013F000FC01808191810197F1F79E012A583F4FAE
:10140000F90191838083CE018C589F4F9E012C5807
:101410003F4FF9012081318121503109FC01318395
:101420002083CE018C589F4FFC0180819181892BB4
:10143000A1F62CC08E010C581F4FCE0180599F4F32
:10144000FC0160817181828193810E94C115DC0160
:10145000CB01F80191838083CE0188589F4F9E0174
:101460002C583F4FF90120813181FC0131832083C9
:10147000CE0188589F4FFC01808191810197F1F73F
:101480009E0128583F4FF901918380838D818330DD
:1014900009F07FC180E090E0A8E4B2E48A8F9B8FDE
:1014A000AC8FBD8F8E0102571F4F20E030E04AE71E
:1014B00053E46A8D7B8D8C8D9D8D0E946A16DC01B4
:1014C000CB01F80180839183A283B383CE0182573D
:1014D0009F4F20E030E040E85FE3FC0160817181D4
:1014E000828193810E94BC1588234CF4CE018E56D4
:1014F0009F4F21E030E0FC013183208369C0CE01A1
:1015000082579F4F20E03FEF4FE757E4FC01608197
:101510007181828193810E94651618160CF046C075
:1015200020E030E040E251E46A8D7B8D8C8D9D8D12
:101530000E946A16DC01CB018E010E561F4FBC01C2
:10154000CD010E94C115DC01CB01F801918380839C
:1015500024C0CE018C569F4F29E130E0FC0131833D
:101560002083CE018C569F4FFC0180819181019791
:10157000F1F79E012C563F4FF90191838083CE01F4
:101580008E569F4F9E012E563F4FF901208131818B
:1015900021503109FC0131832083CE018E569F4FAB
:1015A000FC0180819181892BA1F62CC08E010E5601
:1015B0001F4FCE0182579F4FFC0160817181828154
:1015C00093810E94C115DC01CB01F80191838083D6
:1015D000CE018A569F4F9E012E563F4FF901208122
:1015E0003181FC0131832083CE018A569F4FFC015B
:1015F000808191810197F1F79E012A563F4FF901B1
:101600009183808381E00E946E0082E00E946E00E0
:1016100083E00E946E0084E00E946E0083E00E94DE
:10162000950080E090E0A8E4B2E48E879F87A88BC5
:10163000B98B8E010C571F4F20E030E04AE753E48E
:101640006E857F85888999890E946A16DC01CB01A5
:10165000F80180839183A283B383CE018C579F4F7F
:1016600020E030E040E85FE3FC016081718182812D
:1016700093810E94BC1588234CF4CE0188579F4F5C
:1016800021E030E0FC013183208369C0CE018C571A
:101690009F4F20E03FEF4FE757E4FC0160817181ED
:1016A000828193810E94651618160CF046C020E0D6
:1016B00030E040E251E46E857F85888999890E94F7
:1016C0006A16DC01CB018E0108571F4FBC01CD010A
:1016D0000E94C115DC01CB01F8019183808324C0F5
:1016E000CE0186579F4F29E130E0FC0131832083F2
:1016F000CE0186579F4FFC01808191810197F1F7C0
:101700009E0126573F4FF90191838083CE01885770
:101710009F4F9E0128573F4FF90120813181215071
:101720003109FC0131832083CE0188579F4FFC0192
:1017300080819181892BA1F62CC08E0108571F4F03
:10174000CE018C579F4FFC01608171818281938112
:101750000E94C115DC01CB01F80191838083CE0189
:1017600084579F4F9E0128573F4FF90120813181B7
:10177000FC0131832083CE0184579F4FFC0180817F
:1017800091810197F1F79E0124573F4FF901918311
:1017900080838D81843009F07FC180E090E0A8E4EF
:1017A000B2E48AA39BA3ACA3BDA38E010E551F4F29
:1017B00020E030E04AE753E46AA17BA18CA19DA11F
:1017C0000E946A16DC01CB01F80180839183A28319
:1017D000B383CE018E559F4F20E030E040E85FE3B9
:1017E000FC0160817181828193810E94BC158823F4
:1017F0004CF4CE018A559F4F21E030E0FC0131834B
:10180000208369C0CE018E559F4F20E03FEF4FE708
:1018100057E4FC0160817181828193810E94651689
:1018200018160CF046C020E030E040E251E46AA116
:101830007BA18CA19DA10E946A16DC01CB018E01C7
:101840000A551F4FBC01CD010E94C115DC01CB011F
:10185000F8019183808324C0CE0188559F4F29E1F0
:1018600030E0FC0131832083CE0188559F4FFC017D
:10187000808191810197F1F79E0128553F4FF90131
:1018800091838083CE018A559F4F9E012A553F4FF9
:10189000F9012081318121503109FC0131832083FC
:1018A000CE018A559F4FFC0180819181892BA1F641
:1018B0002CC08E010A551F4FCE018E559F4FFC0143
:1018C00060817181828193810E94C115DC01CB010D
:1018D000F80191838083CE0186559F4F9E012A5542
:1018E0003F4FF90120813181FC0131832083CE01FA
:1018F00086559F4FFC01808191810197F1F79E01F0
:1019000026553F4FF9019183808381E00E946E004C
:1019100082E00E946E0083E00E946E0084E00E94DC
:101920006E0084E00E94950080E090E0A8E4B2E4BC
:101930008E8B9F8BA88FB98F8E0108561F4F20E08A
:1019400030E04AE753E46E897F89888D998D0E9443
:101950006A16DC01CB01F80180839183A283B383F3
:10196000CE0188569F4F20E030E040E85FE3FC0165
:1019700060817181828193810E94BC1588234CF41F
:10198000CE0184569F4F21E030E0FC01318320835B
:1019900069C0CE0188569F4F20E03FEF4FE757E4E4
:1019A000FC0160817181828193810E946516181605
:1019B0000CF046C020E030E040E251E46E897F89BF
:1019C000888D998D0E946A16DC01CB018E01045628
:1019D0001F4FBC01CD010E94C115DC01CB01F801F4
:1019E0009183808324C0CE0182569F4F29E130E04D
:1019F000FC0131832083CE0182569F4FFC01808100
:101A000091810197F1F79E0122563F4FF901918391
:101A10008083CE0184569F4F9E0124563F4FF9018B
:101A20002081318121503109FC0131832083CE0195
:101A300084569F4FFC0180819181892BA1F62CC097
:101A40008E0104561F4FCE0188569F4FFC016081C6
:101A50007181828193810E94C115DC01CB01F80163
:101A600091838083CE0180569F4F9E0124563F4F25
:101A7000F90120813181FC0131832083CE01805620
:101A80009F4FFC01808191810197F1F79E012056C3
:101A90003F4FF901918380838D81853009F07FC1AB
:101AA00080E090E0A8E4B2E48AA79BA7ACA7BDA71A
:101AB0008E010A541F4F20E030E04AE753E46AA544
:101AC0007BA58CA59DA50E946A16DC01CB01F801BF
:101AD00080839183A283B383CE018A549F4F20E0F9
:101AE00030E040E85FE3FC01608171818281938195
:101AF0000E94BC1588234CF4CE0186549F4F21E0F0
:101B000030E0FC013183208369C0CE018A549F4FAD
:101B100020E03FEF4FE757E4FC0160817181828153
:101B200093810E94651618160CF046C020E030E044
:101B300040E251E46AA57BA58CA59DA50E946A168A
:101B4000DC01CB018E0106541F4FBC01CD010E9468
:101B5000C115DC01CB01F8019183808324C0CE0143
:101B600084549F4F29E130E0FC0131832083CE0172
:101B700084549F4FFC01808191810197F1F79E0170
:101B800024543F4FF90191838083CE0186549F4FA7
:101B90009E0126543F4FF9012081318121503109A6
:101BA000FC0131832083CE0186549F4FFC0180814C
:101BB0009181892BA1F62CC08E0106541F4FCE01B6
:101BC0008A549F4FFC0160817181828193810E94C0
:101BD000C115DC01CB01F80191838083CE018254D1
:101BE0009F4F9E0126543F4FF90120813181FC0116
:101BF00031832083CE0182549F4FFC0180819181EB
:101C00000197F1F79E0122543F4FF90191838083A0
:101C100081E00E946E0082E00E946E0083E00E94DC
:101C20006E0084E00E946E0085E00E94950080E0D6
:101C300090E0A8E4B2E48E8F9F8FA8A3B9A38E0191
:101C400004551F4F20E030E04AE753E46E8D7F8D4E
:101C500088A199A10E946A16DC01CB01F80180835A
:101C60009183A283B383CE0184559F4F20E030E05F
:101C700040E85FE3FC0160817181828193810E9471
:101C8000BC1588234CF4CE0180559F4F21E030E0F5
:101C9000FC013183208369C0CE0184559F4F20E031
:101CA0003FEF4FE757E4FC016081718182819381AE
:101CB0000E94651618160CF046C020E030E040E2A5
:101CC00051E46E8D7F8D88A199A10E946A16DC0176
:101CD000CB018E0100551F4FBC01CD010E94C115E3
:101CE000DC01CB01F8019183808324C0CE018E54A6
:101CF0009F4F29E130E0FC0131832083CE018E54D7
:101D00009F4FFC01808191810197F1F79E012E5434
:101D10003F4FF90191838083CE0180559F4F9E01F3
:101D200020553F4FF9012081318121503109FC01BB
:101D300031832083CE0180559F4FFC0180819181AA
:101D4000892BA1F62CC08E0100551F4FCE01845562
:101D50009F4FFC0160817181828193810E94C11536
:101D6000DC01CB01F80191838083CE018C549F4F1D
:101D70009E0120553F4FF90120813181FC013183C3
:101D80002083CE018C549F4FFC018081918101976B
:101D9000F1F79E012C543F4FF901918380838D818F
:101DA000863009F07FC180E090E0A8E4B2E48AAB1D
:101DB0009BABACABBDAB8E0106531F4F20E030E0B8
:101DC0004AE753E46AA97BA98CA99DA90E946A16D7
:101DD000DC01CB01F80180839183A283B383CE0120
:101DE00086539F4F20E030E040E85FE3FC016081D4
:101DF0007181828193810E94BC1588234CF4CE01AD
:101E000082539F4F21E030E0FC013183208369C081
:101E1000CE0186539F4F20E03FEF4FE757E4FC0190
:101E200060817181828193810E94651618160CF081
:101E300046C020E030E040E251E46AA97BA98CA9C9
:101E40009DA90E946A16DC01CB018E0102531F4F2F
:101E5000BC01CD010E94C115DC01CB01F8019183C9
:101E6000808324C0CE0180539F4F29E130E0FC01E4
:101E700031832083CE0180539F4FFC01808191816B
:101E80000197F1F79E0120533F4FF9019183808321
:101E9000CE0182539F4F9E0122533F4FF901208173
:101EA000318121503109FC0131832083CE018253DD
:101EB0009F4FFC0180819181892BA1F62CC08E015E
:101EC00002531F4FCE0186539F4FFC0160817181E9
:101ED000828193810E94C115DC01CB01F8019183BD
:101EE0008083CE018E529F4F9E0122533F4FF901B6
:101EF00020813181FC0131832083CE018E529F4F9E
:101F0000FC01808191810197F1F79E012E523F4F94
:101F1000F9019183808381E00E946E0082E00E943B
:101F20006E0083E00E946E0084E00E946E0086E0F6
:101F30000E94950080E090E0A8E4B2E48EA39FA305
:101F4000A8A7B9A78E0100541F4F20E030E04AE750
:101F500053E46EA17FA188A599A50E946A16DC01B1
:101F6000CB01F80180839183A283B383CE01805497
:101F70009F4F20E030E040E85FE3FC016081718129
:101F8000828193810E94BC1588234CF4CE018C532E
:101F90009F4F21E030E0FC013183208369C0CE01F6
:101FA00080549F4F20E03FEF4FE757E4FC016081F2
:101FB0007181828193810E94651618160CF046C0CB
:101FC00020E030E040E251E46EA17FA188A599A510
:101FD0000E946A16DC01CB018E010C531F4FBC011D
:101FE000CD010E94C115DC01CB01F80191838083F2
:101FF00024C0CE018A539F4F29E130E0FC01318398
:102000002083CE018A539F4FFC01808191810197EB
:10201000F1F79E012A533F4FF90191838083CE014E
:102020008C539F4F9E012C533F4FF90120813181EA
:1020300021503109FC0131832083CE018C539F4F05
:10204000FC0180819181892BA1F62CC08E010C535B
:102050001F4FCE0180549F4FFC01608171818281AE
:1020600093810E94C115DC01CB01F801918380832B
:10207000CE0188539F4F9E012C533F4FF901208181
:102080003181FC0131832083CE0188539F4FFC01B5
:10209000808191810197F1F79E0128533F4FF9010B
:1020A000918380838D81873009F07FC180E090E04B
:1020B000A8E4B2E48AAF9BAFACAFBDAF8E010252D1
:1020C0001F4F20E030E04AE753E46AAD7BAD8CADB2
:1020D0009DAD0E946A16DC01CB01F80180839183DB
:1020E000A283B383CE0182529F4F20E030E040E8CC
:1020F0005FE3FC0160817181828193810E94BC1544
:1021000088234CF4CE018E519F4F21E030E0FC013A
:102110003183208369C0CE0182529F4F20E03FEF80
:102120004FE757E4FC0160817181828193810E94B5
:10213000651618160CF046C020E030E040E251E48D
:102140006AAD7BAD8CAD9DAD0E946A16DC01CB0102
:102150008E010E511F4FBC01CD010E94C115DC0143
:10216000CB01F8019183808324C0CE018C519F4F15
:1021700029E130E0FC0131832083CE018C519F4F57
:10218000FC01808191810197F1F79E012C513F4F15
:10219000F90191838083CE018E519F4F9E012E5174
:1021A0003F4FF9012081318121503109FC013183F8
:1021B0002083CE018E519F4FFC0180819181892B1C
:1021C000A1F62CC08E010E511F4FCE0182529F4F9F
:1021D000FC0160817181828193810E94C115DC01C3
:1021E000CB01F80191838083CE018A519F4F9E01DC
:1021F0002E513F4FF90120813181FC013183208331
:10220000CE018A519F4FFC01808191810197F1F7A6
:102210009E012A513F4FF9019183808381E00E9402
:102220006E0082E00E946E0083E00E946E0084E0F7
:102230000E946E0087E00E94950080E090E0A8E494
:10224000B2E48EA79FA7A8ABB9AB8E010C521F4F6B
:1022500020E030E04AE753E46EA57FA588A999A95C
:102260000E946A16DC01CB01F80180839183A2836E
:10227000B383CE018C529F4F20E030E040E85FE313
:10228000FC0160817181828193810E94BC15882349
:102290004CF4CE0188529F4F21E030E0FC013183A5
:1022A000208369C0CE018C529F4F20E03FEF4FE763
:1022B00057E4FC0160817181828193810E946516DF
:1022C00018160CF046C020E030E040E251E46EA564
:1022D0007FA588A999A90E946A16DC01CB018E010D
:1022E00008521F4FBC01CD010E94C115DC01CB017A
:1022F000F8019183808324C0CE0186529F4F29E14B
:1023000030E0FC0131832083CE0186529F4FFC01D7
:10231000808191810197F1F79E0126523F4FF9018B
:1023200091838083CE0188529F4F9E0128523F4F58
:10233000F9012081318121503109FC013183208351
:10234000CE0188529F4FFC0180819181892BA1F69B
:102350002CC08E0108521F4FCE018C529F4FFC01A2
:1023600060817181828193810E94C115DC01CB0162
:10237000F80191838083CE0184529F4F9E012852A1
:102380003F4FF90120813181FC0131832083CE014F
:1023900084529F4FFC01808191810197F1F79E014A
:1023A00024523F4FF901918380838D81883009F059
:1023B0008BC19E012E5B3F4F80E090E0A8E4B2E429
:1023C000F90180839183A283B3838E010E501F4F46
:1023D000CE018E5B9F4F20E030E04AE753E4FC01E2
:1023E00060817181828193810E946A16DC01CB0138
:1023F000F80180839183A283B383CE018E509F4FD7
:1024000020E030E040E85FE3FC016081718182817F
:1024100093810E94BC1588234CF4CE018A509F4FB3
:1024200021E030E0FC01318320836DC0CE018E506D
:102430009F4F20E03FEF4FE757E4FC01608171813F
:10244000828193810E94651618160CF04AC0CE0155
:102450008E5B9F4F20E030E040E251E4FC01608160
:102460007181828193810E946A16DC01CB018E0109
:102470000A501F4FBC01CD010E94C115DC01CB01E8
:10248000F8019183808324C0CE0188509F4F29E1B9
:1024900030E0FC0131832083CE0188509F4FFC0146
:1024A000808191810197F1F79E0128503F4FF901FA
:1024B00091838083CE018A509F4F9E012A503F4FC7
:1024C000F9012081318121503109FC0131832083C0
:1024D000CE018A509F4FFC0180819181892BA1F60A
:1024E0002CC08E010A501F4FCE018E509F4FFC0111
:1024F00060817181828193810E94C115DC01CB01D1
:10250000F80191838083CE0186509F4F9E012A500F
:102510003F4FF90120813181FC0131832083CE01BD
:1025200086509F4FFC01808191810197F1F79E01B8
:1025300026503F4FF9019183808381E00E946E0015
:1025400082E00E946E0083E00E946E0084E00E94A0
:102550006E0088E00E94950080E090E0A8E4B2E47C
:102560008EAB9FABA8AFB9AF8E0108511F4F20E0D3
:1025700030E04AE753E46EA97FA988AD99AD0E9487
:102580006A16DC01CB01F80180839183A283B383B7
:10259000CE0188519F4F20E030E040E85FE3FC012E
:1025A00060817181828193810E94BC1588234CF4E3
:1025B000CE0184519F4F21E030E0FC013183208324
:1025C00069C0CE0188519F4F20E03FEF4FE757E4AD
:1025D000FC0160817181828193810E9465161816C9
:1025E0000CF046C020E030E040E251E46EA97FA943
:1025F00088AD99AD0E946A16DC01CB018E010451B1
:102600001F4FBC01CD010E94C115DC01CB01F801B7
:102610009183808324C0CE0182519F4F29E130E015
:10262000FC0131832083CE0182519F4FFC018081C8
:1026300091810197F1F79E0122513F4FF90191835A
:102640008083CE0184519F4F9E0124513F4FF90159
:102650002081318121503109FC0131832083CE0159
:1026600084519F4FFC0180819181892BA1F62CC060
:102670008E0104511F4FCE0188519F4FFC01608194
:102680007181828193810E94C115DC01CB01F80127
:1026900091838083CE0180519F4F9E0124513F4FF3
:1026A000F90120813181FC0131832083CE018051E9
:1026B0009F4FFC01808191810197F1F79E0120518C
:1026C0003F4FF901918380838D81893009F08EC15C
:1026D0009E01265B3F4F80E090E0A8E4B2E4F90160
:1026E00080839183A283B3838E010A5F1E4FCE0144
:1026F000865B9F4F20E030E04AE753E4FC016081B5
:102700007181828193810E946A16DC01CB01F801FC
:1027100080839183A283B383CE018A5F9E4F20E0A2
:1027200030E040E85FE3FC01608171818281938148
:102730000E94BC1588234CF4CE01865F9E4F21E099
:1027400030E0FC01318320836DC0CE018A5F9E4F53
:1027500020E03FEF4FE757E4FC0160817181828107
:1027600093810E94651618160CF04AC0CE01865B54
:102770009F4F20E030E040E251E4FC016081718134
:10278000828193810E946A16DC01CB018E01065F73
:102790001E4FBC01CD010E94C115DC01CB01F80127
:1027A0009183808324C0CE01845F9E4F29E130E075
:1027B000FC0131832083CE01845F9E4FFC01808128
:1027C00091810197F1F79E01245F3E4FF9019183BA
:1027D0008083CE01865F9E4F9E01265F3E4FF901AA
:1027E0002081318121503109FC0131832083CE01C8
:1027F000865F9E4FFC0180819181892BA1F62CC0C0
:102800008E01065F1E4FCE018A5F9E4FFC016081E4
:102810007181828193810E94C115DC01CB01F80195
:1028200091838083CE01825F9E4F9E01265F3E4F43
:10283000F90120813181FC0131832083CE01825F47
:102840009E4FFC01808191810197F1F79E01225FEB
:102850003E4FF9019183808381E00E946E0082E007
:102860000E946E0083E00E946E0084E00E946E0071
:1028700089E00E9495009E01225C3F4F80E090E03D
:10288000A8E4B2E4F90180839183A283B3838E012B
:1028900004501F4FCE01CE9620E030E04AE753E4CB
:1028A000FC0160817181828193810E946A16DC0142
:1028B000CB01F80180839183A283B383CE0184503E
:1028C0009F4F20E030E040E85FE3FC0160817181D0
:1028D000828193810E94BC15882344F4CE01939594
:1028E00021E030E0FC013183208367C0CE018450B9
:1028F0009F4F20E03FEF4FE757E4FC01608171817B
:10290000828193810E94651618160CF045C0CE0195
:10291000CE9620E030E040E251E4FC01608171811C
:10292000828193810E946A16DC01CB018E0113958E
:10293000BC01CD010E94C115DC01CB01F8019183DE
:10294000808322C0CE018E5F9E4F29E130E0FC01E2
:1029500031832083CE018E5F9E4FFC018081918167
:102960000197F1F79E012E5F3E4FF901918380831D
:10297000CE0193959E013395F9012081318121503B
:102980003109FC0131832083CE019395FC018081C4
:102990009181892BB9F62AC08E011395CE018450FE
:1029A0009F4FFC0160817181828193810E94C115DA
:1029B000DC01CB01F80191838083CE018C5F9E4FB7
:1029C0009E013395F90120813181FC0131832083FF
:1029D000CE018C5F9E4FFC01808191810197F1F7C0
:1029E0009E012C5F3E4FF901918380839E012A5BFB
:1029F0003F4F80E090E0AAE7B4E4F901808391833F
:102A0000A283B3838E01005F1E4FCE018A5B9F4F6E
:102A100020E030E04AE753E4FC016081718182816B
:102A200093810E946A16DC01CB01F80180839183B7
:102A3000A283B383CE01805F9E4F20E030E040E868
:102A40005FE3FC0160817181828193810E94BC15EA
:102A500088234CF4CE018C5E9E4F21E030E0FC01D7
:102A6000318320836DC0CE01805F9E4F20E03FEF19
:102A70004FE757E4FC0160817181828193810E945C
:102A8000651618160CF04AC0CE018A5B9F4F20E0F5
:102A900030E040E251E4FC016081718182819381E8
:102AA0000E946A16DC01CB018E010C5E1E4FBC0138
:102AB000CD010E94C115DC01CB01F8019183808317
:102AC00024C0CE018A5E9E4F29E130E0FC013183B3
:102AD0002083CE018A5E9E4FFC0180819181019707
:102AE000F1F79E012A5E3E4FF90191838083CE016A
:102AF0008C5E9E4F9E012C5E3E4FF90120813181FC
:102B000021503109FC0131832083CE018C5E9E4F20
:102B1000FC0180819181892BA1F62CC08E010C5E75
:102B20001E4FCE01805F9E4FFC01608171818281CA
:102B300093810E94C115DC01CB01F8019183808350
:102B4000CE01885E9E4F9E012C5E3E4FF901208192
:102B50003181FC0131832083CE01885E9E4FFC01D0
:102B6000808191810197F1F79E01285E3E4FF90126
:102B7000918380830C943D070E94F01508F481E056
:102B800008950E94441688F09F5798F0B92F99270E
:102B9000B751B0F0E1F0660F771F881F991F1AF048
:102BA000BA95C9F714C0B13091F00E945E16B1E039
:102BB00008950C945E16672F782F8827B85F39F038
:102BC000B93FCCF3869577956795B395D9F73EF4E1
:102BD00090958095709561957F4F8F4F9F4F089589
:102BE000990F0008550FAA0BE0E8FEEF161617061E
:102BF000E807F907C0F012161306E407F50798F086
:102C0000621B730B840B950B39F40A2661F0232B9E
:102C1000242B252B21F408950A2609F4A140A6951A
:102C20008FEF811D811D089597F99F6780E870E0FF
:102C300060E008959FEF80EC089500240A94161632
:102C4000170618060906089500240A94121613069A
:102C5000140605060895092E0394000C11F4882328
:102C600052F0BB0F40F4BF2B11F460FF04C06F5F44
:102C70007F4F8F4F9F4F089557FD9058440F551F1A
:102C800059F05F3F71F04795880F97FB991F61F0EE
:102C90009F3F79F087950895121613061406551F65
:102CA000F2CF4695F1DF08C0161617061806991FD1
:102CB000F1CF86957105610508940895E894BB27C6
:102CC00066277727CB0197F908950E94F01508F43D
:102CD0008FEF08950E947D160C942B160E941D16EE
:102CE00038F00E94241620F0952311F00C9414164D
:102CF0000C941A1611240C945F160E943C1670F363
:102D0000959FC1F3950F50E0551F629FF001729F90
:102D1000BB27F00DB11D639FAA27F00DB11DAA1F9F
:102D2000649F6627B00DA11D661F829F2227B00DEC
:102D3000A11D621F739FB00DA11D621F839FA00D77
:102D4000611D221F749F3327A00D611D231F849FC7
:102D5000600D211D822F762F6A2F11249F5750401E
:102D60009AF0F1F088234AF0EE0FFF1FBB1F661F99
:102D7000771F881F91505040A9F79E3F510580F062
:102D80000C9414160C945F165F3FE4F3983ED4F352
:102D9000869577956795B795F795E7959F5FC1F706
:102DA000FE2B880F911D9695879597F90895F894B5
:022DB000FFCF53
:00000001FF
