:100000000C942A000C9434000C9434000C943400AA
:100010000C9434000C9434000C9434000C94340090
:100020000C9434000C9434000C9434000C94340080
:100030000C9434000C9434000C9434000C94340070
:100040000C9434000C9434000C9434000C94340060
:100050000C94340011241FBECFE5D8E0DEBFCDBF25
:100060000E9492080C943F1A0C940000CF93DF93E7
:10007000CDB7DEB761E08AE10E94570261E08BE113
:100080000E94570261E08EE10E94570261E08FE119
:100090000E94570261E088E00E94570261E089E017
:1000A0000E94570261E08AE00E94570261E08BE003
:1000B0000E94570260E08AE10E94670160E08BE1E4
:1000C0000E94670160E08EE10E94670160E08FE1BD
:1000D0000E9467010000DF91CF910895CF93DF93D5
:1000E0001F92CDB7DEB789838981813021F461E029
:1000F0008AE10E9467018981823021F461E08BE10D
:100100000E9467018981833021F461E08EE10E94C1
:1001100067018981843021F461E08FE10E946701E9
:1001200000000F90DF91CF910895CF93DF931F923E
:10013000CDB7DEB789838981882389F460E088E0C0
:100140000E94670160E089E00E94670160E08AE048
:100150000E94670160E08BE00E946701B3C0898163
:10016000813089F461E088E00E94670160E089E005
:100170000E94670160E08AE00E94670160E08BE016
:100180000E9467019FC08981823089F460E088E025
:100190000E94670161E089E00E94670160E08AE0F7
:1001A0000E94670160E08BE00E9467018BC089813B
:1001B000833089F461E088E00E94670161E089E0B2
:1001C0000E94670160E08AE00E94670160E08BE0C6
:1001D0000E94670177C08981843089F460E088E0FB
:1001E0000E94670160E089E00E94670161E08AE0A7
:1001F0000E94670160E08BE00E94670163C0898113
:10020000853089F461E088E00E94670160E089E060
:100210000E94670161E08AE00E94670160E08BE074
:100220000E9467014FC08981863089F460E088E0D0
:100230000E94670161E089E00E94670161E08AE055
:100240000E94670160E08BE00E9467013BC08981EA
:10025000873089F461E088E00E94670161E089E00D
:100260000E94670161E08AE00E94670160E08BE024
:100270000E94670127C08981883089F460E088E0A6
:100280000E94670160E089E00E94670160E08AE007
:100290000E94670161E08BE00E94670113C08981C1
:1002A000893081F461E088E00E94670160E089E0C4
:1002B0000E94670160E08AE00E94670161E08BE0D4
:1002C0000E94670100000F90DF91CF910895CF93B6
:1002D000DF9300D0CDB7DEB789836A838981883008
:1002E00078F58A818130A1F48BE390E02BE330E054
:1002F000F9012081622F2981422F50E021E030E076
:1003000002C0220F331F4A95E2F7262BFC012083FF
:100310008A818823A9F48BE390E02BE330E0F90194
:100320002081622F2981422F50E021E030E002C07D
:10033000220F331F4A95E2F720952623FC012083E4
:1003400089818830C0F189818031A8F58A81813026
:10035000B9F488E390E028E330E0F9012081622FCE
:100360002981222F30E0A9014850510921E030E0D5
:1003700002C0220F331F4A95E2F7262BFC0120838F
:100380008A818823C1F488E390E028E330E0F90112
:100390002081622F2981222F30E0A9014850510984
:1003A00021E030E002C0220F331F4A95E2F720958A
:1003B0002623FC01208389818031C0F18981883125
:1003C000A8F58A818130B9F485E390E025E330E037
:1003D000F9012081622F2981222F30E0A9014051AB
:1003E000510921E030E002C0220F331F4A95E2F7A5
:1003F000262BFC0120838A818823C1F485E390E0C9
:1004000025E330E0F9012081622F2981222F30E09D
:10041000A9014051510921E030E002C0220F331FF1
:100420004A95E2F720952623FC01208389818931B2
:10043000C0F189818032A8F58A818130B9F482E3E4
:1004400090E022E330E0F9012081622F2981222F00
:1004500030E0A9014851510921E030E002C0220FEB
:10046000331F4A95E2F7262BFC0120838A818823DB
:10047000C1F482E390E022E330E0F9012081622FB1
:100480002981222F30E0A9014851510921E030E0B3
:1004900002C0220F331F4A95E2F720952623FC0164
:1004A000208300000F900F90DF91CF910895CF939C
:1004B000DF9300D0CDB7DEB789836A838981883026
:1004C00078F58A818130A1F48AE390E02AE330E074
:1004D000F9012081622F2981422F50E021E030E094
:1004E00002C0220F331F4A95E2F7262BFC0120831E
:1004F0008A818823A9F48AE390E02AE330E0F901B5
:100500002081622F2981422F50E021E030E002C09B
:10051000220F331F4A95E2F720952623FC01208302
:1005200089818830C0F189818031A8F58A81813044
:10053000B9F487E390E027E330E0F9012081622FEE
:100540002981222F30E0A9014850510921E030E0F3
:1005500002C0220F331F4A95E2F7262BFC012083AD
:100560008A818823C1F487E390E027E330E0F90132
:100570002081622F2981222F30E0A90148505109A2
:1005800021E030E002C0220F331F4A95E2F72095A8
:100590002623FC01208389818031C0F18981883143
:1005A000A8F58A818130B9F484E390E024E330E057
:1005B000F9012081622F2981222F30E0A9014051C9
:1005C000510921E030E002C0220F331F4A95E2F7C3
:1005D000262BFC0120838A818823C1F484E390E0E8
:1005E00024E330E0F9012081622F2981222F30E0BD
:1005F000A9014051510921E030E002C0220F331F10
:100600004A95E2F720952623FC01208389818931D0
:10061000C0F189818032A8F58A818130B9F481E303
:1006200090E021E330E0F9012081622F2981222F1F
:1006300030E0A9014851510921E030E002C0220F09
:10064000331F4A95E2F7262BFC0120838A818823F9
:10065000C1F481E390E021E330E0F9012081622FD1
:100660002981222F30E0A9014851510921E030E0D1
:1006700002C0220F331F4A95E2F720952623FC0182
:10068000208300000F900F90DF91CF910895CF93BA
:10069000DF9300D0CDB7DEB78A8319828A81883094
:1006A000D8F489E390E0FC018081282F30E08A8132
:1006B000482F50E081E090E002C0880F991F4A95D2
:1006C000E2F7822393232A81222F30E002C09595FE
:1006D00087952A95E2F789838A81883018F18A8183
:1006E000803100F586E390E0FC018081282F30E026
:1006F0008A81882F90E0AC014850510981E090E058
:1007000002C0880F991F4A95E2F7822393232A811A
:10071000222F30E02850310902C0959587952A95FF
:10072000E2F789838A81803118F18A81883100F566
:1007300083E390E0FC018081282F30E08A81882FBC
:1007400090E0AC014051510981E090E002C0880F77
:10075000991F4A95E2F7822393232A81222F30E0C2
:100760002051310902C0959587952A95E2F7898332
:100770008A81893118F18A81803200F580E390E026
:10078000FC018081282F30E08A81882F90E0AC0125
:100790004851510981E090E002C0880F991F4A95A5
:1007A000E2F7822393232A81222F30E02851310956
:1007B00002C0959587952A95E2F7898389810F90E4
:1007C0000F90DF91CF910895CF93DF93CDB7DEB730
:1007D00060E085E10E94570260E086E10E945702D6
:1007E00060E087E10E94570261E085E10E946701B5
:1007F00061E086E10E94670161E087E10E94670194
:1008000061E082E10E94570261E083E10E945702A9
:1008100061E084E10E9457020000DF91CF910895CA
:10082000CF93DF931F92CDB7DEB7198260E082E1EC
:100830000E94670161E083E10E94670161E084E159
:100840000E94670185E10E944703882319F481E033
:1008500089830FC086E10E944703882319F482E050
:10086000898307C087E10E944703882311F483E04E
:10087000898361E082E10E94670160E083E10E9478
:10088000670161E084E10E94670185E10E944703FE
:10089000882319F484E089830FC086E10E9447030E
:1008A000882319F485E0898307C087E10E94470304
:1008B000882311F486E0898361E082E10E94670168
:1008C00061E083E10E94670160E084E10E946701CA
:1008D00085E10E944703882319F487E089830FC0CC
:1008E00086E10E944703882319F488E0898307C0C2
:1008F00087E10E944703882311F489E08983898175
:100900000F90DF91CF910895CF93DF93CDB7DEB7EE
:1009100061E084E00E94570261E085E00E94570296
:1009200061E086E00E94570261E087E00E94570282
:1009300061E081E00E94570261E082E00E9457027C
:1009400061E083E00E94570283E30E94BA0482E3DD
:100950000E94BA0488E20E94BA048EE00E94BA049F
:1009600081E00E94BA0486E00E94BA040000DF9190
:10097000CF910895CF93DF93CDB7DEB7AB970FB686
:10098000F894DEBF0FBECDBF8BA760E081E00E9470
:10099000670160E082E00E94670160E083E00E94FE
:1009A00067018BE390E02BE330E0F9012081322FE7
:1009B0003F702BA5207F232BFC01208361E083E087
:1009C0000E94670180E090E0A0E0B0E489839A8310
:1009D000AB83BC8320E030E04AE753E469817A814D
:1009E0008B819C810E94D219DC01CB0189A39AA33F
:1009F000ABA3BCA320E030E040E85FE369A17AA1AB
:100A00008BA19CA10E94B21888232CF481E090E075
:100A10009EA38DA33FC020E03FEF4FE757E469A1BD
:100A20007AA18BA19CA10E94CD1918164CF520E04B
:100A300030E040E251E469817A818B819C810E949F
:100A4000D219DC01CB01BC01CD010E942919DC01C6
:100A5000CB019EA38DA30FC089E190E098A78FA33F
:100A60008FA198A50197F1F798A78FA38DA19EA1BB
:100A700001979EA38DA38DA19EA1892B69F714C018
:100A800069A17AA18BA19CA10E942919DC01CB014B
:100A90009EA38DA38DA19EA19AA789A789A59AA59A
:100AA0000197F1F79AA789A760E083E00E946701A8
:100AB00060E083E00E9467018BE390E02BE330E08D
:100AC000F9012081422F4F702BA5222F30E0229573
:100AD0003295307F3227207F3227242BFC01208360
:100AE00061E083E00E94670180E090E0A0E0B0E474
:100AF0008D839E83AF83B88720E030E04AE753E4DC
:100B00006D817E818F8198850E94D219DC01CB0195
:100B10008F8B988FA98FBA8F20E030E040E85FE399
:100B20006F89788D898D9A8D0E94B21888232CF454
:100B300081E090E09C8F8B8F3FC020E03FEF4FE73C
:100B400057E46F89788D898D9A8D0E94CD1918167A
:100B50004CF520E030E040E251E46D817E818F81F0
:100B600098850E94D219DC01CB01BC01CD010E9405
:100B70002919DC01CB019C8F8B8F0FC089E190E09C
:100B80009E8F8D8F8D8D9E8D0197F1F79E8F8D8F0E
:100B90008B8D9C8D01979C8F8B8F8B8D9C8D892B42
:100BA00069F714C06F89788D898D9A8D0E942919F3
:100BB000DC01CB019C8F8B8F8B8D9C8D98A38F8FAD
:100BC0008F8D98A10197F1F798A38F8F60E083E054
:100BD0000E94670180E090E0A0E0B0E489879A87F6
:100BE000AB87BC8720E030E04AE753E469857A852B
:100BF0008B859C850E94D219DC01CB018D879E8755
:100C0000AF87B88B20E030E040E85FE36D857E85FC
:100C10008F8598890E94B21888232CF481E090E097
:100C20009A8B898B3FC020E03FEF4FE757E46D85FB
:100C30007E858F8598890E94CD1918164CF520E085
:100C400030E040E251E469857A858B859C850E947D
:100C5000D219DC01CB01BC01CD010E942919DC01B4
:100C6000CB019A8B898B0FC089E190E09C8B8B8B99
:100C70008B899C890197F1F79C8B8B8B89899A8949
:100C800001979A8B898B89899A89892B69F714C076
:100C90006D857E858F8598890E942919DC01CB019D
:100CA0009A8B898B89899A899E8B8D8B8D899E8958
:100CB0000197F1F79E8B8D8B0000AB960FB6F894E1
:100CC000DEBF0FBECDBFDF91CF910895CF93DF93ED
:100CD000CDB7DEB7ED970FB6F894DEBF0FBECDBF30
:100CE0008DAF61E081E00E94670160E082E00E94D8
:100CF000670181E00E94BA0460E083E00E9467011E
:100D00008BE390E02BE330E0F9012081322F3F703C
:100D10002DAD207F232BFC01208361E083E00E9426
:100D2000670180E090E0A0E0B0E489839A83AB8320
:100D3000BC8320E030E04AE753E469817A818B810B
:100D40009C810E94D219DC01CB018BAB9CABADAB7B
:100D5000BEAB20E030E040E85FE36BA97CA98DA941
:100D60009EA90E94B21888232CF481E090E098AFED
:100D70008FAB3FC020E03FEF4FE757E46BA97CA962
:100D80008DA99EA90E94CD1918164CF520E030E0DF
:100D900040E251E469817A818B819C810E94D21961
:100DA000DC01CB01BC01CD010E942919DC01CB0182
:100DB00098AF8FAB0FC089E190E09AAF89AF89AD52
:100DC0009AAD0197F1F79AAF89AF8FA998AD0197C6
:100DD00098AF8FAB8FA998AD892B69F714C06BA919
:100DE0007CA98DA99EA90E942919DC01CB0198AF8D
:100DF0008FAB8FA998AD9CAF8BAF8BAD9CAD01979E
:100E0000F1F79CAF8BAF60E083E00E94670160E088
:100E100083E00E9467018BE390E02BE330E0F9016F
:100E20002081422F4F702DAD222F30E02295329538
:100E3000307F3227207F3227242BFC01208361E082
:100E400083E00E94670180E090E0A0E0B0E48D8341
:100E50009E83AF83B88720E030E04AE753E46D819A
:100E60007E818F8198850E94D219DC01CB0189A7F0
:100E70009AA7ABA7BCA720E030E040E85FE369A5F4
:100E80007AA58BA59CA50E94B21888232CF481E03A
:100E900090E09EA78DA73FC020E03FEF4FE757E4CB
:100EA00069A57AA58BA59CA50E94CD1918164CF5AD
:100EB00020E030E040E251E46D817E818F819885B1
:100EC0000E94D219DC01CB01BC01CD010E9429197D
:100ED000DC01CB019EA78DA70FC089E190E098AB04
:100EE0008FA78FA598A90197F1F798AB8FA78DA52C
:100EF0009EA501979EA78DA78DA59EA5892B69F715
:100F000014C069A57AA58BA59CA50E942919DC01AE
:100F1000CB019EA78DA78DA59EA59AAB89AB89A96C
:100F20009AA90197F1F79AAB89AB60E083E00E9440
:100F3000670180E090E0A8ECB2E489879A87AB87EC
:100F4000BC872BEA3AEA4AEA5EE369857A858B85B3
:100F50009C850E94D219DC01CB018D879E87AF87CB
:100F6000B88B20E030E040E85EE369857A858B85C8
:100F70009C850E94D219DC01CB01898B9A8BAB8BAB
:100F8000BC8B20E030E040E85FE36D857E858F8597
:100F900098890E94B21888231CF481E08D8BB2C01E
:100FA00020E03FEF4FE757E469897A898B899C8974
:100FB0000E94CD1918160CF07BC020E030E04AE703
:100FC00054E469857A858B859C850E94B718DC017D
:100FD000CB018E8B9F8BA88FB98F20E030E04AE742
:100FE00053E46E897F89888D998D0E94D219DC0126
:100FF000CB018A8F9B8FAC8FBD8F20E030E040E823
:101000005FE36A8D7B8D8C8D9D8D0E94B218882345
:101010002CF481E090E09F8F8E8F3FC020E03FEF67
:101020004FE757E46A8D7B8D8C8D9D8D0E94CD1985
:1010300018164CF520E030E040E251E46E897F89DB
:10104000888D998D0E94D219DC01CB01BC01CD01A4
:101050000E942919DC01CB019F8F8E8F0FC089E17F
:1010600090E099A388A388A199A10197F1F799A38A
:1010700088A38E8D9F8D01979F8F8E8F8E8D9F8DD4
:10108000892B69F73FC06A8D7B8D8C8D9D8D0E9469
:101090002919DC01CB019F8F8E8F8E8D9F8D9BA395
:1010A0008AA38AA19BA10197F1F79BA38AA32AC0D7
:1010B00020E030E04FE753E46D857E858F85988989
:1010C0000E94CD191816ACF469897A898B899C899C
:1010D0000E942919DC01CB019DA38CA38CA19DA1A9
:1010E0009FA38EA38EA19FA10197F1F79FA38EA32B
:1010F0000FC06D857E858F8598890E942919DC0136
:10110000CB018D8B8D8988A788A58A95F1F788A753
:101110000000ED960FB6F894DEBF0FBECDBFDF9195
:10112000CF9108950F931F93CF93DF93CDB7DEB781
:10113000C752D1400FB6F894DEBF0FBECDBF0E949C
:1011400036000E94E4030E94840480E090E0A0EA5C
:10115000B0E48D839E83AF83B8878E01005A1F4F02
:1011600020E030E04AE753E46D817E818F819885ED
:101170000E94D219DC01CB01F80180839183A28304
:10118000B383CE01805A9F4F20E030E040E85FE318
:10119000FC0160817181828193810E94B218882351
:1011A0004CF4CE018C599F4F21E030E0FC0131839B
:1011B000208369C0CE01805A9F4F20E03FEF4FE768
:1011C00057E4FC0160817181828193810E94CD1975
:1011D00018160CF046C020E030E040E251E46D818A
:1011E0007E818F8198850E94D219DC01CB018E010E
:1011F0000C591F4FBC01CD010E942919DC01CB0104
:10120000F8019183808324C0CE018A599F4F29E140
:1012100030E0FC0131832083CE018A599F4FFC01CD
:10122000808191810197F1F79E012A593F4FF90181
:1012300091838083CE018C599F4F9E012C593F4F43
:10124000F9012081318121503109FC013183208352
:10125000CE018C599F4FFC0180819181892BA1F691
:101260002CC08E010C591F4FCE01805A9F4FFC019C
:1012700060817181828193810E942919DC01CB01F7
:10128000F80191838083CE0188599F4F9E012C598C
:101290003F4FF90120813181FC0131832083CE0150
:1012A00088599F4FFC01808191810197F1F79E0140
:1012B00028593F4FF9019183808381E40E9466069B
:1012C0009E012E5A3F4F80E090E0A0EAB0E4F90181
:1012D00080839183A283B3838E010A5A1F4FCE016C
:1012E0008E5A9F4F20E030E04AE753E4FC016081D2
:1012F0007181828193810E94D219DC01CB01F801B6
:1013000080839183A283B383CE018A5A9F4F20E0CA
:1013100030E040E85FE3FC0160817181828193816C
:101320000E94B21888234CF4CE01865A9F4F21E0C8
:1013300030E0FC01318320836DC0CE018A5A9F4F7B
:1013400020E03FEF4FE757E4FC016081718182812B
:1013500093810E94CD1918160CF04AC0CE018E5A06
:101360009F4F20E030E040E251E4FC016081718158
:10137000828193810E94D219DC01CB018E01065A31
:101380001F4FBC01CD010E942919DC01CB01F801DE
:101390009183808324C0CE01845A9F4F29E130E09D
:1013A000FC0131832083CE01845A9F4FFC01808150
:1013B00091810197F1F79E01245A3F4FF9019183E2
:1013C0008083CE01865A9F4F9E01265A3F4FF901D6
:1013D0002081318121503109FC0131832083CE01EC
:1013E000865A9F4FFC0180819181892BA1F62CC0E8
:1013F0008E01065A1F4FCE018A5A9F4FFC01608111
:101400007181828193810E942919DC01CB01F8014D
:1014100091838083CE01825A9F4F9E01265A3F4F6F
:10142000F90120813181FC0131832083CE01825A70
:101430009F4FFC01808191810197F1F79E01225A13
:101440003F4FF901918380830E9410048987898529
:10145000813009F07FC180E090E0A8E4B2E48E879B
:101460009F87A88BB98B8E010C581F4F20E030E06E
:101470004AE753E46E857F85888999890E94D2194D
:10148000DC01CB01F80180839183A283B383CE0179
:101490008C589F4F20E030E040E85FE3FC01608122
:1014A0007181828193810E94B21888234CF4CE010D
:1014B00088589F4F21E030E0FC013183208369C0D0
:1014C000CE018C589F4F20E03FEF4FE757E4FC01DF
:1014D00060817181828193810E94CD1918160CF070
:1014E00046C020E030E040E251E46E857F85888987
:1014F00099890E94D219DC01CB018E0108581F4F37
:10150000BC01CD010E942919DC01CB01F8019183B6
:10151000808324C0CE0186589F4F29E130E0FC0132
:1015200031832083CE0186589F4FFC0180819181B9
:101530000197F1F79E0126583F4FF901918380836F
:10154000CE0188589F4F9E0128583F4FF9012081B6
:10155000318121503109FC0131832083CE0188582B
:101560009F4FFC0180819181892BA1F62CC08E01B7
:1015700008581F4FCE018C589F4FFC01608171812C
:10158000828193810E942919DC01CB01F8019183AA
:101590008083CE0184589F4F9E0128583F4FF90108
:1015A00020813181FC0131832083CE0184589F4FFB
:1015B000FC01808191810197F1F79E0124583F4FF2
:1015C000F9019183808381E00E946E0082E00E9495
:1015D0006E0083E00E946E0084E00E946E0081E055
:1015E0000E94950080E090E0A8E4B2E489839A83A9
:1015F000AB83BC838E0106591F4F20E030E04AE7E1
:1016000053E469817A818B819C810E94D219DC012B
:10161000CB01F80180839183A283B383CE018659E5
:101620009F4F20E030E040E85FE3FC016081718182
:10163000828193810E94B21888234CF4CE01825992
:101640009F4F21E030E0FC013183208369C0CE014F
:1016500086599F4F20E03FEF4FE757E4FC01608140
:101660007181828193810E94CD1918160CF046C0B9
:1016700020E030E040E251E469817A818B819C81F5
:101680000E94D219DC01CB018E0102591F4FBC010F
:10169000CD010E942919DC01CB01F80191838083DF
:1016A00024C0CE0180599F4F29E130E0FC013183F5
:1016B0002083CE0180599F4FFC0180819181019749
:1016C000F1F79E0120593F4FF90191838083CE01AC
:1016D00082599F4F9E0122593F4FF901208131814C
:1016E00021503109FC0131832083CE0182599F4F63
:1016F000FC0180819181892BA1F62CC08E010259B9
:101700001F4FCE0186599F4FFC01608171818281FC
:1017100093810E942919DC01CB01F8019183808318
:10172000CE018E589F4F9E0122593F4FF9012081D3
:101730003181FC0131832083CE018E589F4FFC0103
:10174000808191810197F1F79E012E583F4FF90159
:10175000918380838985823009F07FC180E090E0A9
:10176000A8E4B2E48E8B9F8BA88FB98F8E010857A7
:101770001F4F20E030E04AE753E46E897F89888D6F
:10178000998D0E94D219DC01CB01F80180839183ED
:10179000A283B383CE0188579F4F20E030E040E81A
:1017A0005FE3FC0160817181828193810E94B218A4
:1017B00088234CF4CE0184579F4F21E030E0FC0198
:1017C0003183208369C0CE0188579F4F20E03FEFCF
:1017D0004FE757E4FC0160817181828193810E940F
:1017E000CD1918160CF046C020E030E040E251E47C
:1017F0006E897F89888D998D0E94D219DC01CB0179
:101800008E0104571F4FBC01CD010E942919DC0134
:10181000CB01F8019183808324C0CE0182579F4F72
:1018200029E130E0FC0131832083CE0182579F4FB4
:10183000FC01808191810197F1F79E0122573F4F72
:10184000F90191838083CE0184579F4F9E012457D5
:101850003F4FF9012081318121503109FC01318351
:101860002083CE0184579F4FFC0180819181892B79
:10187000A1F62CC08E0104571F4FCE0188579F4FF1
:10188000FC0160817181828193810E942919DC01B0
:10189000CB01F80191838083CE0180579F4F9E0139
:1018A00024573F4FF90120813181FC01318320838E
:1018B000CE0180579F4FFC01808191810197F1F704
:1018C0009E0120573F4FF9019183808381E00E9460
:1018D0006E0082E00E946E0083E00E946E0084E051
:1018E0000E946E0082E00E94950080E090E0A8E4F3
:1018F000B2E48A879B87AC87BD878E0102581F4F51
:1019000020E030E04AE753E46A857B858C859D853D
:101910000E94D219DC01CB01F80180839183A2835C
:10192000B383CE0182589F4F20E030E040E85FE370
:10193000FC0160817181828193810E94B2188823A9
:101940004CF4CE018E579F4F21E030E0FC013183F3
:10195000208369C0CE0182589F4F20E03FEF4FE7C0
:1019600057E4FC0160817181828193810E94CD19CD
:1019700018160CF046C020E030E040E251E46A85E1
:101980007B858C859D850E94D219DC01CB018E015F
:101990000E571F4FBC01CD010E942919DC01CB015C
:1019A000F8019183808324C0CE018C579F4F29E199
:1019B00030E0FC0131832083CE018C579F4FFC0126
:1019C000808191810197F1F79E012C573F4FF901DA
:1019D00091838083CE018E579F4F9E012E573F4F9C
:1019E000F9012081318121503109FC0131832083AB
:1019F000CE018E579F4FFC0180819181892BA1F6EA
:101A00002CC08E010E571F4FCE0182589F4FFC01F4
:101A100060817181828193810E942919DC01CB014F
:101A2000F80191838083CE018A579F4F9E012E57E4
:101A30003F4FF90120813181FC0131832083CE01A8
:101A40008A579F4FFC01808191810197F1F79E0198
:101A50002A573F4FF901918380838985833009F0AC
:101A60007FC180E090E0A8E4B2E48E8F9F8FA8A3AE
:101A7000B9A38E0104561F4F20E030E04AE753E43B
:101A80006E8D7F8D88A199A10E94D219DC01CB01B6
:101A9000F80180839183A283B383CE0184569F4F44
:101AA00020E030E040E85FE3FC01608171818281E9
:101AB00093810E94B21888234CF4CE0180569F4F28
:101AC00021E030E0FC013183208369C0CE018456DF
:101AD0009F4F20E03FEF4FE757E4FC0160817181A9
:101AE000828193810E94CD1918160CF046C020E027
:101AF00030E040E251E46E8D7F8D88A199A10E9473
:101B0000D219DC01CB018E0100561F4FBC01CD0163
:101B10000E942919DC01CB01F8019183808324C044
:101B2000CE018E559F4F29E130E0FC0131832083A7
:101B3000CE018E559F4FFC01808191810197F1F775
:101B40009E012E553F4FF90191838083CE0180562F
:101B50009F4F9E0120563F4FF90120813181215036
:101B60003109FC0131832083CE0180569F4FFC0157
:101B700080819181892BA1F62CC08E0100561F4FC8
:101B8000CE0184569F4FFC016081718182819381D7
:101B90000E942919DC01CB01F80191838083CE01D9
:101BA0008C559F4F9E0120563F4FF9012081318176
:101BB000FC0131832083CE018C559F4FFC01808135
:101BC00091810197F1F79E012C553F4FF9019183C7
:101BD000808381E00E946E0082E00E946E0083E0BC
:101BE0000E946E0084E00E946E0083E00E949500D7
:101BF00080E090E0A8E4B2E48A8B9B8BAC8BBD8B39
:101C00008E010E561F4F20E030E04AE753E46A8908
:101C10007B898C899D890E94D219DC01CB01F80156
:101C200080839183A283B383CE018E569F4F20E0A1
:101C300030E040E85FE3FC01608171818281938143
:101C40000E94B21888234CF4CE018A569F4F21E09F
:101C500030E0FC013183208369C0CE018E569F4F56
:101C600020E03FEF4FE757E4FC0160817181828102
:101C700093810E94CD1918160CF046C020E030E088
:101C800040E251E46A897B898C899D890E94D2193E
:101C9000DC01CB018E010A561F4FBC01CD010E9411
:101CA0002919DC01CB01F8019183808324C0CE0186
:101CB00088569F4F29E130E0FC0131832083CE011B
:101CC00088569F4FFC01808191810197F1F79E0119
:101CD00028563F4FF90191838083CE018A569F4F4A
:101CE0009E012A563F4FF90120813181215031094F
:101CF000FC0131832083CE018A569F4FFC018081F5
:101D00009181892BA1F62CC08E010A561F4FCE015E
:101D10008E569F4FFC0160817181828193810E9468
:101D20002919DC01CB01F80191838083CE0186560D
:101D30009F4F9E012A563F4FF90120813181FC01BE
:101D400031832083CE0186569F4FFC018081918193
:101D50000197F1F79E0126563F4FF9019183808349
:101D60008985843009F07FC180E090E0A8E4B2E486
:101D70008EA39FA3A8A7B9A78E0100551F4F20E0EF
:101D800030E04AE753E46EA17FA188A599A50E949F
:101D9000D219DC01CB01F80180839183A283B38344
:101DA000CE0180559F4F20E030E040E85FE3FC012A
:101DB00060817181828193810E94B21888234CF4E2
:101DC000CE018C549F4F21E030E0FC013183208311
:101DD00069C0CE0180559F4F20E03FEF4FE757E4A9
:101DE000FC0160817181828193810E94CD19181656
:101DF0000CF046C020E030E040E251E46EA17FA14B
:101E000088A599A50E94D219DC01CB018E010C5442
:101E10001F4FBC01CD010E942919DC01CB01F80143
:101E20009183808324C0CE018A549F4F29E130E002
:101E3000FC0131832083CE018A549F4FFC018081B5
:101E400091810197F1F79E012A543F4FF901918347
:101E50008083CE018C549F4F9E012C543F4FF9013B
:101E60002081318121503109FC0131832083CE0151
:101E70008C549F4FFC0180819181892BA1F62CC04D
:101E80008E010C541F4FCE0180559F4FFC01608185
:101E90007181828193810E942919DC01CB01F801B3
:101EA00091838083CE0188549F4F9E012C543F4FD5
:101EB000F90120813181FC0131832083CE018854D6
:101EC0009F4FFC01808191810197F1F79E01285479
:101ED0003F4FF9019183808381E00E946E0082E090
:101EE0000E946E0083E00E946E0084E00E946E00FB
:101EF00084E00E94950080E090E0A8E4B2E48A8F3C
:101F00009B8FAC8FBD8F8E010A551F4F20E030E0B4
:101F10004AE753E46A8D7B8D8C8D9D8D0E94D2198A
:101F2000DC01CB01F80180839183A283B383CE01CE
:101F30008A559F4F20E030E040E85FE3FC0160817C
:101F40007181828193810E94B21888234CF4CE0162
:101F500086559F4F21E030E0FC013183208369C02A
:101F6000CE018A559F4F20E03FEF4FE757E4FC0139
:101F700060817181828193810E94CD1918160CF0C5
:101F800046C020E030E040E251E46A8D7B8D8C8DCC
:101F90009D8D0E94D219DC01CB018E0106551F4F89
:101FA000BC01CD010E942919DC01CB01F80191830C
:101FB000808324C0CE0184559F4F29E130E0FC018D
:101FC00031832083CE0184559F4FFC018081918114
:101FD0000197F1F79E0124553F4FF90191838083CA
:101FE000CE0186559F4F9E0126553F4FF901208116
:101FF000318121503109FC0131832083CE01865586
:102000009F4FFC0180819181892BA1F62CC08E010C
:1020100006551F4FCE018A559F4FFC01608171818B
:10202000828193810E942919DC01CB01F8019183FF
:102030008083CE0182559F4F9E0126553F4FF90167
:1020400020813181FC0131832083CE0182559F4F55
:10205000FC01808191810197F1F79E0122553F4F4C
:10206000F901918380838985853009F07FC180E003
:1020700090E0A8E4B2E48EA79FA7A8ABB9AB8E010D
:102080000C531F4F20E030E04AE753E46EA57FA5D4
:1020900088A999A90E94D219DC01CB01F80180839B
:1020A0009183A283B383CE018C539F4F20E030E015
:1020B00040E85FE3FC0160817181828193810E942D
:1020C000B21888234CF4CE0188539F4F21E030E0B2
:1020D000FC013183208369C0CE018C539F4F20E0E7
:1020E0003FEF4FE757E4FC0160817181828193816A
:1020F0000E94CD1918160CF046C020E030E040E2F6
:1021000051E46EA57FA588A999A90E94D219DC0186
:10211000CB018E0108531F4FBC01CD010E9429192C
:10212000DC01CB01F8019183808324C0CE0186536A
:102130009F4F29E130E0FC0131832083CE0186539B
:102140009F4FFC01808191810197F1F79E012653F9
:102150003F4FF90191838083CE0188539F4F9E01A9
:1021600028533F4FF9012081318121503109FC0171
:1021700031832083CE0188539F4FFC018081918160
:10218000892BA1F62CC08E0108531F4FCE018C5312
:102190009F4FFC0160817181828193810E94291986
:1021A000DC01CB01F80191838083CE0184539F4FE2
:1021B0009E0128533F4FF90120813181FC01318379
:1021C0002083CE0184539F4FFC0180819181019730
:1021D000F1F79E0124533F4FF9019183808381E001
:1021E0000E946E0082E00E946E0083E00E946E00FA
:1021F00084E00E946E0085E00E94950080E090E0FF
:10220000A8E4B2E48AA39BA3ACA3BDA38E010654A9
:102210001F4F20E030E04AE753E46AA17BA18CA184
:102220009DA10E94D219DC01CB01F801808391832A
:10223000A283B383CE0186549F4F20E030E040E874
:102240005FE3FC0160817181828193810E94B218F9
:1022500088234CF4CE0182549F4F21E030E0FC01F2
:102260003183208369C0CE0186549F4F20E03FEF29
:102270004FE757E4FC0160817181828193810E9464
:10228000CD1918160CF046C020E030E040E251E4D1
:102290006AA17BA18CA19DA10E94D219DC01CB0176
:1022A0008E0102541F4FBC01CD010E942919DC018F
:1022B000CB01F8019183808324C0CE0180549F4FCD
:1022C00029E130E0FC0131832083CE0180549F4F0F
:1022D000FC01808191810197F1F79E0120543F4FCD
:1022E000F90191838083CE0182549F4F9E01225435
:1022F0003F4FF9012081318121503109FC013183A7
:102300002083CE0182549F4FFC0180819181892BD3
:10231000A1F62CC08E0102541F4FCE0186549F4F50
:10232000FC0160817181828193810E942919DC0105
:10233000CB01F80191838083CE018E539F4F9E0184
:1023400022543F4FF90120813181FC0131832083E8
:10235000CE018E539F4FFC01808191810197F1F74F
:102360009E012E533F4FF9019183808389858630EA
:1023700009F07FC180E090E0A8E4B2E48EAB9FABAF
:10238000A8AFB9AF8E0108521F4F20E030E04AE7F6
:1023900053E46EA97FA988AD99AD0E94D219DC01E2
:1023A000CB01F80180839183A283B383CE0188524D
:1023B0009F4F20E030E040E85FE3FC0160817181E5
:1023C000828193810E94B21888234CF4CE018452FA
:1023D0009F4F21E030E0FC013183208369C0CE01B2
:1023E00088529F4F20E03FEF4FE757E4FC016081A8
:1023F0007181828193810E94CD1918160CF046C01C
:1024000020E030E040E251E46EA97FA988AD99ADAB
:102410000E94D219DC01CB018E0104521F4FBC0176
:10242000CD010E942919DC01CB01F8019183808341
:1024300024C0CE0182529F4F29E130E0FC0131835C
:102440002083CE0182529F4FFC01808191810197B0
:10245000F1F79E0122523F4FF90191838083CE0113
:1024600084529F4F9E0124523F4FF90120813181B8
:1024700021503109FC0131832083CE0184529F4FCA
:10248000FC0180819181892BA1F62CC08E01045220
:102490001F4FCE0188529F4FFC0160817181828164
:1024A00093810E942919DC01CB01F801918380837B
:1024B000CE0180529F4F9E0124523F4FF90120814F
:1024C0003181FC0131832083CE0180529F4FFC017A
:1024D000808191810197F1F79E0120523F4FF901D0
:1024E0009183808381E00E946E0082E00E946E00F2
:1024F00083E00E946E0084E00E946E0086E00E94ED
:10250000950080E090E0A8E4B2E48AA79BA7ACA77E
:10251000BDA78E0102531F4F20E030E04AE753E48D
:102520006AA57BA58CA59DA50E94D219DC01CB01D3
:10253000F80180839183A283B383CE0182539F4F9E
:1025400020E030E040E85FE3FC016081718182813E
:1025500093810E94B21888234CF4CE018E529F4F73
:1025600021E030E0FC013183208369C0CE01825339
:102570009F4F20E03FEF4FE757E4FC0160817181FE
:10258000828193810E94CD1918160CF046C020E07C
:1025900030E040E251E46AA57BA58CA59DA50E9490
:1025A000D219DC01CB018E010E521F4FBC01CD01AF
:1025B0000E942919DC01CB01F8019183808324C09A
:1025C000CE018C529F4F29E130E0FC013183208302
:1025D000CE018C529F4FFC01808191810197F1F7D0
:1025E0009E012C523F4FF90191838083CE018E5280
:1025F0009F4F9E012E523F4FF90120813181215082
:102600003109FC0131832083CE018E529F4FFC01A2
:1026100080819181892BA1F62CC08E010E521F4F13
:10262000CE0182539F4FFC01608171818281938131
:102630000E942919DC01CB01F80191838083CE012E
:102640008A529F4F9E012E523F4FF90120813181C6
:10265000FC0131832083CE018A529F4FFC0180818F
:1026600091810197F1F79E012A523F4FF901918321
:1026700080838985873009F089C19E01225C3F4FA4
:1026800080E090E0A8E4B2E4F90180839183A28322
:10269000B3838E0104511F4FCE01CE9620E030E06F
:1026A0004AE753E4FC0160817181828193810E9439
:1026B000D219DC01CB01F80180839183A283B3831B
:1026C000CE0184519F4F20E030E040E85FE3FC0101
:1026D00060817181828193810E94B21888234CF4B9
:1026E000CE0180519F4F21E030E0FC0131832083F7
:1026F0006CC0CE0184519F4F20E03FEF4FE757E47D
:10270000FC0160817181828193810E94CD1918162C
:102710000CF049C0CE01CE9620E030E040E251E41A
:10272000FC0160817181828193810E94D219DC0158
:10273000CB018E0100511F4FBC01CD010E94291910
:10274000DC01CB01F8019183808324C0CE018E503F
:102750009F4F29E130E0FC0131832083CE018E5070
:102760009F4FFC01808191810197F1F79E012E50CE
:102770003F4FF90191838083CE0180519F4F9E018D
:1027800020513F4FF9012081318121503109FC0155
:1027900031832083CE0180519F4FFC018081918144
:1027A000892BA1F62CC08E0100511F4FCE01845100
:1027B0009F4FFC0160817181828193810E94291960
:1027C000DC01CB01F80191838083CE018C509F4FB7
:1027D0009E0120513F4FF90120813181FC0131835D
:1027E0002083CE018C509F4FFC0180819181019705
:1027F000F1F79E012C503F4FF9019183808381E0D6
:102800000E946E0082E00E946E0083E00E946E00D3
:1028100084E00E946E0087E00E94950080E090E0D6
:10282000A8E4B2E48AAB9BABACABBDAB8E010E515E
:102830001F4F20E030E04AE753E46AA97BA98CA946
:102840009DA90E94D219DC01CB01F80180839183FC
:10285000A283B383CE018E519F4F20E030E040E849
:102860005FE3FC0160817181828193810E94B218D3
:1028700088234CF4CE018A519F4F21E030E0FC01C7
:102880003183208369C0CE018E519F4F20E03FEFFE
:102890004FE757E4FC0160817181828193810E943E
:1028A000CD1918160CF046C020E030E040E251E4AB
:1028B0006AA97BA98CA99DA90E94D219DC01CB0130
:1028C0008E010A511F4FBC01CD010E942919DC0164
:1028D000CB01F8019183808324C0CE0188519F4FA2
:1028E00029E130E0FC0131832083CE0188519F4FE4
:1028F000FC01808191810197F1F79E0128513F4FA2
:10290000F90191838083CE018A519F4F9E012A5104
:102910003F4FF9012081318121503109FC01318380
:102920002083CE018A519F4FFC0180819181892BA8
:10293000A1F62CC08E010A511F4FCE018E519F4F20
:10294000FC0160817181828193810E942919DC01DF
:10295000CB01F80191838083CE0186519F4F9E0168
:102960002A513F4FF90120813181FC0131832083BD
:10297000CE0186519F4FFC01808191810197F1F733
:102980009E0126513F4FF9019183808389858830CC
:1029900009F087C19E012A5B3F4F80E090E0A8E4E8
:1029A000B2E4F90180839183A283B3838E011395EE
:1029B000CE018A5B9F4F20E030E04AE753E4FC0100
:1029C00060817181828193810E94D219DC01CB01E7
:1029D000F80180839183A283B383CE01939520E095
:1029E00030E040E85FE3FC01608171818281938186
:1029F0000E94B21888234CF4CE018C5F9E4F21E0D8
:102A000030E0FC01318320836BC0CE01939520E040
:102A10003FEF4FE757E4FC01608171818281938130
:102A20000E94CD1918160CF04AC0CE018A5B9F4F48
:102A300020E030E040E251E4FC016081718182815C
:102A400093810E94D219DC01CB018E010C5F1E4FD5
:102A5000BC01CD010E942919DC01CB01F801918351
:102A6000808324C0CE018A5F9E4F29E130E0FC01C3
:102A700031832083CE018A5F9E4FFC01808191814A
:102A80000197F1F79E012A5F3E4FF9019183808300
:102A9000CE018C5F9E4F9E012C5F3E4FF90120813D
:102AA000318121503109FC0131832083CE018C5FBB
:102AB0009E4FFC0180819181892BA1F62BC08E0154
:102AC0000C5F1E4FCE019395FC0160817181828164
:102AD00093810E942919DC01CB01F8019183808345
:102AE000CE01885F9E4F9E012C5F3E4FF9012081F1
:102AF0003181FC0131832083CE01885F9E4FFC0130
:102B0000808191810197F1F79E01285F3E4FF90185
:102B10009183808381E00E946E0082E00E946E00BB
:102B200083E00E946E0084E00E946E0088E00E94B4
:102B3000950080E090E0A8E4B2E48AAF9BAFACAF30
:102B4000BDAF8E010A501F4F20E030E04AE753E44A
:102B50006AAD7BAD8CAD9DAD0E94D219DC01CB017D
:102B6000F80180839183A283B383CE018A509F4F63
:102B700020E030E040E85FE3FC0160817181828108
:102B800093810E94B21888234CF4CE0186509F4F47
:102B900021E030E0FC013183208369C0CE018A50FE
:102BA0009F4F20E03FEF4FE757E4FC0160817181C8
:102BB000828193810E94CD1918160CF046C020E046
:102BC00030E040E251E46AAD7BAD8CAD9DAD0E943A
:102BD000D219DC01CB018E0106501F4FBC01CD0183
:102BE0000E942919DC01CB01F8019183808324C064
:102BF000CE0184509F4F29E130E0FC0131832083D6
:102C0000CE0184509F4FFC01808191810197F1F7A3
:102C10009E0124503F4FF90191838083CE0186505D
:102C20009F4F9E0126503F4FF90120813181215055
:102C30003109FC0131832083CE0186509F4FFC0176
:102C400080819181892BA1F62CC08E0106501F4FE7
:102C5000CE018A509F4FFC016081718182819381F6
:102C60000E942919DC01CB01F80191838083CE01F8
:102C700082509F4F9E0126503F4FF90120813181A4
:102C8000FC0131832083CE0182509F4FFC01808163
:102C900091810197F1F79E0122503F4FF9019183F5
:102CA00080838985893009F097C19E01225B3F4F5F
:102CB00080E090E0A8E4B2E4F90180839183A283EC
:102CC000B3838E010C5E1E4FCE01825B9F4F20E0CE
:102CD00030E04AE753E4FC01608171818281938195
:102CE0000E94D219DC01CB01F80180839183A28379
:102CF000B383CE018C5E9E4F20E030E040E85FE37E
:102D0000FC0160817181828193810E94B2188823C5
:102D10004CF4CE01885E9E4F21E030E0FC0131830F
:102D200020836DC0CE018C5E9E4F20E03FEF4FE7C9
:102D300057E4FC0160817181828193810E94CD19E9
:102D400018160CF04AC0CE01825B9F4F20E030E0A5
:102D500040E251E4FC0160817181828193810E9493
:102D6000D219DC01CB018E01085E1E4FBC01CD01E2
:102D70000E942919DC01CB01F8019183808324C0D2
:102D8000CE01865E9E4F29E130E0FC013183208335
:102D9000CE01865E9E4FFC01808191810197F1F703
:102DA0009E01265E3E4FF90191838083CE01885EAD
:102DB0009E4F9E01285E3E4FF901208131812150B6
:102DC0003109FC0131832083CE01885E9E4FFC01D6
:102DD00080819181892BA1F62CC08E01085E1E4F47
:102DE000CE018C5E9E4FFC01608171818281938156
:102DF0000E942919DC01CB01F80191838083CE0167
:102E0000845E9E4F9E01285E3E4FF90120813181F4
:102E1000FC0131832083CE01845E9E4FFC018081C2
:102E200091810197F1F79E01245E3E4FF901918354
:102E3000808381E00E946E0082E00E946E0083E049
:102E40000E946E0084E00E946E0089E00E9495005E
:102E50009E012E5B3F4F80E090E0A8E4B2E4F901D0
:102E600080839183A283B3838E01065F1E4FCE01C0
:102E70008E5B9F4F20E030E04AE753E4FC01608125
:102E80007181828193810E94D219DC01CB01F8010A
:102E900080839183A283B383CE01865F9E4F20E01F
:102EA00030E040E85FE3FC016081718182819381C1
:102EB0000E94B21888234CF4CE01825F9E4F21E01D
:102EC00030E0FC01318320836DC0CE01865F9E4FD0
:102ED00020E03FEF4FE757E4FC0160817181828180
:102EE00093810E94CD1918160CF04AC0CE018E5B5A
:102EF0009F4F20E030E040E251E4FC0160817181AD
:102F0000828193810E94D219DC01CB018E01025F84
:102F10001E4FBC01CD010E942919DC01CB01F80133
:102F20009183808324C0CE01805F9E4F29E130E0F1
:102F3000FC0131832083CE01805F9E4FFC018081A4
:102F400091810197F1F79E01205F3E4FF901918336
:102F50008083CE01825F9E4F9E01225F3E4FF9012A
:102F60002081318121503109FC0131832083CE0140
:102F7000825F9E4FFC0180819181892BA1F62CC03C
:102F80008E01025F1E4FCE01865F9E4FFC01608165
:102F90007181828193810E942919DC01CB01F801A2
:102FA00091838083CE018E5E9E4F9E01225F3E4FB5
:102FB000F90120813181FC0131832083CE018E5EB5
:102FC0009E4FFC01808191810197F1F79E012E5E59
:102FD0003E4FF901918380839E01265B3F4F80E045
:102FE00090E0AAE7B4E4F90180839183A283B383DC
:102FF0008E01025E1E4FCE01865B9F4F20E030E0C7
:103000004AE753E4FC0160817181828193810E94CF
:10301000D219DC01CB01F80180839183A283B383B1
:10302000CE01825E9E4F20E030E040E85FE3FC018D
:1030300060817181828193810E94B21888234CF44F
:10304000CE018E5D9E4F21E030E0FC013183208374
:103050006DC0CE01825E9E4F20E03FEF4FE757E408
:10306000FC0160817181828193810E94CD191816C3
:103070000CF04AC0CE01865B9F4F20E030E040E27A
:1030800051E4FC0160817181828193810E94D21997
:10309000DC01CB018E010E5D1E4FBC01CD010E94F3
:1030A0002919DC01CB01F8019183808324C0CE0172
:1030B0008C5D9E4F29E130E0FC0131832083CE01FD
:1030C0008C5D9E4FFC01808191810197F1F79E01FB
:1030D0002C5D3E4FF90191838083CE018E5D9E4F22
:1030E0009E012E5D3E4FF901208131812150310931
:1030F000FC0131832083CE018E5D9E4FFC018081D7
:103100009181892BA1F62CC08E010E5D1E4FCE0140
:10311000825E9E4FFC0160817181828193810E9459
:103120002919DC01CB01F80191838083CE018A5DEE
:103130009E4F9E012E5D3E4FF90120813181FC01A1
:1031400031832083CE018A5D9E4FFC018081918175
:103150000197F1F79E012A5D3E4FF901918380832B
:103160000C94A5080E94581908F481E008950E9463
:10317000CB180C9493190E948C1958F00E94851951
:1031800040F029F45F3F29F00C947C1951110C9404
:10319000C7190C9482190E94A41968F39923B1F3FA
:1031A000552391F3951B550BBB27AA27621773076D
:1031B000840738F09F5F5F4F220F331F441FAA1F01
:1031C000A9F335D00E2E3AF0E0E832D091505040BD
:1031D000E695001CCAF72BD0FE2F29D0660F771F6B
:1031E000881FBB1F261737074807AB07B0E809F051
:1031F000BB0B802DBF01FF2793585F4F3AF09E3FD6
:10320000510578F00C947C190C94C7195F3FE4F3D6
:10321000983ED4F3869577956795B795F7959F5F18
:10322000C9F7880F911D9695879597F90895E1E064
:10323000660F771F881FBB1F621773078407BA07C3
:1032400020F0621B730B840BBA0BEE1F88F7E0951E
:1032500008950E94AC1988F09F5798F0B92F9927CC
:10326000B751B0F0E1F0660F771F881F991F1AF071
:10327000BA95C9F714C0B13091F00E94C619B1E0F7
:1032800008950C94C619672F782F8827B85F39F0F6
:10329000B93FCCF3869577956795B395D9F73EF40A
:1032A00090958095709561957F4F8F4F9F4F0895B2
:1032B000990F0008550FAA0BE0E8FEEF1616170647
:1032C000E807F907C0F012161306E407F50798F0AF
:1032D000621B730B840B950B39F40A2661F0232BC8
:1032E000242B252B21F408950A2609F4A140A69544
:1032F0008FEF811D811D089597F99F6780E870E029
:1033000060E008959FEF80EC089500240A9416165B
:10331000170618060906089500240A9412161306C3
:10332000140605060895092E0394000C11F4882351
:1033300052F0BB0F40F4BF2B11F460FF04C06F5F6D
:103340007F4F8F4F9F4F089557FD9058440F551F43
:1033500059F05F3F71F04795880F97FB991F61F017
:103360009F3F79F087950895121613061406551F8E
:10337000F2CF4695F1DF08C0161617061806991FFA
:10338000F1CF86957105610508940895E894BB27EF
:1033900066277727CB0197F908950E94581908F4FA
:1033A0008FEF08950E94E5190C9493190E948519D6
:1033B00038F00E948C1920F0952311F00C947C19A0
:1033C0000C94821911240C94C7190E94A41970F34B
:1033D000959FC1F3950F50E0551F629FF001729FBA
:1033E000BB27F00DB11D639FAA27F00DB11DAA1FC9
:1033F000649F6627B00DA11D661F829F2227B00D16
:10340000A11D621F739FB00DA11D621F839FA00DA0
:10341000611D221F749F3327A00D611D231F849FF0
:10342000600D211D822F762F6A2F11249F57504047
:103430009AF0F1F088234AF0EE0FFF1FBB1F661FC2
:10344000771F881F91505040A9F79E3F510580F08B
:103450000C947C190C94C7195F3FE4F3983ED4F3A5
:10346000869577956795B795F795E7959F5FC1F72F
:10347000FE2B880F911D9695879597F90895F894DE
:02348000FFCF7C
:00000001FF
