S015000042434453657665676D656E74732E7372656325
S11300000C942A000C943F000C943F000C943F0085
S11300100C943F000C943F000C943F000C943F0060
S11300200C943F000C943F000C943F000C943F0050
S11300300C943F000C943F000C943F000C943F0040
S11300400C943F000C943F000C943F000C943F0030
S11300500C943F0011241FBECFE5D8E0DEBFCDBF16
S113006010E0A0E6B0E0E6ECF4E302C005900D92E7
S1130070AA36B107D9F70E94B0090C94611A0C94FE
S11300800000CF93DF93CDB7DEB761E08AE10E9431
S1130090620261E08BE10E94620261E08EE10E94F3
S11300A0620261E08FE10E94620261E088E00E94E6
S11300B0620261E089E00E94620261E08AE00E94DB
S11300C0620261E08BE00E94620260E08AE10E94C9
S11300D0720160E08BE10E94720160E08EE10E9497
S11300E0720160E08FE10E9472010000DF91CF9104
S11300F00895CF93DF931F92CDB7DEB789838981AB
S1130100813021F461E08AE10E94720189818230A8
S113011021F461E08BE10E9472018981833021F432
S113012061E08EE10E9472018981843021F461E0F2
S11301308FE10E94720100000F90DF91CF9108952A
S1130140CF93DF931F92CDB7DEB78983898188234C
S113015089F460E088E00E94720160E089E00E9416
S1130160720160E08AE00E94720160E08BE00E940C
S11301707201B3C08981813089F461E088E00E9412
S1130180720160E089E00E94720160E08AE00E94EE
S1130190720160E08BE00E9472019FC0898182300D
S11301A089F460E088E00E94720161E089E00E94C5
S11301B0720160E08AE00E94720160E08BE00E94BC
S11301C072018BC08981833089F461E088E00E94E8
S11301D0720161E089E00E94720160E08AE00E949D
S11301E0720160E08BE00E94720177C089818430E3
S11301F089F460E088E00E94720160E089E00E9476
S1130200720161E08AE00E94720160E08BE00E946A
S1130210720163C08981853089F461E088E00E94BD
S1130220720160E089E00E94720161E08AE00E944C
S1130230720160E08BE00E9472014FC089818630B8
S113024089F460E088E00E94720161E089E00E9424
S1130250720161E08AE00E94720160E08BE00E941A
S113026072013BC08981873089F461E088E00E9493
S1130270720161E089E00E94720161E08AE00E94FB
S1130280720160E08BE00E94720127C0898188308E
S113029089F460E088E00E94720160E089E00E94D5
S11302A0720160E08AE00E94720161E08BE00E94CA
S11302B0720113C08981893081F461E088E00E9471
S11302C0720160E089E00E94720160E08AE00E94AD
S11302D0720161E08BE00E94720100000F90DF91D7
S11302E0CF910895CF93DF9300D0CDB7DEB7898344
S11302F06A838981883078F58A818130A1F48BE31F
S113030090E02BE330E0F9012081622F2981422F14
S113031050E021E030E002C0220F331F4A95E2F79B
S1130320262BFC0120838A818823A9F48BE390E0A7
S11303302BE330E0F9012081622F2981422F50E024
S113034021E030E002C0220F331F4A95E2F72095E6
S11303502623FC01208389818830C0F18981803182
S1130360A8F58A818130B9F488E390E028E330E08D
S1130370F9012081622F2981222F30E0A901485000
S1130380510921E030E002C0220F331F4A95E2F701
S1130390262BFC0120838A818823C1F488E390E022
S11303A028E330E0F9012081622F2981222F30E0F7
S11303B0A9014850510921E030E002C0220F331F47
S11303C04A95E2F720952623FC0120838981803118
S11303D0C0F189818831A8F58A818130B9F485E337
S11303E090E025E330E0F9012081622F2981222F5A
S11303F030E0A9014051510921E030E002C0220F50
S1130400331F4A95E2F7262BFC0120838A81882337
S1130410C1F485E390E025E330E0F9012081622F07
S11304202981222F30E0A9014051510921E030E017
S113043002C0220F331F4A95E2F720952623FC01C0
S1130440208389818931C0F189818032A8F58A812C
S11304508130B9F482E390E022E330E0F9012081B5
S1130460622F2981222F30E0A9014851510921E04E
S113047030E002C0220F331F4A95E2F7262BFC011D
S113048020838A818823C1F482E390E022E330E070
S1130490F9012081622F2981222F30E0A9014851DE
S11304A0510921E030E002C0220F331F4A95E2F7E0
S11304B020952623FC01208300000F900F90DF91EC
S11304C0CF910895CF93DF9300D0CDB7DEB7898362
S11304D06A838981883078F58A818130A1F48AE33E
S11304E090E02AE330E0F9012081622F2981422F34
S11304F050E021E030E002C0220F331F4A95E2F7BA
S1130500262BFC0120838A818823A9F48AE390E0C6
S11305102AE330E0F9012081622F2981422F50E043
S113052021E030E002C0220F331F4A95E2F7209504
S11305302623FC01208389818830C0F189818031A0
S1130540A8F58A818130B9F487E390E027E330E0AD
S1130550F9012081622F2981222F30E0A90148501E
S1130560510921E030E002C0220F331F4A95E2F71F
S1130570262BFC0120838A818823C1F487E390E041
S113058027E330E0F9012081622F2981222F30E016
S1130590A9014850510921E030E002C0220F331F65
S11305A04A95E2F720952623FC0120838981803136
S11305B0C0F189818831A8F58A818130B9F484E356
S11305C090E024E330E0F9012081622F2981222F79
S11305D030E0A9014051510921E030E002C0220F6E
S11305E0331F4A95E2F7262BFC0120838A81882356
S11305F0C1F484E390E024E330E0F9012081622F28
S11306002981222F30E0A9014051510921E030E035
S113061002C0220F331F4A95E2F720952623FC01DE
S1130620208389818931C0F189818032A8F58A814A
S11306308130B9F481E390E021E330E0F9012081D5
S1130640622F2981222F30E0A9014851510921E06C
S113065030E002C0220F331F4A95E2F7262BFC013B
S113066020838A818823C1F481E390E021E330E090
S1130670F9012081622F2981222F30E0A9014851FC
S1130680510921E030E002C0220F331F4A95E2F7FE
S113069020952623FC01208300000F900F90DF910A
S11306A0CF910895CF93DF9300D0CDB7DEB78A837F
S11306B019828A818830D8F489E390E0FC01808132
S11306C0282F30E08A81482F50E081E090E002C07A
S11306D0880F991F4A95E2F7822393232A81222FB8
S11306E030E002C0959587952A95E2F789838A813F
S11306F0883018F18A81803100F586E390E0FC01AE
S11307008081282F30E08A81882F90E0AC01485006
S1130710510981E090E002C0880F991F4A95E2F7E1
S1130720822393232A81222F30E02850310902C0EA
S1130730959587952A95E2F789838A81803118F106
S11307408A81883100F583E390E0FC018081282FC1
S113075030E08A81882F90E0AC014051510981E05A
S113076090E002C0880F991F4A95E2F782239323F1
S11307702A81222F30E02051310902C095958795B6
S11307802A95E2F789838A81893118F18A81803236
S113079000F580E390E0FC018081282F30E08A811D
S11307A0882F90E0AC014851510981E090E002C0EB
S11307B0880F991F4A95E2F7822393232A81222FD7
S11307C030E02851310902C0959587952A95E2F7C2
S11307D0898389810F900F90DF91CF910895CF93F2
S11307E0DF93CDB7DEB760E085E10E94620260E08E
S11307F086E10E94620260E087E10E94620261E099
S113080085E10E94720161E086E10E94720161E06B
S113081087E10E94720161E082E10E94620261E06C
S113082083E10E94620261E084E10E9462020000AE
S1130830DF91CF910895CF93DF931F92CDB7DEB7A9
S1130840198260E082E10E94720161E083E10E940A
S1130850720161E084E10E94720185E10E94520309
S1130860882319F481E089830FC086E10E94520332
S1130870882319F482E0898307C087E10E94520328
S1130880882311F483E0898361E082E10E9472018C
S113089060E083E10E94720161E084E10E947201E0
S11308A085E10E945203882319F484E089830FC0F0
S11308B086E10E945203882319F485E0898307C0E6
S11308C087E10E945203882311F486E0898361E062
S11308D082E10E94720161E083E10E94720160E0A2
S11308E084E10E94720185E10E945203882319F475
S11308F087E089830FC086E10E945203882319F49C
S113090088E0898307C087E10E945203882311F499
S113091089E0898389810F90DF91CF910895CF93E6
S1130920DF93CDB7DEB761E084E00E94620261E04C
S113093085E00E94620261E086E00E94620261E05A
S113094087E00E94620261E081E00E94620261E04D
S113095082E00E94620261E083E00E94620283E31B
S11309600E94C50482E30E94C50488E20E94C50473
S11309708EE00E94C50481E00E94C50486E00E94C6
S1130980C5040000DF91CF910895CF93DF93CDB7D5
S1130990DEB7AB970FB6F894DEBF0FBECDBF8BA703
S11309A060E081E00E94720160E082E00E947201D6
S11309B060E083E00E9472018BE390E02BE330E07F
S11309C0F9012081322F3F702BA5207F232BFC01BE
S11309D0208361E083E00E94720180E090E0A0E067
S11309E0B0E489839A83AB83BC8320E030E04AE798
S11309F053E469817A818B819C810E94F419DC0122
S1130A00CB0189A39AA3ABA3BCA320E030E040E8C8
S1130A105FE369A17AA18BA19CA10E94D4188823C9
S1130A202CF481E090E09EA38DA33FC020E03FEF33
S1130A304FE757E469A17AA18BA19CA10E94EF1909
S1130A4018164CF520E030E040E251E469817A81E7
S1130A508B819C810E94F419DC01CB01BC01CD0186
S1130A600E944B19DC01CB019EA38DA30FC089E129
S1130A7090E098A78FA38FA198A50197F1F798A765
S1130A808FA38DA19EA101979EA38DA38DA19EA14D
S1130A90892B69F714C069A17AA18BA19CA10E943A
S1130AA04B19DC01CB019EA38DA38DA19EA19AA716
S1130AB089A789A59AA50197F1F79AA789A760E064
S1130AC083E00E94720160E083E00E9472018BE384
S1130AD090E02BE330E0F9012081422F4F702BA5E9
S1130AE0222F30E022953295307F3227207F322723
S1130AF0242BFC01208361E083E00E94720180E0EA
S1130B0090E0A0E0B0E48D839E83AF83B88720E0BB
S1130B1030E04AE753E46D817E818F8198850E949D
S1130B20F419DC01CB018F8B988FA98FBA8F20E049
S1130B3030E040E85FE36F89788D898D9A8D0E945B
S1130B40D41888232CF481E090E09C8F8B8F3FC0D5
S1130B5020E03FEF4FE757E46F89788D898D9A8DB8
S1130B600E94EF1918164CF520E030E040E251E401
S1130B706D817E818F8198850E94F419DC01CB01FF
S1130B80BC01CD010E944B19DC01CB019C8F8B8FE2
S1130B900FC089E190E09E8F8D8F8D8D9E8D019782
S1130BA0F1F79E8F8D8F8B8D9C8D01979C8F8B8FF2
S1130BB08B8D9C8D892B69F714C06F89788D898DF5
S1130BC09A8D0E944B19DC01CB019C8F8B8F8B8DEE
S1130BD09C8D98A38F8F8F8D98A10197F1F798A37F
S1130BE08F8F60E083E00E94720180E090E0A0E0DB
S1130BF0B0E489879A87AB87BC8720E030E04AE776
S1130C0053E469857A858B859C850E94F419DC01FF
S1130C10CB018D879E87AF87B88B20E030E040E81A
S1130C205FE36D857E858F8598890E94D41888231B
S1130C302CF481E090E09A8B898B3FC020E03FEF59
S1130C404FE757E46D857E858F8598890E94EF195B
S1130C5018164CF520E030E040E251E469857A85CD
S1130C608B859C850E94F419DC01CB01BC01CD016C
S1130C700E944B19DC01CB019A8B898B0FC089E14F
S1130C8090E09C8B8B8B8B899C890197F1F79C8BD3
S1130C908B8B89899A8901979A8B898B89899A89FF
S1130CA0892B69F714C06D857E858F8598890E948C
S1130CB04B19DC01CB019A8B898B89899A899E8B8C
S1130CC08D8B8D899E890197F1F79E8B8D8B00000A
S1130CD0AB960FB6F894DEBF0FBECDBFDF91CF91B8
S1130CE00895CF93DF93CDB7DEB7ED970FB6F894A1
S1130CF0DEBF0FBECDBF8DAF61E081E00E94720107
S1130D0060E082E00E94720160E083E00E94720170
S1130D108BE390E02BE330E0F9012081322F3F7028
S1130D202DAD207F232BFC01208361E083E00E9412
S1130D30720180E090E0A0E0B0E489839A83AB8301
S1130D40BC8320E030E04AE753E469817A818B81F7
S1130D509C810E94F419DC01CB018BAB9CABADAB45
S1130D60BEAB20E030E040E85FE36BA97CA98DA92D
S1130D709EA90E94D41888232CF481E090E098AFB7
S1130D808FAB3FC020E03FEF4FE757E46BA97CA94E
S1130D908DA99EA90E94EF1918164CF520E030E0A9
S1130DA040E251E469817A818B819C810E94F4192B
S1130DB0DC01CB01BC01CD010E944B19DC01CB014C
S1130DC098AF8FAB0FC089E190E09AAF89AF89AD3E
S1130DD09AAD0197F1F79AAF89AF8FA998AD0197B2
S1130DE098AF8FAB8FA998AD892B69F714C06BA905
S1130DF07CA98DA99EA90E944B19DC01CB0198AF57
S1130E008FAB8FA998AD9CAF8BAF8BAD9CAD019789
S1130E10F1F79CAF8BAF60E083E00E94720160E069
S1130E2083E00E9472018BE390E02BE330E0F90150
S1130E302081422F4F702DAD222F30E02295329524
S1130E40307F3227207F3227242BFC01208361E06E
S1130E5083E00E94720180E090E0A0E0B0E48D8322
S1130E609E83AF83B88720E030E04AE753E46D8186
S1130E707E818F8198850E94F419DC01CB0189A7BA
S1130E809AA7ABA7BCA720E030E040E85FE369A5E0
S1130E907AA58BA59CA50E94D41888232CF481E004
S1130EA090E09EA78DA73FC020E03FEF4FE757E4B7
S1130EB069A57AA58BA59CA50E94EF1918164CF577
S1130EC020E030E040E251E46D817E818F8198859D
S1130ED00E94F419DC01CB01BC01CD010E944B1925
S1130EE0DC01CB019EA78DA70FC089E190E098ABF0
S1130EF08FA78FA598A90197F1F798AB8FA78DA518
S1130F009EA501979EA78DA78DA59EA5892B69F700
S1130F1014C069A57AA58BA59CA50E944B19DC0178
S1130F20CB019EA78DA78DA59EA59AAB89AB89A958
S1130F309AA90197F1F79AAB89AB60E083E00E942C
S1130F40720180E090E0A8ECB2E489879A87AB87CD
S1130F50BC872BEA3AEA4AEA5EE369857A858B859F
S1130F609C850E94F419DC01CB018D879E87AF8795
S1130F70B88B20E030E040E85EE369857A858B85B4
S1130F809C850E94F419DC01CB01898B9A8BAB8B75
S1130F90BC8B20E030E040E85FE36D857E858F8583
S1130FA098890E94D41888231CF481E08D8BB2C0E8
S1130FB020E03FEF4FE757E469897A898B899C8960
S1130FC00E94EF1918160CF07BC020E030E04AE7CD
S1130FD054E469857A858B859C850E94D918DC0147
S1130FE0CB018E8B9F8BA88FB98F20E030E04AE72E
S1130FF053E46E897F89888D998D0E94F419DC01F0
S1131000CB018A8F9B8FAC8FBD8F20E030E040E80E
S11310105FE36A8D7B8D8C8D9D8D0E94D41888230F
S11310202CF481E090E09F8F8E8F3FC020E03FEF53
S11310304FE757E46A8D7B8D8C8D9D8D0E94EF194F
S113104018164CF520E030E040E251E46E897F89C7
S1131050888D998D0E94F419DC01CB01BC01CD016E
S11310600E944B19DC01CB019F8F8E8F0FC089E149
S113107090E099A388A388A199A10197F1F799A376
S113108088A38E8D9F8D01979F8F8E8F8E8D9F8DC0
S1131090892B69F73FC06A8D7B8D8C8D9D8D0E9455
S11310A04B19DC01CB019F8F8E8F8E8D9F8D9BA35F
S11310B08AA38AA19BA10197F1F79BA38AA32AC0C3
S11310C020E030E04FE753E46D857E858F85988975
S11310D00E94EF191816ACF469897A898B899C8966
S11310E00E944B19DC01CB019DA38CA38CA19DA173
S11310F09FA38EA38EA19FA10197F1F79FA38EA317
S11311000FC06D857E858F8598890E944B19DC01FF
S1131110CB018D8B8D8988A788A58A95F1F788A73F
S11311200000ED960FB6F894DEBF0FBECDBFDF9181
S1131130CF910895CF93DF93CDB7DEB76F970FB6F6
S1131140F894DEBF0FBECDBF9F8F8E8F1982F2C081
S113115080E090E0A0EAB0E48A839B83AC83BD8303
S113116020E030E04AE753E46A817B818C819D81F1
S11311700E94F419DC01CB018C8B9D8BAE8BBF8B51
S113118020E030E040E85FE36C897D898E899F89A7
S11311900E94D41888232CF481E090E0998F888FE2
S11311A03FC020E03FEF4FE757E46C897D898E898B
S11311B09F890E94EF1918164CF520E030E040E2B8
S11311C051E46A817B818C819D810E94F419DC0148
S11311D0CB01BC01CD010E944B19DC01CB01998FDD
S11311E0888F0FC089E190E09B8F8A8F8A8D9B8DB9
S11311F00197F1F79B8F8A8F888D998D0197998F2D
S1131200888F888D998D892B69F714C06C897D89A5
S11312108E899F890E944B19DC01CB01998F888F9D
S1131220888D998D9D8F8C8F8C8D9D8D0197F1F775
S11312309D8F8C8F8981882F90E02E8D3F8D820F1A
S1131240931FFC0180810E94710680E090E0A0EA77
S1131250B0E48E839F83A887B98720E030E04AE713
S113126053E46E817F81888599850E94F419DC019D
S1131270CB018A879B87AC87BD8720E030E040E8BC
S11312805FE36A857B858C859D850E94D4188823BD
S11312902CF481E090E09F878E873FC020E03FEFF1
S11312A04FE757E46A857B858C859D850E94EF19FD
S11312B018164CF520E030E040E251E46E817F8165
S11312C0888599850E94F419DC01CB01BC01CD010C
S11312D00E944B19DC01CB019F878E870FC089E1E7
S11312E090E0998B888B888999890197F1F7998B7C
S11312F0888B8E859F8501979F878E878E859F8596
S1131300892B69F714C06A857B858C859D850E942D
S11313104B19DC01CB019F878E878E859F859B8B24
S11313208A8B8A899B890197F1F79B8B8A8B8981A8
S11313308F5F89838981882F90E02E8D3F8D820F66
S1131340931FFC018081882309F002CF00006F966F
S11313500FB6F894DEBF0FBECDBFDF91CF910895D5
S11313600F931F93CF93DF93CDB7DEB7C451D14012
S11313700FB6F894DEBF0FBECDBF0E9441000E949D
S1131380EF030E948F04CE01845F9E4F29E0E0E6C4
S1131390F0E0DC0101900D922A95E1F7CE01845F23
S11313A09E4F0E949A080E941B0489838981813080
S11313B009F099C180E090E0A8E4B2E48E839F83B1
S11313C0A887B9878E01085A1F4F20E030E04AE70A
S11313D053E46E817F81888599850E94F419DC012C
S11313E0CB01F80180839183A283B383CE01885A11
S11313F09F4F20E030E040E85FE3FC0160817181B1
S1131400828193810E94D41888234CF4CE01845A9B
S11314109F4F21E030E0FC013183208369C0CE017D
S1131420885A9F4F20E03FEF4FE757E4FC0160816B
S11314307181828193810E94EF1918160CF046C0C5
S113144020E030E040E251E46E817F818885998517
S11314500E94F419DC01CB018E01045A1F4FBC0118
S1131460CD010E944B19DC01CB01F80191838083EB
S113147024C0CE01825A9F4F29E130E0FC01318320
S11314802083CE01825A9F4FFC0180819181019774
S1131490F1F79E01225A3F4FF90191838083CE01D7
S11314A0845A9F4F9E01245A3F4FF9012081318174
S11314B021503109FC0131832083CE01845A9F4F8E
S11314C0FC0180819181892BA1F62CC08E01045AE4
S11314D01F4FCE01885A9F4FFC0160817181828128
S11314E093810E944B19DC01CB01F8019183808325
S11314F0CE01805A9F4F9E01245A3F4FF90120810B
S11315003181FC0131832083CE01805A9F4FFC013D
S1131510808191810197F1F79E01205A3F4FF90193
S11315209183808381E00E94790082E00E947900A7
S113153083E00E94790084E00E94790081E00E94A7
S1131540A0009E01265B3F4F80E090E0A8E4B2E457
S1131550F90180839183A283B3838E01025B1F4FC1
S1131560CE01865B9F4F20E030E04AE753E4FC0164
S113157060817181828193810E94F419DC01CB0125
S1131580F80180839183A283B383CE01825B9F4F52
S113159020E030E040E85FE3FC01608171818281FA
S11315A093810E94D41888234CF4CE018E5A9F4F05
S11315B021E030E0FC01318320836DC0CE01825BE9
S11315C09F4F20E03FEF4FE757E4FC0160817181BA
S11315D0828193810E94EF1918160CF04AC0CE0143
S11315E0865B9F4F20E030E040E251E4FC016081E3
S11315F07181828193810E94F419DC01CB018E01F7
S11316000E5A1F4FBC01CD010E944B19DC01CB01C6
S1131610F8019183808324C0CE018C5A9F4F29E125
S113162030E0FC0131832083CE018C5A9F4FFC01B2
S1131630808191810197F1F79E012C5A3F4FF90166
S113164091838083CE018E5A9F4F9E012E5A3F4F25
S1131650F9012081318121503109FC01318320833A
S1131660CE018E5A9F4FFC0180819181892BA1F676
S11316702CC08E010E5A1F4FCE01825B9F4FFC017E
S113168060817181828193810E944B19DC01CB01BD
S1131690F80191838083CE018A5A9F4F9E012E5A6E
S11316A03F4FF90120813181FC0131832083CE0138
S11316B08A5A9F4FFC01808191810197F1F79E0125
S11316C02A5A3F4FF901918380838981882F90E0C2
S11316D09E01245F3E4F820F931FFC018081882F5F
S11316E090E00E949A088981823009F08DC180E0DF
S11316F090E0A8E4B2E48E879F87A88BB98B8E0113
S113170004591F4F20E030E04AE753E46E857F859B
S1131710888999890E94F419DC01CB01F80180833E
S11317209183A283B383CE0184599F4F20E030E09C
S113173040E85FE3FC0160817181828193810E94B2
S1131740D41888234CF4CE0180599F4F21E030E017
S1131750FC013183208369C0CE0184599F4F20E06E
S11317603FEF4FE757E4FC016081718182819381EF
S11317700E94EF1918160CF046C020E030E040E259
S113178051E46E857F85888999890E94F419DC016A
S1131790CB018E0100591F4FBC01CD010E944B1992
S11317A0DC01CB01F8019183808324C0CE018E58E3
S11317B09F4F29E130E0FC0131832083CE018E5814
S11317C09F4FFC01808191810197F1F79E012E5872
S11317D03F4FF90191838083CE0180599F4F9E0131
S11317E020593F4FF9012081318121503109FC01F9
S11317F031832083CE0180599F4FFC0180819181E8
S1131800892BA1F62CC08E0100591F4FCE0184599B
S11318109F4FFC0160817181828193810E944B19E9
S1131820DC01CB01F80191838083CE018C589F4F5A
S11318309E0120593F4FF90120813181FC01318300
S11318402083CE018C589F4FFC01808191810197A8
S1131850F1F79E012C583F4FF9019183808381E079
S11318600E94790082E00E94790083E00E9479005E
S113187084E00E94790082E00E94A00080E090E071
S1131880A8E4B2E48A839B83AC83BD838E010E59A2
S11318901F4F20E030E04AE753E46A817B818C816A
S11318A09D810E94F419DC01CB01F80180839183AE
S11318B0A283B383CE018E599F4F20E030E040E8ED
S11318C05FE3FC0160817181828193810E94D4185D
S11318D088234CF4CE018A599F4F21E030E0FC016B
S11318E03183208369C0CE018E599F4F20E03FEFA2
S11318F04FE757E4FC0160817181828193810E94EA
S1131900EF1918160CF046C020E030E040E251E434
S11319106A817B818C819D810E94F419DC01CB0159
S11319208E010A591F4FBC01CD010E944B19DC01E5
S1131930CB01F8019183808324C0CE0188599F4F45
S113194029E130E0FC0131832083CE0188599F4F87
S1131950FC01808191810197F1F79E0128593F4F45
S1131960F90191838083CE018A599F4F9E012A59A0
S11319703F4FF9012081318121503109FC0131832C
S11319802083CE018A599F4FFC0180819181892B4C
S1131990A1F62CC08E010A591F4FCE018E599F4FBC
S11319A0FC0160817181828193810E944B19DC0169
S11319B0CB01F80191838083CE0186599F4F9E010C
S11319C02A593F4FF90120813181FC013183208361
S11319D0CE0186599F4FFC01808191810197F1F7D7
S11319E09E0126593F4FF901918380838981882F75
S11319F090E09E01245F3E4F820F931FFC01808183
S1131A00882F90E00E949A088981833009F08DC163
S1131A1080E090E0A8E4B2E48E8B9F8BA88FB98F0E
S1131A208E0100581F4F20E030E04AE753E46E89EE
S1131A307F89888D998D0E94F419DC01CB01F8010E
S1131A4080839183A283B383CE0180589F4F20E08B
S1131A5030E040E85FE3FC01608171818281938121
S1131A600E94D41888234CF4CE018C579F4F21E058
S1131A7030E0FC013183208369C0CE0180589F4F40
S1131A8020E03FEF4FE757E4FC01608171818281E0
S1131A9093810E94EF1918160CF046C020E030E044
S1131AA040E251E46E897F89888D998D0E94F419F2
S1131AB0DC01CB018E010C571F4FBC01CD010E94EC
S1131AC04B19DC01CB01F8019183808324C0CE0142
S1131AD08A579F4F29E130E0FC0131832083CE01F6
S1131AE08A579F4FFC01808191810197F1F79E01F4
S1131AF02A573F4FF90191838083CE018C579F4F22
S1131B009E012C573F4FF901208131812150310929
S1131B10FC0131832083CE018C579F4FFC018081CF
S1131B209181892BA1F62CC08E010C571F4FCE0139
S1131B3080589F4FFC0160817181828193810E9452
S1131B404B19DC01CB01F80191838083CE018857C6
S1131B509F4F9E012C573F4FF90120813181FC0199
S1131B6031832083CE0188579F4FFC01808191816E
S1131B700197F1F79E0128573F4FF9019183808324
S1131B8081E00E94790082E00E94790083E00E9453
S1131B90790084E00E94790083E00E94A00080E044
S1131BA090E0A8E4B2E48A879B87AC87BD878E0166
S1131BB00A581F4F20E030E04AE753E46A857B85EA
S1131BC08C859D850E94F419DC01CB01F80180838A
S1131BD09183A283B383CE018A589F4F20E030E0E3
S1131BE040E85FE3FC0160817181828193810E94FE
S1131BF0D41888234CF4CE0186589F4F21E030E05E
S1131C00FC013183208369C0CE018A589F4F20E0B4
S1131C103FEF4FE757E4FC0160817181828193813A
S1131C200E94EF1918160CF046C020E030E040E2A4
S1131C3051E46A857B858C859D850E94F419DC01BD
S1131C40CB018E0106581F4FBC01CD010E944B19D8
S1131C50DC01CB01F8019183808324C0CE01845838
S1131C609F4F29E130E0FC0131832083CE01845869
S1131C709F4FFC01808191810197F1F79E012458C7
S1131C803F4FF90191838083CE0186589F4F9E0177
S1131C9026583F4FF9012081318121503109FC013F
S1131CA031832083CE0186589F4FFC01808191812E
S1131CB0892BA1F62CC08E0106581F4FCE018A58DD
S1131CC09F4FFC0160817181828193810E944B1935
S1131CD0DC01CB01F80191838083CE0182589F4FB0
S1131CE09E0126583F4FF90120813181FC01318347
S1131CF02083CE0182589F4FFC01808191810197FE
S1131D00F1F79E0122583F4FF90191838083898125
S1131D10882F90E09E01245F3E4F820F931FFC01A9
S1131D208081882F90E00E949A088981843009F08C
S1131D308DC180E090E0A8E4B2E48E8F9F8FA8A3C9
S1131D40B9A38E010C561F4F20E030E04AE753E45C
S1131D506E8D7F8D88A199A10E94F419DC01CB01BD
S1131D60F80180839183A283B383CE018C569F4F65
S1131D7020E030E040E85FE3FC0160817181828112
S1131D8093810E94D41888234CF4CE0188569F4F27
S1131D9021E030E0FC013183208369C0CE018C5600
S1131DA09F4F20E03FEF4FE757E4FC0160817181D2
S1131DB0828193810E94EF1918160CF046C020E02E
S1131DC030E040E251E46E8D7F8D88A199A10E949C
S1131DD0F419DC01CB018E0108561F4FBC01CD0163
S1131DE00E944B19DC01CB01F8019183808324C04C
S1131DF0CE0186569F4F29E130E0FC0131832083D8
S1131E00CE0186569F4FFC01808191810197F1F7A5
S1131E109E0126563F4FF90191838083CE01885657
S1131E209F4F9E0128563F4FF90120813181215057
S1131E303109FC0131832083CE0188569F4FFC0178
S1131E4080819181892BA1F62CC08E0108561F4FE9
S1131E50CE018C569F4FFC016081718182819381F8
S1131E600E944B19DC01CB01F80191838083CE01E0
S1131E7084569F4F9E0128563F4FF901208131819E
S1131E80FC0131832083CE0184569F4FFC01808165
S1131E9091810197F1F79E0124563F4FF9019183F7
S1131EA0808381E00E94790082E00E94790083E0CF
S1131EB00E94790084E00E94790084E00E94A000DE
S1131EC080E090E0A8E4B2E48A8B9B8BAC8BBD8B62
S1131ED08E0106571F4F20E030E04AE753E46A8939
S1131EE07B898C899D890E94F419DC01CB01F8015E
S1131EF080839183A283B383CE0186579F4F20E0D2
S1131F0030E040E85FE3FC0160817181828193816C
S1131F100E94D41888234CF4CE0182579F4F21E0AD
S1131F2030E0FC013183208369C0CE0186579F4F86
S1131F3020E03FEF4FE757E4FC016081718182812B
S1131F4093810E94EF1918160CF046C020E030E08F
S1131F5040E251E46A897B898C899D890E94F41945
S1131F60DC01CB018E0102571F4FBC01CD010E9441
S1131F704B19DC01CB01F8019183808324C0CE018D
S1131F8080579F4F29E130E0FC0131832083CE014B
S1131F9080579F4FFC01808191810197F1F79E0149
S1131FA020573F4FF90191838083CE0182579F4F81
S1131FB09E0122573F4FF90120813181215031097F
S1131FC0FC0131832083CE0182579F4FFC01808125
S1131FD09181892BA1F62CC08E0102571F4FCE018F
S1131FE086579F4FFC0160817181828193810E9499
S1131FF04B19DC01CB01F80191838083CE018E560D
S11320009F4F9E0122573F4FF90120813181FC01EE
S113201031832083CE018E569F4FFC0180819181B4
S11320200197F1F79E012E563F4FF901918380836A
S11320308981882F90E09E01245F3E4F820F931F79
S1132040FC018081882F90E00E949A088981853064
S113205009F08DC180E090E0A8E4B2E48EA39FA3D0
S1132060A8A7B9A78E0108551F4F20E030E04AE722
S113207053E46EA17FA188A599A50E94F419DC01FF
S1132080CB01F80180839183A283B383CE01885569
S11320909F4F20E030E040E85FE3FC016081718104
S11320A0828193810E94D41888234CF4CE018455F4
S11320B09F4F21E030E0FC013183208369C0CE01D1
S11320C088559F4F20E03FEF4FE757E4FC016081C4
S11320D07181828193810E94EF1918160CF046C019
S11320E020E030E040E251E46EA17FA188A599A5EB
S11320F00E94F419DC01CB018E0104551F4FBC0171
S1132100CD010E944B19DC01CB01F801918380833E
S113211024C0CE0182559F4F29E130E0FC01318378
S11321202083CE0182559F4FFC01808191810197CC
S1132130F1F79E0122553F4FF90191838083CE012F
S113214084559F4F9E0124553F4FF90120813181D1
S113215021503109FC0131832083CE0184559F4FE6
S1132160FC0180819181892BA1F62CC08E0104553C
S11321701F4FCE0188559F4FFC0160817181828180
S113218093810E944B19DC01CB01F8019183808378
S1132190CE0180559F4F9E0124553F4FF901208168
S11321A03181FC0131832083CE0180559F4FFC0196
S11321B0808191810197F1F79E0120553F4FF901EC
S11321C09183808381E00E94790082E00E947900FB
S11321D083E00E94790084E00E94790085E00E94F7
S11321E0A00080E090E0A8E4B2E48A8F9B8FAC8FDB
S11321F0BD8F8E0102561F4F20E030E04AE753E4C2
S11322006A8D7B8D8C8D9D8D0E94F419DC01CB0130
S1132210F80180839183A283B383CE0182569F4FBA
S113222020E030E040E85FE3FC016081718182815D
S113223093810E94D41888234CF4CE018E559F4F6D
S113224021E030E0FC013183208369C0CE01825655
S11322509F4F20E03FEF4FE757E4FC01608171811D
S1132260828193810E94EF1918160CF046C020E079
S113227030E040E251E46A8D7B8D8C8D9D8D0E940F
S1132280F419DC01CB018E010E551F4FBC01CD01A9
S11322900E944B19DC01CB01F8019183808324C097
S11322A0CE018C559F4F29E130E0FC01318320831E
S11322B0CE018C559F4FFC01808191810197F1F7EC
S11322C09E012C553F4FF90191838083CE018E5599
S11322D09F4F9E012E553F4FF9012081318121509E
S11322E03109FC0131832083CE018E559F4FFC01BF
S11322F080819181892BA1F62CC08E010E551F4F30
S1132300CE0182569F4FFC0160817181828193814D
S11323100E944B19DC01CB01F80191838083CE012B
S11323208A559F4F9E012E553F4FF90120813181DF
S1132330FC0131832083CE018A559F4FFC018081AB
S113234091810197F1F79E012A553F4FF90191833D
S113235080838981882F90E09E01245F3E4F820F05
S1132360931FFC018081882F90E00E949A08898144
S1132370863009F08DC180E090E0A8E4B2E48EA735
S11323809FA7A8ABB9AB8E0104541F4F20E030E0E7
S11323904AE753E46EA57FA588A999A90E94F41978
S11323A0DC01CB01F80180839183A283B383CE0146
S11323B084549F4F20E030E040E85FE3FC016081FB
S11323C07181828193810E94D41888234CF4CE01B8
S11323D080549F4F21E030E0FC013183208369C0A9
S11323E0CE0184549F4F20E03FEF4FE757E4FC01B8
S11323F060817181828193810E94EF1918160CF01B
S113240046C020E030E040E251E46EA57FA588A9F3
S113241099A90E94F419DC01CB018E0100541F4FCD
S1132420BC01CD010E944B19DC01CB01F801918361
S1132430808324C0CE018E539F4F29E130E0FC01FC
S113244031832083CE018E539F4FFC018081918183
S11324500197F1F79E012E533F4FF9019183808339
S1132460CE0180549F4F9E0120543F4FF90120819B
S1132470318121503109FC0131832083CE01805404
S11324809F4FFC0180819181892BA1F62CC08E0184
S113249000541F4FCE0184549F4FFC016081718111
S11324A0828193810E944B19DC01CB01F801918355
S11324B08083CE018C539F4F9E0120543F4FF901DE
S11324C020813181FC0131832083CE018C539F4FC5
S11324D0FC01808191810197F1F79E012C533F4FBC
S11324E0F9019183808381E00E94790082E00E9457
S11324F0790083E00E94790084E00E94790086E0FC
S11325000E94A00080E090E0A8E4B2E48AA39BA328
S1132510ACA3BDA38E010E541F4F20E030E04AE768
S113252053E46AA17BA18CA19DA10E94F419DC0152
S1132530CB01F80180839183A283B383CE018E54AF
S11325409F4F20E030E040E85FE3FC01608171814F
S1132550828193810E94D41888234CF4CE018A543A
S11325609F4F21E030E0FC013183208369C0CE011C
S11325708E549F4F20E03FEF4FE757E4FC0160810A
S11325807181828193810E94EF1918160CF046C064
S113259020E030E040E251E46AA17BA18CA19DA13E
S11325A00E94F419DC01CB018E010A541F4FBC01B7
S11325B0CD010E944B19DC01CB01F801918380838A
S11325C024C0CE0188549F4F29E130E0FC013183BF
S11325D02083CE0188549F4FFC0180819181019713
S11325E0F1F79E0128543F4FF90191838083CE0176
S11325F08A549F4F9E012A543F4FF9012081318113
S113260021503109FC0131832083CE018A549F4F2C
S1132610FC0180819181892BA1F62CC08E010A5482
S11326201F4FCE018E549F4FFC01608171818281C6
S113263093810E944B19DC01CB01F80191838083C3
S1132640CE0186549F4F9E012A543F4FF9012081A9
S11326503181FC0131832083CE0186549F4FFC01DC
S1132660808191810197F1F79E0126543F4FF90132
S1132670918380838981882F90E09E01245F3E4F5F
S1132680820F931FFC018081882F90E00E949A089A
S11326908981873009F08DC180E090E0A8E4B2E43C
S11326A08EAB9FABA8AFB9AF8E0100531F4F20E094
S11326B030E04AE753E46EA97FA988AD99AD0E9442
S11326C0F419DC01CB01F80180839183A283B383E5
S11326D0CE0180539F4F20E030E040E85FE3FC01EF
S11326E060817181828193810E94D41888234CF483
S11326F0CE018C529F4F21E030E0FC0131832083D6
S113270069C0CE0180539F4F20E03FEF4FE757E46D
S1132710FC0160817181828193810E94EF191816F6
S11327200CF046C020E030E040E251E46EA97FA9FD
S113273088AD99AD0E94F419DC01CB018E010C52D5
S11327401F4FBC01CD010E944B19DC01CB01F801E4
S11327509183808324C0CE018A529F4F29E130E0C7
S1132760FC0131832083CE018A529F4FFC0180817A
S113277091810197F1F79E012A523F4FF90191830C
S11327808083CE018C529F4F9E012C523F4FF90102
S11327902081318121503109FC0131832083CE0114
S11327A08C529F4FFC0180819181892BA1F62CC012
S11327B08E010C521F4FCE0180539F4FFC0160814C
S11327C07181828193810E944B19DC01CB01F80154
S11327D091838083CE0188529F4F9E012C523F4F9C
S11327E0F90120813181FC0131832083CE0188529B
S11327F09F4FFC01808191810197F1F79E0128523E
S11328003F4FF9019183808381E00E94790082E047
S11328100E94790083E00E94790084E00E9479009C
S113282087E00E94A00080E090E0A8E4B2E48AA7D8
S11328309BA7ACA7BDA78E010A531F4F20E030E031
S11328404AE753E46AA57BA58CA59DA50E94F419CB
S1132850DC01CB01F80180839183A283B383CE0191
S11328608A539F4F20E030E040E85FE3FC01608141
S11328707181828193810E94D41888234CF4CE0103
S113288086539F4F21E030E0FC013183208369C0EF
S1132890CE018A539F4F20E03FEF4FE757E4FC01FE
S11328A060817181828193810E94EF1918160CF066
S11328B046C020E030E040E251E46AA57BA58CA547
S11328C09DA50E94F419DC01CB018E0106531F4F14
S11328D0BC01CD010E944B19DC01CB01F8019183AD
S11328E0808324C0CE0184539F4F29E130E0FC0152
S11328F031832083CE0184539F4FFC0180819181D9
S11329000197F1F79E0124533F4FF901918380838E
S1132910CE0186539F4F9E0126533F4FF9012081DC
S1132920318121503109FC0131832083CE0186534A
S11329309F4FFC0180819181892BA1F62CC08E01CF
S113294006531F4FCE018A539F4FFC016081718152
S1132950828193810E944B19DC01CB01F8019183A0
S11329608083CE0182539F4F9E0126533F4FF9012E
S113297020813181FC0131832083CE0182539F4F1A
S1132980FC01808191810197F1F79E0122533F4F11
S1132990F901918380838981882F90E09E01245FCF
S11329A03E4F820F931FFC018081882F90E00E948C
S11329B09A088981883009F097C19E01225C3F4FB3
S11329C080E090E0A8E4B2E4F90180839183A283DB
S11329D0B3838E010C511F4FCE01CE9620E030E020
S11329E04AE753E4FC0160817181828193810E94F2
S11329F0F419DC01CB01F80180839183A283B383B2
S1132A00CE018C519F4F20E030E040E85FE3FC01B1
S1132A1060817181828193810E94D41888234CF44F
S1132A20CE0188519F4F21E030E0FC0131832083A7
S1132A306CC0CE018C519F4F20E03FEF4FE757E42D
S1132A40FC0160817181828193810E94EF191816C3
S1132A500CF049C0CE01CE9620E030E040E251E4D3
S1132A60FC0160817181828193810E94F419DC01EF
S1132A70CB018E0108511F4FBC01CD010E944B199F
S1132A80DC01CB01F8019183808324C0CE018651FF
S1132A909F4F29E130E0FC0131832083CE01865130
S1132AA09F4FFC01808191810197F1F79E0126518E
S1132AB03F4FF90191838083CE0188519F4F9E013E
S1132AC028513F4FF9012081318121503109FC0106
S1132AD031832083CE0188519F4FFC0180819181F5
S1132AE0892BA1F62CC08E0108511F4FCE018C51A9
S1132AF09F4FFC0160817181828193810E944B19F7
S1132B00DC01CB01F80191838083CE0184519F4F76
S1132B109E0128513F4FF90120813181FC0131830D
S1132B202083CE0184519F4FFC01808191810197C4
S1132B30F1F79E0124513F4FF9019183808381E095
S1132B400E94790082E00E94790083E00E9479006B
S1132B5084E00E94790088E00E94A00080E090E078
S1132B60A8E4B2E48AAB9BABACABBDAB8E0106521E
S1132B701F4F20E030E04AE753E46AA97BA98CA9FF
S1132B809DA90E94F419DC01CB01F8018083918393
S1132B90A283B383CE0186529F4F20E030E040E809
S1132BA05FE3FC0160817181828193810E94D4186A
S1132BB088234CF4CE0182529F4F21E030E0FC0187
S1132BC03183208369C0CE0186529F4F20E03FEFBE
S1132BD04FE757E4FC0160817181828193810E94F7
S1132BE0EF1918160CF046C020E030E040E251E442
S1132BF06AA97BA98CA99DA90E94F419DC01CB01C7
S1132C008E0102521F4FBC01CD010E944B19DC0101
S1132C10CB01F8019183808324C0CE0180529F4F61
S1132C2029E130E0FC0131832083CE0180529F4FA3
S1132C30FC01808191810197F1F79E0120523F4F61
S1132C40F90191838083CE0182529F4F9E012252CB
S1132C503F4FF9012081318121503109FC01318339
S1132C602083CE0182529F4FFC0180819181892B68
S1132C70A1F62CC08E0102521F4FCE0186529F4FE7
S1132C80FC0160817181828193810E944B19DC0176
S1132C90CB01F80191838083CE018E519F4F9E0119
S1132CA022523F4FF90120813181FC01318320837D
S1132CB0CE018E519F4FFC01808191810197F1F7E4
S1132CC09E012E513F4FF901918380838981882F82
S1132CD090E09E01245F3E4F820F931FFC01808190
S1132CE0882F90E00E949A088981893009F096C162
S1132CF09E012A5B3F4F80E090E0A8E4B2E4F90132
S1132D0080839183A283B3838E0108501F4FCE0129
S1132D108A5B9F4F20E030E04AE753E4FC01608186
S1132D207181828193810E94F419DC01CB01F80145
S1132D3080839183A283B383CE0188509F4F20E088
S1132D4030E040E85FE3FC0160817181828193811E
S1132D500E94D41888234CF4CE0184509F4F21E064
S1132D6030E0FC01318320836DC0CE0188509F4F39
S1132D7020E03FEF4FE757E4FC01608171818281DD
S1132D8093810E94EF1918160CF04AC0CE018A5B99
S1132D909F4F20E030E040E251E4FC01608171810A
S1132DA0828193810E94F419DC01CB018E010450CD
S1132DB01F4FBC01CD010E944B19DC01CB01F8016E
S1132DC09183808324C0CE0182509F4F29E130E05B
S1132DD0FC0131832083CE0182509F4FFC0180810E
S1132DE091810197F1F79E0122503F4FF9019183A0
S1132DF08083CE0184509F4F9E0124503F4FF901A0
S1132E002081318121503109FC0131832083CE019D
S1132E1084509F4FFC0180819181892BA1F629C0A8
S1132E208E0104501F4FCE0188509F4FFC016081DA
S1132E307181828193810E944B19DC01CB01F801DD
S1132E4091838083CE0193959E0124503F4FF901D5
S1132E5020813181FC0131832083CE019395FC01D3
S1132E60808191810197F1F79E013395F901918356
S1132E70808381E00E94790082E00E94790083E0EF
S1132E800E94790084E00E94790089E00E94A000F9
S1132E9080E090E0A8E4B2E48AAF9BAFACAFBDAFF2
S1132EA08E0102511F4F20E030E04AE753E46AAD3F
S1132EB07BAD8CAD9DAD0E94F419DC01CB01F80112
S1132EC080839183A283B383CE0182519F4F20E0FC
S1132ED030E040E85FE3FC0160817181828193818D
S1132EE00E94D41888234CF4CE018E509F4F21E0C9
S1132EF030E0FC013183208369C0CE0182519F4FB1
S1132F0020E03FEF4FE757E4FC016081718182814B
S1132F1093810E94EF1918160CF046C020E030E0AF
S1132F2040E251E46AAD7BAD8CAD9DAD0E94F419D5
S1132F30DC01CB018E010E501F4FBC01CD010E945C
S1132F404B19DC01CB01F8019183808324C0CE01AD
S1132F508C509F4F29E130E0FC0131832083CE0166
S1132F608C509F4FFC01808191810197F1F79E0164
S1132F702C503F4FF90191838083CE018E509F4F97
S1132F809E012E503F4FF90120813181215031099A
S1132F90FC0131832083CE018E509F4FFC01808140
S1132FA09181892BA1F62CC08E010E501F4FCE01AA
S1132FB082519F4FFC0160817181828193810E94C3
S1132FC04B19DC01CB01F80191838083CE018A5037
S1132FD09F4F9E012E503F4FF90120813181FC010A
S1132FE031832083CE018A509F4FFC0180819181DF
S1132FF00197F1F79E012A503F4FF9019183808395
S11330008981882F90E09E01245F3E4F820F931F99
S1133010FC018081882F90E00E949A089E012E5B1B
S11330203F4F80E090E0AAE7B4E4F9018083918304
S1133030A283B3838E010E5F1E4FCE018E5B9F4F22
S113304020E030E04AE753E4FC0160817181828131
S113305093810E94F419DC01CB01F80180839183F0
S1133060A283B383CE018E5F9E4F20E030E040E820
S11330705FE3FC0160817181828193810E94D41895
S113308088234CF4CE018A5F9E4F21E030E0FC019E
S1133090318320836DC0CE018E5F9E4F20E03FEFD1
S11330A04FE757E4FC0160817181828193810E9422
S11330B0EF1918160CF04AC0CE018E5B9F4F20E02A
S11330C030E040E251E4FC016081718182819381AE
S11330D00E94F419DC01CB018E010A5F1E4FBC0172
S11330E0CD010E944B19DC01CB01F801918380834F
S11330F024C0CE01885F9E4F29E130E0FC0131837A
S11331002083CE01885F9E4FFC01808191810197CD
S1133110F1F79E01285F3E4FF90191838083CE0130
S11331208A5F9E4F9E012A5F3E4FF90120813181C3
S113313021503109FC0131832083CE018A5F9E4FE7
S1133140FC0180819181892BA1F62CC08E010A5F3C
S11331501E4FCE018E5F9E4FFC0160817181828182
S113316093810E944B19DC01CB01F8019183808388
S1133170CE01865F9E4F9E012A5F3E4FF90120815A
S11331803181FC0131832083CE01865F9E4FFC0197
S1133190808191810197F1F79E01265F3E4FF901ED
S11331A0918380830C94D3090E947A1908F481E0F6
S11331B008950E94ED180C94B5190E94AE1958F0A8
S11331C00E94A71940F029F45F3F29F00C949E193E
S11331D051110C94E9190C94A4190E94C61968F3AE
S11331E09923B1F3552391F3951B550BBB27AA27BC
S11331F062177307840738F09F5F5F4F220F331FF6
S1133200441FAA1FA9F335D00E2E3AF0E0E832D0BD
S113321091505040E695001CCAF72BD0FE2F29D0C0
S1133220660F771F881FBB1F261737074807AB0792
S1133230B0E809F0BB0B802DBF01FF2793585F4F07
S11332403AF09E3F510578F00C949E190C94E919BC
S11332505F3FE4F3983ED4F3869577956795B795E9
S1133260F7959F5FC9F7880F911D9695879597F9F4
S11332700895E1E0660F771F881FBB1F621773076D
S11332808407BA0720F0621B730B840BBA0BEE1F82
S113329088F7E09508950E94CE1988F09F5798F01A
S11332A0B92F9927B751B0F0E1F0660F771F881F47
S11332B0991F1AF0BA95C9F714C0B13091F00E9461
S11332C0E819B1E008950C94E819672F782F88273E
S11332D0B85F39F0B93FCCF3869577956795B39588
S11332E0D9F73EF490958095709561957F4F8F4FF7
S11332F09F4F0895990F0008550FAA0BE0E8FEEFC1
S113330016161706E807F907C0F012161306E407A5
S1133310F50798F0621B730B840B950B39F40A269E
S113332061F0232B242B252B21F408950A2609F47C
S1133330A140A6958FEF811D811D089597F99F6780
S113334080E870E060E008959FEF80EC0895002429
S11333500A941616170618060906089500240A94F6
S113336012161306140605060895092E0394000C7C
S113337011F4882352F0BB0F40F4BF2B11F460FF0B
S113338004C06F5F7F4F8F4F9F4F089557FD905834
S1133390440F551F59F05F3F71F04795880F97FB15
S11333A0991F61F09F3F79F08795089512161306CF
S11333B01406551FF2CF4695F1DF08C016161706FE
S11333C01806991FF1CF8695710561050894089533
S11333D0E894BB2766277727CB0197F908950E94C5
S11333E07A1908F48FEF08950E94071A0C94B519FE
S11333F00E94A71938F00E94AE1920F0952311F00D
S11334000C949E190C94A41911240C94E9190E948B
S1133410C61970F3959FC1F3950F50E0551F629F35
S1133420F001729FBB27F00DB11D639FAA27F00D19
S1133430B11DAA1F649F6627B00DA11D661F829F40
S11334402227B00DA11D621F739FB00DA11D621F25
S1133450839FA00D611D221F749F3327A00D611D42
S1133460231F849F600D211D822F762F6A2F112424
S11334709F5750409AF0F1F088234AF0EE0FFF1F57
S1133480BB1F661F771F881F91505040A9F79E3FAE
S1133490510580F00C949E190C94E9195F3FE4F3F4
S11334A0983ED4F3869577956795B795F795E79504
S11334B09F5FC1F7FE2B880F911D9695879597F90D
S10934C00895F894FFCF0B
S10D34C6454C47415A5A4152000098
S9030000FC
