S015000042434453657665676D656E74732E7372656325
S11300000C942A000C943C000C943C000C943C008E
S11300100C943C000C943C000C943C000C943C006C
S11300200C943C000C943C000C946A000C943C002E
S11300300C943C000C943C000C943C000C943C004C
S11300400C943C000C943C000C943C000C943C003C
S11300500C943C0011241FBECFE5D8E0DEBFCDBF19
S113006020E0A0E6B0E001C01D92A336B207E1F79C
S11300700E9482020C94DF020C940000CF93DF9361
S1130080CDB7DEB78FE590E02FE530E0F9012081B0
S11300902068FC01208389E590E029E530E0F9013E
S11300A020812260FC01208382E590E0FC01108223
S11300B08CE590E029EFFC01208383E590E023E5C3
S11300C030E0F90120812B60FC0120830000DF91E6
S11300D0CF9108951F920F9200905F000F92112408
S11300E02F938F939F93CF93DF93CDB7DEB78091F8
S11300F0600090916100019690936100809360008C
S11301008091600090916100883E934049F4809111
S113011062008F5F80936200109261001092600011
S1130120809162008D3F11F4109262000000DF9113
S1130130CF919F918F912F910F9000925F000F901C
S11301401F901895CF93DF9300D0CDB7DEB7898386
S11301506A838981883078F58A818130A1F48BE3C0
S113016090E02BE330E0F9012081622F2981422FB6
S113017050E021E030E002C0220F331F4A95E2F73D
S1130180262BFC0120838A818823A9F48BE390E049
S11301902BE330E0F9012081622F2981422F50E0C6
S11301A021E030E002C0220F331F4A95E2F7209588
S11301B02623FC01208389818830C0F18981803124
S11301C0A8F58A818130B9F488E390E028E330E02F
S11301D0F9012081622F2981222F30E0A9014850A2
S11301E0510921E030E002C0220F331F4A95E2F7A3
S11301F0262BFC0120838A818823C1F488E390E0C4
S113020028E330E0F9012081622F2981222F30E098
S1130210A9014850510921E030E002C0220F331FE8
S11302204A95E2F720952623FC01208389818031B9
S1130230C0F189818831A8F58A818130B9F485E3D8
S113024090E025E330E0F9012081622F2981222FFB
S113025030E0A9014051510921E030E002C0220FF1
S1130260331F4A95E2F7262BFC0120838A818823D9
S1130270C1F485E390E025E330E0F9012081622FA9
S11302802981222F30E0A9014051510921E030E0B9
S113029002C0220F331F4A95E2F720952623FC0162
S11302A0208389818931C0F189818032A8F58A81CE
S11302B08130B9F482E390E022E330E0F901208157
S11302C0622F2981222F30E0A9014851510921E0F0
S11302D030E002C0220F331F4A95E2F7262BFC01BF
S11302E020838A818823C1F482E390E022E330E012
S11302F0F9012081622F2981222F30E0A901485180
S1130300510921E030E002C0220F331F4A95E2F781
S113031020952623FC01208300000F900F90DF918D
S1130320CF910895CF93DF9300D0CDB7DEB7898303
S11303306A838981883078F58A818130A1F48AE3DF
S113034090E02AE330E0F9012081622F2981422FD5
S113035050E021E030E002C0220F331F4A95E2F75B
S1130360262BFC0120838A818823A9F48AE390E068
S11303702AE330E0F9012081622F2981422F50E0E5
S113038021E030E002C0220F331F4A95E2F72095A6
S11303902623FC01208389818830C0F18981803142
S11303A0A8F58A818130B9F487E390E027E330E04F
S11303B0F9012081622F2981222F30E0A9014850C0
S11303C0510921E030E002C0220F331F4A95E2F7C1
S11303D0262BFC0120838A818823C1F487E390E0E3
S11303E027E330E0F9012081622F2981222F30E0B8
S11303F0A9014850510921E030E002C0220F331F07
S11304004A95E2F720952623FC01208389818031D7
S1130410C0F189818831A8F58A818130B9F484E3F7
S113042090E024E330E0F9012081622F2981222F1A
S113043030E0A9014051510921E030E002C0220F0F
S1130440331F4A95E2F7262BFC0120838A818823F7
S1130450C1F484E390E024E330E0F9012081622FC9
S11304602981222F30E0A9014051510921E030E0D7
S113047002C0220F331F4A95E2F720952623FC0180
S1130480208389818931C0F189818032A8F58A81EC
S11304908130B9F481E390E021E330E0F901208177
S11304A0622F2981222F30E0A9014851510921E00E
S11304B030E002C0220F331F4A95E2F7262BFC01DD
S11304C020838A818823C1F481E390E021E330E032
S11304D0F9012081622F2981222F30E0A90148519E
S11304E0510921E030E002C0220F331F4A95E2F7A0
S11304F020952623FC01208300000F900F90DF91AC
S1130500CF910895CF93DF93CDB7DEB761E08DE04F
S11305100E94920161E08EE00E94920161E08FE00E
S11305200E94920160E08DE00E94A20060E08EE0F3
S11305300E94A20060E08FE00E94A2000E943E00A0
S1130540209162008BEA289F812D1124982F969583
S1130550892F880F890F922F981B892F90E0813063
S1130560910591F082309105E1F0892B39F561E034
S11305708DE00E94A20060E08FE00E94A20060E093
S11305808EE00E94A2001AC060E08DE00E94A200EA
S113059061E08FE00E94A20060E08EE00E94A20071
S11305A00DC060E08DE00E94A20060E08FE00E9438
S11305B0A20061E08EE00E94A2000000C1CFF89486
S10505C0FFCF67
S9030000FC
