S015000042434453657665676D656E74732E7372656325
S11300000C942A000C9434000C9434000C943400A6
S11300100C9434000C9434000C9434000C9434008C
S11300200C9434000C9434000C9434000C9434007C
S11300300C9434000C9434000C9434000C9434006C
S11300400C9434000C9434000C9434000C9434005C
S11300500C94340011241FBECFE5D8E0DEBFCDBF21
S11300600E94AB040C945A140C940000CF93DF93B9
S1130070CDB7DEB761E08AE10E947E0261E08BE1E8
S11300800E947E0261E08EE10E947E0261E08FE1C7
S11300900E947E0261E088E00E947E0261E089E0C5
S11300A00E947E0261E08AE00E947E0261E08BE0B1
S11300B00E947E0260E08AE10E948E0160E08BE192
S11300C00E948E0160E08EE10E948E0160E08FE16B
S11300D00E948E010000DF91CF910895CF93DF93AA
S11300E01F92CDB7DEB789838981813021F461E025
S11300F08AE10E948E018981823021F461E08BE1E2
S11301000E948E018981833021F461E08EE10E9496
S11301108E018981843021F461E08FE10E948E0197
S113012000000F90DF91CF910895CF93DF931F923A
S1130130CDB7DEB789838981813021F460E08AE11B
S11301400E948E018981823021F460E08BE10E945B
S11301508E018981833021F460E08EE10E948E015A
S11301608981843021F460E08FE10E948E010000D7
S11301700F90DF91CF910895CF93DF931F92CDB766
S1130180DEB789838981882389F460E088E00E944E
S11301908E0160E089E00E948E0160E08AE00E94A6
S11301A08E0160E08BE00E948E01B3C089818130B2
S11301B089F461E088E00E948E0160E089E00E9499
S11301C08E0160E08AE00E948E0160E08BE00E9474
S11301D08E019FC08981823089F460E088E00E94AA
S11301E08E0161E089E00E948E0160E08AE00E9455
S11301F08E0160E08BE00E948E018BC08981833088
S113020089F461E088E00E948E0161E089E00E9447
S11302108E0160E08AE00E948E0160E08BE00E9423
S11302208E0177C08981843089F460E088E00E947F
S11302308E0160E089E00E948E0161E08AE00E9404
S11302408E0160E08BE00E948E0163C0898185305D
S113025089F461E088E00E948E0160E089E00E94F8
S11302608E0161E08AE00E948E0160E08BE00E94D2
S11302708E014FC08981863089F460E088E00E9455
S11302808E0161E089E00E948E0161E08AE00E94B3
S11302908E0160E08BE00E948E013BC08981873033
S11302A089F461E088E00E948E0161E089E00E94A7
S11302B08E0161E08AE00E948E0160E08BE00E9482
S11302C08E0127C08981883089F460E088E00E942B
S11302D08E0160E089E00E948E0160E08AE00E9465
S11302E08E0161E08BE00E948E0113C08981893008
S11302F081F461E088E00E948E0160E089E00E9460
S11303008E0160E08AE00E948E0161E08BE00E9431
S11303108E0100000F90DF91CF910895CF93DF936A
S113032000D0CDB7DEB789836A838981883078F5B8
S11303308A818130A1F48BE390E02BE330E0F90172
S11303402081622F2981422F50E021E030E002C059
S1130350220F331F4A95E2F7262BFC0120838A8162
S11303608823A9F48BE390E02BE330E0F9012081AA
S1130370622F2981422F50E021E030E002C0220F99
S1130380331F4A95E2F720952623FC0120838981B7
S11303908830C0F189818031A8F58A818130B9F42F
S11303A088E390E028E330E0F9012081622F29817D
S11303B0222F30E0A9014850510921E030E002C069
S11303C0220F331F4A95E2F7262BFC0120838A81F2
S11303D08823C1F488E390E028E330E0F901208128
S11303E0622F2981222F30E0A9014850510921E0D0
S11303F030E002C0220F331F4A95E2F720952623EE
S1130400FC01208389818031C0F189818831A8F57C
S11304108A818130B9F485E390E025E330E0F90185
S11304202081622F2981222F30E0A90140515109F6
S113043021E030E002C0220F331F4A95E2F7262B59
S1130440FC0120838A818823C1F485E390E025E3BD
S113045030E0F9012081622F2981222F30E0A901A7
S11304604051510921E030E002C0220F331F4A9568
S1130470E2F720952623FC01208389818931C0F18C
S113048089818032A8F58A818130B9F482E390E0D1
S113049022E330E0F9012081622F2981222F30E00C
S11304A0A9014851510921E030E002C0220F331F55
S11304B04A95E2F7262BFC0120838A818823C1F424
S11304C082E390E022E330E0F9012081622F298168
S11304D0222F30E0A9014851510921E030E002C047
S11304E0220F331F4A95E2F720952623FC0120832F
S11304F000000F900F90DF91CF910895CF93DF9379
S113050000D0CDB7DEB789836A838981883078F5D6
S11305108A818130A1F48AE390E02AE330E0F90192
S11305202081622F2981422F50E021E030E002C077
S1130530220F331F4A95E2F7262BFC0120838A8180
S11305408823A9F48AE390E02AE330E0F9012081CA
S1130550622F2981422F50E021E030E002C0220FB7
S1130560331F4A95E2F720952623FC0120838981D5
S11305708830C0F189818031A8F58A818130B9F44D
S113058087E390E027E330E0F9012081622F29819D
S1130590222F30E0A9014850510921E030E002C087
S11305A0220F331F4A95E2F7262BFC0120838A8110
S11305B08823C1F487E390E027E330E0F901208148
S11305C0622F2981222F30E0A9014850510921E0EE
S11305D030E002C0220F331F4A95E2F7209526230C
S11305E0FC01208389818031C0F189818831A8F59B
S11305F08A818130B9F484E390E024E330E0F901A6
S11306002081622F2981222F30E0A9014051510914
S113061021E030E002C0220F331F4A95E2F7262B77
S1130620FC0120838A818823C1F484E390E024E3DD
S113063030E0F9012081622F2981222F30E0A901C5
S11306404051510921E030E002C0220F331F4A9586
S1130650E2F720952623FC01208389818931C0F1AA
S113066089818032A8F58A818130B9F481E390E0F0
S113067021E330E0F9012081622F2981222F30E02B
S1130680A9014851510921E030E002C0220F331F73
S11306904A95E2F7262BFC0120838A818823C1F442
S11306A081E390E021E330E0F9012081622F298188
S11306B0222F30E0A9014851510921E030E002C065
S11306C0220F331F4A95E2F720952623FC0120834D
S11306D000000F900F90DF91CF910895CF93DF9397
S11306E000D0CDB7DEB78A8319828A818830D8F4E6
S11306F089E390E0FC018081282F30E08A81482F33
S113070050E081E090E002C0880F991F4A95E2F71B
S1130710822393232A81222F30E002C09595879566
S11307202A95E2F789838A81883018F18A81803199
S113073000F586E390E0FC018081282F30E08A8177
S1130740882F90E0AC014850510981E090E002C04C
S1130750880F991F4A95E2F7822393232A81222F37
S113076030E02850310902C0959587952A95E2F723
S113077089838A81803118F18A81883100F583E385
S113078090E0FC018081282F30E08A81882F90E05E
S1130790AC014051510981E090E002C0880F991FDB
S11307A04A95E2F7822393232A81222F30E02051B5
S11307B0310902C0959587952A95E2F789838A8144
S11307C0893118F18A81803200F580E390E0FC01E0
S11307D08081282F30E08A81882F90E0AC01485135
S11307E0510981E090E002C0880F991F4A95E2F711
S11307F0822393232A81222F30E02851310902C019
S1130800959587952A95E2F7898389810F900F90B2
S1130810DF91CF910895CF93DF93CDB7DEB760E03A
S113082085E10E947E0260E086E10E947E0260E033
S113083087E10E947E0261E085E10E948E0161E011
S113084086E10E948E0161E087E10E948E0161E0F1
S113085082E10E947E0261E083E10E947E0261E007
S113086084E10E947E020000DF91CF910895CF932E
S1130870DF931F92CDB7DEB7198260E082E10E9458
S11308808E0161E083E10E948E0161E084E10E94B7
S11308908E0185E10E946E03882319F481E0898327
S11308A00FC086E10E946E03882319F482E08983D5
S11308B007C087E10E946E03882311F483E08983D3
S11308C061E082E10E948E0160E083E10E948E017A
S11308D061E084E10E948E0185E10E946E03882319
S11308E019F484E089830FC086E10E946E03882393
S11308F019F485E0898307C087E10E946E03882389
S113090011F486E0898361E082E10E948E0161E056
S113091083E10E948E0160E084E10E948E0185E102
S11309200E946E03882319F487E089830FC086E14F
S11309300E946E03882319F488E0898307C087E145
S11309400E946E03882311F489E0898389810F90C2
S1130950DF91CF9108950F931F93CF93DF93CDB77A
S1130960DEB7CB50D1400FB6F894DEBF0FBECDBF7B
S11309700E9436000E940B040E94370489838981F7
S1130980813009F08BC180E090E0A8E4B2E48E836A
S11309909F83A887B9878E01085A1F4F20E030E053
S11309A04AE753E46E817F81888599850E94C51347
S11309B0DC01CB01F80180839183A283B383CE0150
S11309C0885A9F4F20E030E040E85FE3FC016081FB
S11309D07181828193810E943F1388234CF4CE015C
S11309E0845A9F4F21E030E0FC013183208369C0A9
S11309F0CE01885A9F4F20E03FEF4FE757E4FC01B8
S1130A0060817181828193810E94C01318160CF059
S1130A1046C020E030E040E251E46E817F81888569
S1130A2099850E94C513DC01CB018E01045A1F4F26
S1130A30BC01CD010E944413DC01CB01F801918378
S1130A40808324C0CE01825A9F4F29E130E0FC010B
S1130A5031832083CE01825A9F4FFC018081918192
S1130A600197F1F79E01225A3F4FF9019183808348
S1130A70CE01845A9F4F9E01245A3F4FF901208191
S1130A80318121503109FC0131832083CE01845A04
S1130A909F4FFC0180819181892BA1F62CC08E018E
S1130AA0045A1F4FCE01885A9F4FFC016081718107
S1130AB0828193810E944413DC01CB01F80191836C
S1130AC08083CE01805A9F4F9E01245A3F4FF901E3
S1130AD020813181FC0131832083CE01805A9F4FD4
S1130AE0FC01808191810197F1F79E01205A3F4FCB
S1130AF0F9019183808382E00E946E0081E00E946C
S1130B00950083E00E94950084E00E94950081E0B6
S1130B100E94BC009E01265B3F4F80E090E0A8E469
S1130B20B2E4F90180839183A283B3838E01025BD3
S1130B301F4FCE01865B9F4F20E030E04AE753E42D
S1130B40FC0160817181828193810E94C513DC0163
S1130B50CB01F80180839183A283B383CE01825BAE
S1130B609F4F20E030E040E85FE3FC016081718149
S1130B70828193810E943F1388234CF4CE018E5AC4
S1130B809F4F21E030E0FC01318320836DC0CE0112
S1130B90825B9F4F20E03FEF4FE757E4FC01608109
S1130BA07181828193810E94C01318160CF04AC08F
S1130BB0CE01865B9F4F20E030E040E251E4FC012F
S1130BC060817181828193810E94C513DC01CB0114
S1130BD08E010E5A1F4FBC01CD010E944413DC014B
S1130BE0CB01F8019183808324C0CE018C5A9F4F9E
S1130BF029E130E0FC0131832083CE018C5A9F4FE0
S1130C00FC01808191810197F1F79E012C5A3F4F9D
S1130C10F90191838083CE018E5A9F4F9E012E5AF3
S1130C203F4FF9012081318121503109FC01318389
S1130C302083CE018E5A9F4FFC0180819181892BA4
S1130C40A1F62CC08E010E5A1F4FCE01825B9F4F1E
S1130C50FC0160817181828193810E944413DC01D3
S1130C60CB01F80191838083CE018A5A9F4F9E0164
S1130C702E5A3F4FF90120813181FC0131832083B9
S1130C80CE018A5A9F4FFC01808191810197F1F72F
S1130C909E012A5A3F4FF9019183808389818230D2
S1130CA009F07FC180E090E0A8E4B2E48E879F87DA
S1130CB0A88BB98B8E0104591F4F20E030E04AE71E
S1130CC053E46E857F85888999890E94C513DC0168
S1130CD0CB01F80180839183A283B383CE0184592D
S1130CE09F4F20E030E040E85FE3FC0160817181C8
S1130CF0828193810E943F1388234CF4CE01805952
S1130D009F4F21E030E0FC013183208369C0CE0194
S1130D1084599F4F20E03FEF4FE757E4FC01608187
S1130D207181828193810E94C01318160CF046C011
S1130D3020E030E040E251E46E857F85888999891E
S1130D400E94C513DC01CB018E0100591F4FBC0169
S1130D50CD010E944413DC01CB01F801918380830F
S1130D6024C0CE018E589F4F29E130E0FC0131832D
S1130D702083CE018E589F4FFC0180819181019781
S1130D80F1F79E012E583F4FF90191838083CE01E4
S1130D9080599F4F9E0120593F4FF9012081318195
S1130DA021503109FC0131832083CE0180599F4FAA
S1130DB0FC0180819181892BA1F62CC08E01005900
S1130DC01F4FCE0184599F4FFC0160817181828144
S1130DD093810E944413DC01CB01F8019183808349
S1130DE0CE018C589F4F9E0120593F4FF90120811D
S1130DF03181FC0131832083CE018C589F4FFC014B
S1130E00808191810197F1F79E012C583F4FF901A0
S1130E109183808382E00E946E0081E00E949500AD
S1130E2083E00E94950084E00E94950082E00E9485
S1130E30BC0080E090E0A8E4B2E48A839B83AC83A6
S1130E40BD838E010E591F4F20E030E04AE753E482
S1130E506A817B818C819D810E94C513DC01CB0159
S1130E60F80180839183A283B383CE018E599F4F6F
S1130E7020E030E040E85FE3FC0160817181828121
S1130E8093810E943F1388234CF4CE018A599F4FCB
S1130E9021E030E0FC013183208369C0CE018E590A
S1130EA09F4F20E03FEF4FE757E4FC0160817181E1
S1130EB0828193810E94C01318160CF046C020E072
S1130EC030E040E251E46A817B818C819D810E9403
S1130ED0C513DC01CB018E010A591F4FBC01CD01A2
S1130EE00E944413DC01CB01F8019183808324C068
S1130EF0CE0188599F4F29E130E0FC0131832083E2
S1130F00CE0188599F4FFC01808191810197F1F7AF
S1130F109E0128593F4FF90191838083CE018A595C
S1130F209F4F9E012A593F4FF90120813181215061
S1130F303109FC0131832083CE018A599F4FFC0182
S1130F4080819181892BA1F62CC08E010A591F4FF3
S1130F50CE018E599F4FFC01608171818281938102
S1130F600E944413DC01CB01F80191838083CE01FC
S1130F7086599F4F9E012A593F4FF90120813181A3
S1130F80FC0131832083CE0186599F4FFC0180816F
S1130F9091810197F1F79E0126593F4FF901918301
S1130FA080838981833009F07FC180E090E0A8E4E8
S1130FB0B2E48E8B9F8BA88FB98F8E0100581F4F80
S1130FC020E030E04AE753E46E897F89888D998D6B
S1130FD00E94C513DC01CB01F80180839183A283B5
S1130FE0B383CE0180589F4F20E030E040E85FE3B8
S1130FF0FC0160817181828193810E943F13882367
S11310004CF4CE018C579F4F21E030E0FC0131833A
S1131010208369C0CE0180589F4F20E03FEF4FE707
S113102057E4FC0160817181828193810E94C01325
S113103018160CF046C020E030E040E251E46E891E
S11310407F89888D998D0E94C513DC01CB018E01A7
S11310500C571F4FBC01CD010E944413DC01CB018E
S1131060F8019183808324C0CE018A579F4F29E1E0
S113107030E0FC0131832083CE018A579F4FFC016D
S1131080808191810197F1F79E012A573F4FF90121
S113109091838083CE018C579F4F9E012C573F4FE5
S11310A0F9012081318121503109FC0131832083F0
S11310B0CE018C579F4FFC0180819181892BA1F631
S11310C02CC08E010C571F4FCE0180589F4FFC013E
S11310D060817181828193810E944413DC01CB0180
S11310E0F80191838083CE0188579F4F9E012C572E
S11310F03F4FF90120813181FC0131832083CE01EE
S113110088579F4FFC01808191810197F1F79E01DF
S113111028573F4FF9019183808382E00E946E003B
S113112081E00E94950083E00E94950084E00E9483
S1131130950083E00E94BC0080E090E0A8E4B2E463
S11311408A879B87AC87BD878E010A581F4F20E092
S113115030E04AE753E46A857B858C859D850E944F
S1131160C513DC01CB01F80180839183A283B3838F
S1131170CE018A589F4F20E030E040E85FE3FC0155
S113118060817181828193810E943F1388234CF492
S1131190CE0186589F4F21E030E0FC01318320834B
S11311A069C0CE018A589F4F20E03FEF4FE757E4D4
S11311B0FC0160817181828193810E94C0131816A1
S11311C00CF046C020E030E040E251E46A857B85C3
S11311D08C859D850E94C513DC01CB018E010658C8
S11311E01F4FBC01CD010E944413DC01CB01F80167
S11311F09183808324C0CE0184589F4F29E130E03D
S1131200FC0131832083CE0184589F4FFC018081EF
S113121091810197F1F79E0124583F4FF901918381
S11312208083CE0186589F4F9E0126583F4FF90177
S11312302081318121503109FC0131832083CE0189
S113124086589F4FFC0180819181892BA1F62CC087
S11312508E0106581F4FCE018A589F4FFC016081B2
S11312607181828193810E944413DC01CB01F801D6
S113127091838083CE0182589F4F9E0126583F4F11
S1131280F90120813181FC0131832083CE01825810
S11312909F4FFC01808191810197F1F79E012258B3
S11312A03F4FF901918380838981843009F07FC1A4
S11312B080E090E0A8E4B2E48E8F9F8FA8A3B9A346
S11312C08E010C561F4F20E030E04AE753E46E8D48
S11312D07F8D88A199A10E94C513DC01CB01F8017F
S11312E080839183A283B383CE018C569F4F20E0E9
S11312F030E040E85FE3FC01608171818281938189
S11313000E943F1388234CF4CE0188569F4F21E05E
S113131030E0FC013183208369C0CE018C569F4F9D
S113132020E03FEF4FE757E4FC0160817181828147
S113133093810E94C01318160CF046C020E030E0E0
S113134040E251E46E8D7F8D88A199A10E94C5135E
S1131350DC01CB018E0108561F4FBC01CD010E9458
S11313604413DC01CB01F8019183808324C0CE01B6
S113137086569F4F29E130E0FC0131832083CE0162
S113138086569F4FFC01808191810197F1F79E0160
S113139026563F4FF90191838083CE0188569F4F93
S11313A09E0128563F4FF901208131812150310996
S11313B0FC0131832083CE0188569F4FFC0180813C
S11313C09181892BA1F62CC08E0108561F4FCE01A6
S11313D08C569F4FFC0160817181828193810E94B0
S11313E04413DC01CB01F80191838083CE01845640
S11313F09F4F9E0128563F4FF90120813181FC0106
S113140031832083CE0184569F4FFC0180819181DA
S11314100197F1F79E0124563F4FF9019183808390
S113142082E00E946E0081E00E94950083E00E94A9
S1131430950084E00E94950084E00E94BC0080E056
S113144090E0A8E4B2E48A8B9B8BAC8BBD8B8E01BD
S113145006571F4F20E030E04AE753E46A897B894E
S11314608C899D890E94C513DC01CB01F80180831E
S11314709183A283B383CE0186579F4F20E030E04F
S113148040E85FE3FC0160817181828193810E9465
S11314903F1388234CF4CE0182579F4F21E030E064
S11314A0FC013183208369C0CE0186579F4F20E021
S11314B03FEF4FE757E4FC016081718182819381A2
S11314C00E94C01318160CF046C020E030E040E241
S11314D051E46A897B898C899D890E94C513DC014A
S11314E0CB018E0102571F4FBC01CD010E94441352
S11314F0DC01CB01F8019183808324C0CE018057A5
S11315009F4F29E130E0FC0131832083CE018057D5
S11315109F4FFC01808191810197F1F79E01205733
S11315203F4FF90191838083CE0182579F4F9E01E3
S113153022573F4FF9012081318121503109FC01AB
S113154031832083CE0182579F4FFC01808191819A
S1131550892BA1F62CC08E0102571F4FCE0186574E
S11315609F4FFC0160817181828193810E944413A9
S1131570DC01CB01F80191838083CE018E569F4F0D
S11315809E0122573F4FF90120813181FC013183B3
S11315902083CE018E569F4FFC018081918101975B
S11315A0F1F79E012E563F4FF90191838083898183
S11315B0853009F07FC180E090E0A8E4B2E48EA316
S11315C09FA3A8A7B9A78E0108551F4F20E030E0BC
S11315D04AE753E46EA17FA188A599A50E94C5138B
S11315E0DC01CB01F80180839183A283B383CE0114
S11315F088559F4F20E030E040E85FE3FC016081C4
S11316007181828193810E943F1388234CF4CE011F
S113161084559F4F21E030E0FC013183208369C071
S1131620CE0188559F4F20E03FEF4FE757E4FC0180
S113163060817181828193810E94C01318160CF01D
S113164046C020E030E040E251E46EA17FA188A5CD
S113165099A50E94C513DC01CB018E0104551F4FCF
S1131660BC01CD010E944413DC01CB01F80191833C
S1131670808324C0CE0182559F4F29E130E0FC01D4
S113168031832083CE0182559F4FFC01808191815B
S11316900197F1F79E0122553F4FF9019183808311
S11316A0CE0184559F4F9E0124553F4FF90120815F
S11316B0318121503109FC0131832083CE018455CD
S11316C09F4FFC0180819181892BA1F62CC08E0152
S11316D004551F4FCE0188559F4FFC0160817181D5
S11316E0828193810E944413DC01CB01F801918330
S11316F08083CE0180559F4F9E0124553F4FF901B1
S113170020813181FC0131832083CE0180559F4F9C
S1131710FC01808191810197F1F79E0120553F4F93
S1131720F9019183808382E00E946E0081E00E942F
S1131730950083E00E94950084E00E94950085E076
S11317400E94BC0080E090E0A8E4B2E48A8F9B8F02
S1131750AC8FBD8F8E0102561F4F20E030E04AE768
S113176053E46A8D7B8D8C8D9D8D0E94C513DC01A5
S1131770CB01F80180839183A283B383CE01825687
S11317809F4F20E030E040E85FE3FC01608171811D
S1131790828193810E943F1388234CF4CE018E559D
S11317A09F4F21E030E0FC013183208369C0CE01EA
S11317B082569F4F20E03FEF4FE757E4FC016081E2
S11317C07181828193810E94C01318160CF046C067
S11317D020E030E040E251E46A8D7B8D8C8D9D8D5C
S11317E00E94C513DC01CB018E010E551F4FBC01B5
S11317F0CD010E944413DC01CB01F8019183808365
S113180024C0CE018C559F4F29E130E0FC01318387
S11318102083CE018C559F4FFC01808191810197DB
S1131820F1F79E012C553F4FF90191838083CE013E
S11318308E559F4F9E012E553F4FF90120813181D6
S113184021503109FC0131832083CE018E559F4FF5
S1131850FC0180819181892BA1F62CC08E010E554B
S11318601F4FCE0182569F4FFC016081718182819E
S113187093810E944413DC01CB01F801918380839E
S1131880CE018A559F4F9E012E553F4FF90120816D
S11318903181FC0131832083CE018A559F4FFC01A5
S11318A0808191810197F1F79E012A553F4FF901FB
S11318B0918380838981863009F07FC180E090E044
S11318C0A8E4B2E48EA79FA7A8ABB9AB8E010454D9
S11318D01F4F20E030E04AE753E46EA57FA588A9B6
S11318E099A90E94C513DC01CB01F801808391837F
S11318F0A283B383CE0184549F4F20E030E040E8BC
S11319005FE3FC0160817181828193810E943F13B6
S113191088234CF4CE0180549F4F21E030E0FC0139
S11319203183208369C0CE0184549F4F20E03FEF70
S11319304FE757E4FC0160817181828193810E94A9
S1131940C01318160CF046C020E030E040E251E429
S11319506EA57FA588A999A90E94C513DC01CB01B6
S11319608E0100541F4FBC01CD010E944413DC01C1
S1131970CB01F8019183808324C0CE018E539F4F05
S113198029E130E0FC0131832083CE018E539F4F47
S1131990FC01808191810197F1F79E012E533F4F05
S11319A0F90191838083CE0180549F4F9E0120547E
S11319B03F4FF9012081318121503109FC013183EC
S11319C02083CE0180549F4FFC0180819181892B1B
S11319D0A1F62CC08E0100541F4FCE0184549F4F9A
S11319E0FC0160817181828193810E944413DC0136
S11319F0CB01F80191838083CE018C539F4F9E01CC
S1131A0020543F4FF90120813181FC01318320832F
S1131A10CE018C539F4FFC01808191810197F1F796
S1131A209E012C533F4FF9019183808382E00E94F1
S1131A306E0081E00E94950083E00E94950084E09E
S1131A400E94950086E00E94BC0080E090E0A8E43B
S1131A50B2E48AA39BA3ACA3BDA38E010E541F4F73
S1131A6020E030E04AE753E46AA17BA18CA19DA168
S1131A700E94C513DC01CB01F80180839183A2830A
S1131A80B383CE018E549F4F20E030E040E85FE303
S1131A90FC0160817181828193810E943F138823BC
S1131AA04CF4CE018A549F4F21E030E0FC01318395
S1131AB0208369C0CE018E549F4F20E03FEF4FE753
S1131AC057E4FC0160817181828193810E94C0137B
S1131AD018160CF046C020E030E040E251E46AA160
S1131AE07BA18CA19DA10E94C513DC01CB018E01B9
S1131AF00A541F4FBC01CD010E944413DC01CB01E9
S1131B00F8019183808324C0CE0188549F4F29E13A
S1131B1030E0FC0131832083CE0188549F4FFC01C7
S1131B20808191810197F1F79E0128543F4FF9017B
S1131B3091838083CE018A549F4F9E012A543F4F44
S1131B40F9012081318121503109FC013183208345
S1131B50CE018A549F4FFC0180819181892BA1F68B
S1131B602CC08E010A541F4FCE018E549F4FFC018E
S1131B7060817181828193810E944413DC01CB01D5
S1131B80F80191838083CE0186549F4F9E012A548D
S1131B903F4FF90120813181FC0131832083CE0143
S1131BA086549F4FFC01808191810197F1F79E013A
S1131BB026543F4FF901918380838981873009F04E
S1131BC07FC180E090E0A8E4B2E48EAB9FABA8AF05
S1131BD0B9AF8E0100531F4F20E030E04AE753E4D1
S1131BE06EA97FA988AD99AD0E94C513DC01CB0114
S1131BF0F80180839183A283B383CE0180539F4FE6
S1131C0020E030E040E85FE3FC0160817181828183
S1131C1093810E943F1388234CF4CE018C529F4F32
S1131C2021E030E0FC013183208369C0CE01805380
S1131C309F4F20E03FEF4FE757E4FC016081718143
S1131C40828193810E94C01318160CF046C020E0D4
S1131C5030E040E251E46EA97FA988AD99AD0E94BD
S1131C60C513DC01CB018E010C521F4FBC01CD0109
S1131C700E944413DC01CB01F8019183808324C0CA
S1131C80CE018A529F4F29E130E0FC013183208349
S1131C90CE018A529F4FFC01808191810197F1F717
S1131CA09E012A523F4FF90191838083CE018C52C9
S1131CB09F4F9E012C523F4FF901208131812150C9
S1131CC03109FC0131832083CE018C529F4FFC01EA
S1131CD080819181892BA1F62CC08E010C521F4F5B
S1131CE0CE0180539F4FFC01608171818281938179
S1131CF00E944413DC01CB01F80191838083CE015F
S1131D0088529F4F9E012C523F4FF901208131810F
S1131D10FC0131832083CE0188529F4FFC018081D6
S1131D2091810197F1F79E0128523F4FF901918368
S1131D30808382E00E946E0081E00E94950083E02F
S1131D400E94950084E00E94950087E00E94BC00F8
S1131D5080E090E0A8E4B2E48AA79BA7ACA7BDA763
S1131D608E010A531F4F20E030E04AE753E46AA58E
S1131D707BA58CA59DA50E94C513DC01CB01F801B0
S1131D8080839183A283B383CE018A539F4F20E043
S1131D9030E040E85FE3FC016081718182819381DE
S1131DA00E943F1388234CF4CE0186539F4F21E0B9
S1131DB030E0FC013183208369C0CE018A539F4FF8
S1131DC020E03FEF4FE757E4FC016081718182819D
S1131DD093810E94C01318160CF046C020E030E036
S1131DE040E251E46AA57BA58CA59DA50E94C5137C
S1131DF0DC01CB018E0106531F4FBC01CD010E94B3
S1131E004413DC01CB01F8019183808324C0CE010B
S1131E1084539F4F29E130E0FC0131832083CE01BC
S1131E2084539F4FFC01808191810197F1F79E01BA
S1131E3024533F4FF90191838083CE0186539F4FF2
S1131E409E0126533F4FF9012081318121503109F0
S1131E50FC0131832083CE0186539F4FFC01808196
S1131E609181892BA1F62CC08E0106531F4FCE0100
S1131E708A539F4FFC0160817181828193810E940A
S1131E804413DC01CB01F80191838083CE0182539A
S1131E909F4F9E0126533F4FF90120813181FC0160
S1131EA031832083CE0182539F4FFC018081918135
S1131EB00197F1F79E0122533F4FF90191838083EB
S1131EC08981883009F089C19E01225C3F4F80E0FE
S1131ED090E0A8E4B2E4F90180839183A283B38300
S1131EE08E010C511F4FCE01CE9620E030E04AE720
S1131EF053E4FC0160817181828193810E94C51346
S1131F00DC01CB01F80180839183A283B383CE01EA
S1131F108C519F4F20E030E040E85FE3FC0160819A
S1131F207181828193810E943F1388234CF4CE01F6
S1131F3088519F4F21E030E0FC01318320836CC045
S1131F40CE018C519F4F20E03FEF4FE757E4FC0157
S1131F5060817181828193810E94C01318160CF0F4
S1131F6049C0CE01CE9620E030E040E251E4FC01CD
S1131F7060817181828193810E94C513DC01CB0150
S1131F808E0108511F4FBC01CD010E944413DC0196
S1131F90CB01F8019183808324C0CE0186519F4FE9
S1131FA029E130E0FC0131832083CE0186519F4F2B
S1131FB0FC01808191810197F1F79E0126513F4FE9
S1131FC0F90191838083CE0188519F4F9E0128514E
S1131FD03F4FF9012081318121503109FC013183C6
S1131FE02083CE0188519F4FFC0180819181892BF0
S1131FF0A1F62CC08E0108511F4FCE018C519F4F6A
S1132000FC0160817181828193810E944413DC010F
S1132010CB01F80191838083CE0184519F4F9E01AF
S113202028513F4FF90120813181FC013183208304
S1132030CE0184519F4FFC01808191810197F1F77A
S11320409E0124513F4FF9019183808382E00E94D5
S11320506E0081E00E94950083E00E94950084E078
S11320600E94950088E00E94BC0080E090E0A8E413
S1132070B2E48AAB9BABACABBDAB8E0106521F4F37
S113208020E030E04AE753E46AA97BA98CA99DA922
S11320900E94C513DC01CB01F80180839183A283E4
S11320A0B383CE0186529F4F20E030E040E85FE3E7
S11320B0FC0160817181828193810E943F13882396
S11320C04CF4CE0182529F4F21E030E0FC01318379
S11320D0208369C0CE0186529F4F20E03FEF4FE737
S11320E057E4FC0160817181828193810E94C01355
S11320F018160CF046C020E030E040E251E46AA932
S11321007BA98CA99DA90E94C513DC01CB018E017A
S113211002521F4FBC01CD010E944413DC01CB01CC
S1132120F8019183808324C0CE0180529F4F29E11E
S113213030E0FC0131832083CE0180529F4FFC01AB
S1132140808191810197F1F79E0120523F4FF9015F
S113215091838083CE0182529F4F9E0122523F4F32
S1132160F9012081318121503109FC01318320831F
S1132170CE0182529F4FFC0180819181892BA1F66F
S11321802CC08E0102521F4FCE0186529F4FFC017C
S113219060817181828193810E944413DC01CB01AF
S11321A0F80191838083CE018E519F4F9E0122526C
S11321B03F4FF90120813181FC0131832083CE011D
S11321C08E519F4FFC01808191810197F1F79E010F
S11321D02E513F4FF901918380838981893009F021
S11321E088C19E012A5B3F4F80E090E0A8E4B2E4FE
S11321F0F90180839183A283B3838E0108501F4F1A
S1132200CE018A5B9F4F20E030E04AE753E4FC01B3
S113221060817181828193810E94C513DC01CB01AD
S1132220F80180839183A283B383CE0188509F4FAA
S113223020E030E040E85FE3FC016081718182814D
S113224093810E943F1388234CF4CE0184509F4F06
S113225021E030E0FC01318320836DC0CE01885041
S11322609F4F20E03FEF4FE757E4FC01608171810D
S1132270828193810E94C01318160CF04AC0CE01CB
S11322808A5B9F4F20E030E040E251E4FC01608132
S11322907181828193810E94C513DC01CB018E017F
S11322A004501F4FBC01CD010E944413DC01CB013B
S11322B0F8019183808324C0CE0182509F4F29E18D
S11322C030E0FC0131832083CE0182509F4FFC011A
S11322D0808191810197F1F79E0122503F4FF901CE
S11322E091838083CE0184509F4F9E0124503F4FA1
S11322F0F9012081318121503109FC01318320838E
S1132300CE0184509F4FFC0180819181892BA1F6DD
S113231029C08E0104501F4FCE0188509F4FFC01ED
S113232060817181828193810E944413DC01CB011D
S1132330F80191838083CE0193959E0124503F4FF1
S1132340F90120813181FC0131832083CE019395F1
S1132350FC01808191810197F1F79E013395F90188
S11323609183808382E00E946E0081E00E94950048
S113237083E00E94950084E00E94950089E00E9419
S1132380BC0080E090E0A8E4B2E48AAF9BAFACAFBD
S1132390BDAF8E0102511F4F20E030E04AE753E405
S11323A06AAD7BAD8CAD9DAD0E94C513DC01CB0144
S11323B0F80180839183A283B383CE0182519F4F1E
S11323C020E030E040E85FE3FC01608171818281BC
S11323D093810E943F1388234CF4CE018E509F4F6B
S11323E021E030E0FC013183208369C0CE018251B9
S11323F09F4F20E03FEF4FE757E4FC01608171817C
S1132400828193810E94C01318160CF046C020E00C
S113241030E040E251E46AAD7BAD8CAD9DAD0E94ED
S1132420C513DC01CB018E010E501F4FBC01CD0141
S11324300E944413DC01CB01F8019183808324C002
S1132440CE018C509F4F29E130E0FC013183208381
S1132450CE018C509F4FFC01808191810197F1F74F
S11324609E012C503F4FF90191838083CE018E5001
S11324709F4F9E012E503F4FF90120813181215001
S11324803109FC0131832083CE018E509F4FFC0122
S113249080819181892BA1F62CC08E010E501F4F93
S11324A0CE0182519F4FFC016081718182819381B1
S11324B00E944413DC01CB01F80191838083CE0197
S11324C08A509F4F9E012E503F4FF9012081318148
S11324D0FC0131832083CE018A509F4FFC0180810F
S11324E091810197F1F79E012A503F4FF9019183A1
S11324F080839E012E5B3F4F80E090E0AAE7B4E426
S1132500F90180839183A283B3838E010E5F1E4FF2
S1132510CE018E5B9F4F20E030E04AE753E4FC019C
S113252060817181828193810E94C513DC01CB019A
S1132530F80180839183A283B383CE018E5F9E4F83
S113254020E030E040E85FE3FC016081718182813A
S113255093810E943F1388234CF4CE018A5F9E4FDF
S113256021E030E0FC01318320836DC0CE018E5F19
S11325709E4F20E03FEF4FE757E4FC0160817181FB
S1132580828193810E94C01318160CF04AC0CE01B8
S11325908E5B9F4F20E030E040E251E4FC0160811B
S11325A07181828193810E94C513DC01CB018E016C
S11325B00A5F1E4FBC01CD010E944413DC01CB0114
S11325C0F8019183808324C0CE01885F9E4F29E166
S11325D030E0FC0131832083CE01885F9E4FFC01F3
S11325E0808191810197F1F79E01285F3E4FF901A7
S11325F091838083CE018A5F9E4F9E012A5F3E4F66
S1132600F9012081318121503109FC01318320837A
S1132610CE018A5F9E4FFC0180819181892BA1F6B6
S11326202CC08E010A5F1E4FCE018E5F9E4FFC01AF
S113263060817181828193810E944413DC01CB010A
S1132640F80191838083CE01865F9E4F9E012A5FAD
S11326503E4FF90120813181FC0131832083CE0179
S1132660865F9E4FFC01808191810197F1F79E0165
S1132670265F3E4FF901918380830C94BC040E9431
S1132680731308F481E008950E949F1388F09F5704
S113269098F0B92F9927B751B0F0E1F0660F771F82
S11326A0881F991F1AF0BA95C9F714C0B13091F078
S11326B00E94B913B1E008950C94B913672F782FD1
S11326C08827B85F39F0B93FCCF38695779567953D
S11326D0B395D9F73EF490958095709561957F4FA9
S11326E08F4F9F4F0895990F0008550FAA0BE0E8EC
S11326F0FEEF16161706E807F907C0F012161306C0
S1132700E407F50798F0621B730B840B950B39F4FF
S11327100A2661F0232B242B252B21F408950A2665
S113272009F4A140A6958FEF811D811D089557FDE1
S11327309058440F551F59F05F3F71F04795880F2B
S113274097FB991F61F09F3F79F0879508951216C2
S113275013061406551FF2CF4695F1DF08C016166E
S113276017061806991FF1CF86957105610508941F
S11327700895E894BB2766277727CB0197F9089536
S11327800E94731308F48FEF08950E94D8130C94D9
S113279049140E943B1438F00E94421420F09523FF
S11327A011F00C9432140C94381411240C94BA13B0
S11327B00E94971370F3959FC1F3950F50E0551F36
S11327C0629FF001729FBB27F00DB11D639FAA2782
S11327D0F00DB11DAA1F649F6627B00DA11D661FD1
S11327E0829F2227B00DA11D621F739FB00DA11DF2
S11327F0621F839FA00D611D221F749F3327A00DAC
S1132800611D231F849F600D211D822F762F6A2F47
S113281011249F5750409AF0F1F088234AF0EE0FAC
S1132820FF1FBB1F661F771F881F91505040A9F7D9
S11328309E3F510580F00C9432140C94BA135F3F00
S1132840E4F3983ED4F3869577956795B795F79515
S1132850E7959F5FC1F7FE2B880F911D969587958D
S113286097F9089597F99F6780E870E060E008950C
S11328709FEF80EC089500240A9416161706180694
S11328800906089500240A94121613061406050670
S11328900895092E0394000C11F4882352F0BB0F01
S11328A040F4BF2B11F460FF04C06F5F7F4F8F4F64
S10B28B09F4F0895F894FFCF37
S9030000FC
