S015000042434453657665676D656E74732E7372656325
S11300000C942A000C9434000C9434000C943400A6
S11300100C9434000C9434000C9434000C9434008C
S11300200C9434000C9434000C9434000C9434007C
S11300300C9434000C9434000C9434000C9434006C
S11300400C9434000C9434000C9434000C9434005C
S11300500C94340011241FBECFE5D8E0DEBFCDBF21
S11300600E946E030C9452070C940000CF93DF930C
S1130070CDB7DEB761E08AE10E947E0261E08BE1E8
S11300800E947E0261E08EE10E947E0261E08FE1C7
S11300900E947E0261E088E00E947E0261E089E0C5
S11300A00E947E0261E08AE00E947E0261E08BE0B1
S11300B00E947E0260E08AE10E948E0160E08BE192
S11300C00E948E0160E08EE10E948E0160E08FE16B
S11300D00E948E010000DF91CF910895CF93DF93AA
S11300E01F92CDB7DEB789838981813021F461E025
S11300F08AE10E948E018981823021F461E08BE1E2
S11301000E948E018981833021F461E08EE10E9496
S11301108E018981843021F461E08FE10E948E0197
S113012000000F90DF91CF910895CF93DF931F923A
S1130130CDB7DEB789838981813021F460E08AE11B
S11301400E948E018981823021F460E08BE10E945B
S11301508E018981833021F460E08EE10E948E015A
S11301608981843021F460E08FE10E948E010000D7
S11301700F90DF91CF910895CF93DF931F92CDB766
S1130180DEB789838981882389F460E088E00E944E
S11301908E0160E089E00E948E0160E08AE00E94A6
S11301A08E0160E08BE00E948E01B3C089818130B2
S11301B089F461E088E00E948E0160E089E00E9499
S11301C08E0160E08AE00E948E0160E08BE00E9474
S11301D08E019FC08981823089F460E088E00E94AA
S11301E08E0161E089E00E948E0160E08AE00E9455
S11301F08E0160E08BE00E948E018BC08981833088
S113020089F461E088E00E948E0161E089E00E9447
S11302108E0160E08AE00E948E0160E08BE00E9423
S11302208E0177C08981843089F460E088E00E947F
S11302308E0160E089E00E948E0161E08AE00E9404
S11302408E0160E08BE00E948E0163C0898185305D
S113025089F461E088E00E948E0160E089E00E94F8
S11302608E0161E08AE00E948E0160E08BE00E94D2
S11302708E014FC08981863089F460E088E00E9455
S11302808E0161E089E00E948E0161E08AE00E94B3
S11302908E0160E08BE00E948E013BC08981873033
S11302A089F461E088E00E948E0161E089E00E94A7
S11302B08E0161E08AE00E948E0160E08BE00E9482
S11302C08E0127C08981883089F460E088E00E942B
S11302D08E0160E089E00E948E0160E08AE00E9465
S11302E08E0161E08BE00E948E0113C08981893008
S11302F081F461E088E00E948E0160E089E00E9460
S11303008E0160E08AE00E948E0161E08BE00E9431
S11303108E0100000F90DF91CF910895CF93DF936A
S113032000D0CDB7DEB789836A838981883078F5B8
S11303308A818130A1F48BE390E02BE330E0F90172
S11303402081622F2981422F50E021E030E002C059
S1130350220F331F4A95E2F7262BFC0120838A8162
S11303608823A9F48BE390E02BE330E0F9012081AA
S1130370622F2981422F50E021E030E002C0220F99
S1130380331F4A95E2F720952623FC0120838981B7
S11303908830C0F189818031A8F58A818130B9F42F
S11303A088E390E028E330E0F9012081622F29817D
S11303B0222F30E0A9014850510921E030E002C069
S11303C0220F331F4A95E2F7262BFC0120838A81F2
S11303D08823C1F488E390E028E330E0F901208128
S11303E0622F2981222F30E0A9014850510921E0D0
S11303F030E002C0220F331F4A95E2F720952623EE
S1130400FC01208389818031C0F189818831A8F57C
S11304108A818130B9F485E390E025E330E0F90185
S11304202081622F2981222F30E0A90140515109F6
S113043021E030E002C0220F331F4A95E2F7262B59
S1130440FC0120838A818823C1F485E390E025E3BD
S113045030E0F9012081622F2981222F30E0A901A7
S11304604051510921E030E002C0220F331F4A9568
S1130470E2F720952623FC01208389818931C0F18C
S113048089818032A8F58A818130B9F482E390E0D1
S113049022E330E0F9012081622F2981222F30E00C
S11304A0A9014851510921E030E002C0220F331F55
S11304B04A95E2F7262BFC0120838A818823C1F424
S11304C082E390E022E330E0F9012081622F298168
S11304D0222F30E0A9014851510921E030E002C047
S11304E0220F331F4A95E2F720952623FC0120832F
S11304F000000F900F90DF91CF910895CF93DF9379
S113050000D0CDB7DEB789836A838981883078F5D6
S11305108A818130A1F48AE390E02AE330E0F90192
S11305202081622F2981422F50E021E030E002C077
S1130530220F331F4A95E2F7262BFC0120838A8180
S11305408823A9F48AE390E02AE330E0F9012081CA
S1130550622F2981422F50E021E030E002C0220FB7
S1130560331F4A95E2F720952623FC0120838981D5
S11305708830C0F189818031A8F58A818130B9F44D
S113058087E390E027E330E0F9012081622F29819D
S1130590222F30E0A9014850510921E030E002C087
S11305A0220F331F4A95E2F7262BFC0120838A8110
S11305B08823C1F487E390E027E330E0F901208148
S11305C0622F2981222F30E0A9014850510921E0EE
S11305D030E002C0220F331F4A95E2F7209526230C
S11305E0FC01208389818031C0F189818831A8F59B
S11305F08A818130B9F484E390E024E330E0F901A6
S11306002081622F2981222F30E0A9014051510914
S113061021E030E002C0220F331F4A95E2F7262B77
S1130620FC0120838A818823C1F484E390E024E3DD
S113063030E0F9012081622F2981222F30E0A901C5
S11306404051510921E030E002C0220F331F4A9586
S1130650E2F720952623FC01208389818931C0F1AA
S113066089818032A8F58A818130B9F481E390E0F0
S113067021E330E0F9012081622F2981222F30E02B
S1130680A9014851510921E030E002C0220F331F73
S11306904A95E2F7262BFC0120838A818823C1F442
S11306A081E390E021E330E0F9012081622F298188
S11306B0222F30E0A9014851510921E030E002C065
S11306C0220F331F4A95E2F720952623FC0120834D
S11306D000000F900F90DF91CF9108950F931F9317
S11306E0CF93DF93CDB7DEB7C654D1090FB6F894D4
S11306F0DEBF0FBECDBF0E94360080E090E0A8E4CC
S1130700B2E489839A83AB83BC8320E030E04AE778
S113071053E469817A818B819C810E94BD06DC014E
S1130720CB019E01235C3F4FF90180839183A28317
S1130730B38320E030E040E85FE3CE01CD96FC01D6
S113074060817181828193810E94370688234CF4F1
S1130750CE018F5B9F4F21E030E0FC013183208389
S113076067C020E03FEF4FE757E4CE01CD96FC0190
S113077060817181828193810E94B80618160CF001
S113078046C020E030E040E251E469817A818B8107
S11307909C810E94BD06DC01CB018E010F5B1F4FC3
S11307A0BC01CD010E943C06DC01CB01F801918320
S11307B0808324C0CE018D5B9F4F29E130E0FC0192
S11307C031832083CE018D5B9F4FFC018081918119
S11307D00197F1F79E012D5B3F4FF90191838083CF
S11307E0CE018F5B9F4F9E012F5B3F4FF90120810C
S11307F0318121503109FC0131832083CE018F5B8B
S11308009F4FFC0180819181892BA1F62BC08E0121
S11308100F5B1F4FCE01CD96FC01608171818281F7
S113082093810E943C06DC01CB01F8019183808313
S1130830CE018B5B9F4F9E012F5B3F4FF9012081BF
S11308403181FC0131832083CE018B5B9F4FFC01FE
S1130850808191810197F1F79E012B5B3F4FF90154
S11308609183808381E00E946E0082E00E94950063
S113087083E00E94950084E00E94950083E00E943A
S1130880BC0080E090E0A8E4B2E48D839E83AF8353
S1130890B88720E030E04AE753E46D817E818F81A0
S11308A098850E94BD06DC01CB018BAB9CABADAB44
S11308B0BEAB20E030E040E85FE36BA97CA98DA9E2
S11308C09EA90E94370688232CF481E090E098AF1B
S11308D08FAB3FC020E03FEF4FE757E46BA97CA903
S11308E08DA99EA90E94B80618164CF520E030E0A8
S11308F040E251E46D817E818F8198850E94BD061E
S1130900DC01CB01BC01CD010E943C06DC01CB0122
S113091098AF8FAB0FC089E190E09AAF89AF89ADF2
S11309209AAD0197F1F79AAF89AF8FA998AD019766
S113093098AF8FAB8FA998AD892B69F714C06BA9B9
S11309407CA98DA99EA90E943C06DC01CB0198AF2D
S11309508FAB8FA998AD9CAF8BAF8BAD9CAD01973E
S1130960F1F79CAF8BAF81E00E94950082E00E947A
S11309706E0083E00E94950084E00E94950089E067
S11309800E94BC0080E090E0A8E4B2E489879A87E2
S1130990AB87BC8720E030E04AE753E469857A8579
S11309A08B859C850E94BD06DC01CB0189A79AA793
S11309B0ABA7BCA720E030E040E85FE369A57AA5D7
S11309C08BA59CA50E94370688232CF481E090E037
S11309D09EA78DA73FC020E03FEF4FE757E469A5EE
S11309E07AA58BA59CA50E94B80618164CF520E0A4
S11309F030E040E251E469857A858B859C850E94CC
S1130A00BD06DC01CB01BC01CD010E943C06DC012A
S1130A10CB019EA78DA70FC089E190E098AB8FA76B
S1130A208FA598A90197F1F798AB8FA78DA59EA5DF
S1130A3001979EA78DA78DA59EA5892B69F714C044
S1130A4069A57AA58BA59CA50E943C06DC01CB0177
S1130A509EA78DA78DA59EA59AAB89AB89A99AA9B6
S1130A600197F1F79AAB89AB81E00E94950082E08F
S1130A700E94950083E00E946E0084E00E9495002D
S1130A8089E00E94BC0080E090E0A8E4B2E48D8795
S1130A909E87AF87B88B20E030E04AE753E46D854A
S1130AA07E858F8598890E94BD06DC01CB018F8FDE
S1130AB098A3A9A3BAA320E030E040E85FE36F8DD8
S1130AC078A189A19AA10E94370688232CF481E099
S1130AD090E09CA38BA33FC020E03FEF4FE757E497
S1130AE06F8D78A189A19AA10E94B80618164CF5B9
S1130AF020E030E040E251E46D857E858F85988961
S1130B000E94BD06DC01CB01BC01CD010E943C0664
S1130B10DC01CB019CA38BA30FC089E190E09EA3D1
S1130B208DA38DA19EA10197F1F79EA38DA38BA107
S1130B309CA101979CA38BA38BA19CA1892B69F7F2
S1130B4014C06F8D78A189A19AA10E943C06DC0192
S1130B50CB019CA38BA38BA19CA198A78FA38FA14E
S1130B6098A50197F1F798A78FA381E00E949500BB
S1130B7082E00E94950083E00E94950084E00E9438
S1130B806E0081E00E94BC0080E090E0A8E4B2E442
S1130B90898B9A8BAB8BBC8B20E030E04AE753E423
S1130BA069897A898B899C890E94BD06DC01CB0105
S1130BB08D8B9E8BAF8BB88F20E030E040E85FE3F5
S1130BC06D897E898F89988D0E94370688232CF43D
S1130BD081E090E09A8F898F3FC020E03FEF4FE79C
S1130BE057E46D897E898F89988D0E94B8061816FE
S1130BF04CF520E030E040E251E469897A898B8940
S1130C009C890E94BD06DC01CB01BC01CD010E9480
S1130C103C06DC01CB019A8F898F0FC089E190E0FB
S1130C209C8F8B8F8B8D9C8D0197F1F79C8F8B8F75
S1130C30898D9A8D01979A8F898F898D9A8D892BA9
S1130C4069F714C06D897E898F89988D0E943C064E
S1130C50DC01CB019A8F898F898D9A8D9E8F8D8F20
S1130C608D8D9E8D0197F1F79E8F8D8F46CD0E94BD
S1130C706B0608F481E008950E94970688F09F5758
S1130C8098F0B92F9927B751B0F0E1F0660F771FAC
S1130C90881F991F1AF0BA95C9F714C0B13091F0A2
S1130CA00E94B106B1E008950C94B106672F782F25
S1130CB08827B85F39F0B93FCCF386957795679567
S1130CC0B395D9F73EF490958095709561957F4FD3
S1130CD08F4F9F4F0895990F0008550FAA0BE0E816
S1130CE0FEEF16161706E807F907C0F012161306EA
S1130CF0E407F50798F0621B730B840B950B39F42A
S1130D000A2661F0232B242B252B21F408950A268F
S1130D1009F4A140A6958FEF811D811D089557FD0B
S1130D209058440F551F59F05F3F71F04795880F55
S1130D3097FB991F61F09F3F79F0879508951216EC
S1130D4013061406551FF2CF4695F1DF08C0161698
S1130D5017061806991FF1CF869571056105089449
S1130D600895E894BB2766277727CB0197F9089560
S1130D700E946B0608F48FEF08950E94D0060C942D
S1130D8041070E94330738F00E943A0720F0952368
S1130D9011F00C942A070C94300711240C94B20619
S1130DA00E948F0670F3959FC1F3950F50E0551F75
S1130DB0629FF001729FBB27F00DB11D639FAA27AC
S1130DC0F00DB11DAA1F649F6627B00DA11D661FFB
S1130DD0829F2227B00DA11D621F739FB00DA11D1C
S1130DE0621F839FA00D611D221F749F3327A00DD6
S1130DF0611D231F849F600D211D822F762F6A2F72
S1130E0011249F5750409AF0F1F088234AF0EE0FD6
S1130E10FF1FBB1F661F771F881F91505040A9F703
S1130E209E3F510580F00C942A070C94B2065F3F54
S1130E30E4F3983ED4F3869577956795B795F7953F
S1130E40E7959F5FC1F7FE2B880F911D96958795B7
S1130E5097F9089597F99F6780E870E060E0089536
S1130E609FEF80EC089500240A94161617061806BE
S1130E700906089500240A9412161306140605069A
S1130E800895092E0394000C11F4882352F0BB0F2B
S1130E9040F4BF2B11F460FF04C06F5F7F4F8F4F8E
S10B0EA09F4F0895F894FFCF61
S9030000FC
